:100000000043000000040000C7CC00000000000016
:1000100000000000000000000000000000000000E0
:10002000022CBB9001FA7401F0222202292502352C
:10003000FC0000020816D2AF32000002081ED2AF48
:10004000320000021C8AD2AF320000020826E4907F
:1000500001DAF0A3F01220AB90018C12101E1230C6
:10006000E1E4FCFD120EA090018C12102A90019088
:10007000E475F001120E08C3900193E094649001BE
:1000800092E094005003020AD490018C121012ECFA
:10009000C0E0EDC0E0EEC0E0EFC0E0900190E0FE17
:1000A000A3E0FBEEFAE4F9F8D0E0FFD0E0FED0E008
:1000B000FDD0E0FC120F4690018C12102A90018CAA
:1000C00012101290018AEEF0A3EFF0A31210360086
:1000D00000000090019012310E9001FBE07002A32D
:1000E000E06003020AD4900194E07002A3E0600390
:1000F000020AD490013FE0700302096E900186E08D
:100100007002A3E0701D90018AE0FFA3E0900186D9
:100110001230C51231209001967403F0A374E8F0F8
:1001200002097E90018AE0FEA3E0FFC3900187E010
:100130009FFF900186E09EFE1236749001B012106F
:1001400073EE8FF0120E81900184E0701D9001B06B
:100150001230CDC39406E5F0940050081230CA1254
:10016000312080069001847401F090018AE0FEA3A2
:10017000E0FFD3900187E09F900186E09E4007E476
:10018000900185F080189001857401F08010900135
:100190008612310E900184F090019812310F900177
:1001A00084E07003020AD4D3900189E094009001A6
:1001B00088E094005003020AD41230CAFF900188EC
:1001C000E0FCA3E0FDC3EF9DFFE5F09CFE1236745A
:1001D0009001DCEEF0A3EFF0A3E4F074C81230C895
:1001E000D39494E5F09411400A9001DE7403F0A3D7
:1001F0007420F09001DCE0FFA3E09001B41230C560
:10020000D31230D4400CD39001DDE094641230F866
:1002100050131230CA1230D350369001DDE094C82A
:100220001230F8402BE4900184F0900186F01230F7
:10023000C81230D39001945008E4F0A374C8F08041
:10024000077401F0A3742CF0E4900185F0020AD445
:100250001230CAFFD31230D5404AD31230F2404494
:1002600090010812107374FF75F0F9120E49900195
:100270009AE475F007120E08C3900199E094E89093
:100280000198E09403501DA3E09407900198E09436
:1002900000400A74FF75F0F9120E088007E490011F
:1002A00098F0A3F01230CA1230D350481230F24006
:1002B00043900108121073E475F007120E49900183
:1002C00098E475F007120E08C390019BE0945890D3
:1002D000019AE09402501DA3E0940790019AE094E3
:1002E00000400A74FF75F0F9120E088007E49001CF
:1002F0009AF0A3F090013FE060179001D0E0700207
:10030000A3E0700D1230EA9001D0CFF0A3EFF0809F
:100310001F90013FE070191230CAC39496E5F09423
:1003200000500DE49001D0F0A3F09001D4F0A3F0C0
:100330009001D0E07002A3E07003020BD81230E10C
:10034000C39001D1E09FFF9001D0E09EFE12367471
:100350009001DAEEF0A3EFF01230E1D39001D1E09A
:100360009F9001D0E09E400D9001DAE0FFA3E09065
:1003700001D2CF801A9001DAE0FEA3E0FFD394C847
:10038000EE9400400EEE13FEEF13FF9001D2EEF05C
:10039000A3EFF0D39001D3E0940A9001D2E094004F
:1003A00040561230CAD39488E5F09413402390014C
:1003B000D5E094DC9001D4E09405503C9001D3E06A
:1003C00025E0FE9001D2E0339001D4F0A3CEF0807E
:1003D000271230CAD394E8E5F09403401B9001D56E
:1003E000E094F49001D4E09401500D9001D2E0FF2C
:1003F000A3E0A3CFF0A3EFF090020FE0640160034D
:10040000020CC990013FE06003020CB69001A6E027
:100410007002A3E0700B1230EA9001A6CFF0A3EFB8
:10042000F01230E1C39001A5E09F9001A4E09E503E
:1004300004EE1231189001AAE07002A3E0705A1283
:1004400030E1D312312B40129001A7E09FFF9001C1
:10045000A6E09E9001A8F0A3EFF0D39001A9E0944C
:10046000049001A8E0940040081230FF7464F0800A
:1004700015D39001A9E094069001A8E094004006ED
:100480001230FF74C8F09001AA7403F0A374E8F06E
:100490001230EA9001A6CF800D1230E1C312312B49
:1004A00050089001A6EEF0A3EFF09001ACE07002CE
:1004B000A3E070121230EA123117E49001AEF0A3FB
:1004C000F09001D680209001AEE0FFA3E09001D62D
:1004D000CFF0A3EFF0221230EA123117E49001D6E8
:1004E000F0A3F09001AEF0A3F022E709F608DFFADE
:1004F0008046E709F208DFFA803E88828C83E709AC
:10050000F0A3DFFA8032E309F608DFFA8078E30926
:10051000F208DFFA807088828C83E309F0A3DFFAA7
:10052000806489828A83E0A3F608DFFA8058898292
:100530008A83E0A3F208DFFA804C80D280FA80C67A
:1005400080D4806980F28033801080A680EA809A0F
:1005500080A880DA80E280CA803389828A83ECFABC
:10056000E493A3C8C582C8CCC583CCF0A3C8C58218
:10057000C8CCC583CCDFE9DEE7800D89828A83E4BD
:1005800093A3F608DFF9ECFAA9F0EDFB2289828A41
:1005900083ECFAE0A3C8C582C8CCC583CCF0A3C85D
:1005A000C582C8CCC583CCDFEADEE880DB89828ADD
:1005B00083E493A3F208DFF980CC88F0EF60010EAA
:1005C0004E60C388F0ED2402B4040050B9F582EB0C
:1005D0002402B4040050AF2323458223900D1A73E4
:1005E000EF8DF0A4A8F0CF8CF0A428CE8DF0A42E2F
:1005F000FE22C2D5EC30E709B2D5E4C39DFDE49CF0
:10060000FCEE30E715B2D5E4C39FFFE49EFE121066
:10061000DEC3E49DFDE49CFC80031210DE30D507B0
:10062000C3E49FFFE49EFE22C5F0F8A3E028F0C5D6
:10063000F0F8E582158270021583E038F022BB01E4
:100640000A89828A83E0F5F0A3E022500687F00948
:10065000E71922BBFE07E3F5F009E3192289828A34
:1006600083E493F5F074019322BB010789828A83A6
:10067000020E08500B09C5F027F7C5F01937F7220D
:10068000BBFE0D09F8E325F0F3C5F019E338F322BA
:10069000F889828A8374019325F0C5F0F8E49338D1
:1006A00022BB010A89828A83F0E5F0A3F02250067A
:1006B000F709A7F01922BBFE06F3E5F009F31922AA
:1006C000EF2BFFEE3AFEED39FDEC38FC22C3EF9B39
:1006D000FFEE9AFEED99FDEC98FC22E88FF0A4CC99
:1006E0008BF0A42CFCE98EF0A42CFC8AF0EDA42C59
:1006F000FCEA8EF0A4CDA8F08BF0A42DCC3825F028
:10070000FDE98FF0A42CCD35F0FCEB8EF0A4FEA912
:10071000F0EB8FF0A4CFC5F02ECD39FEE43CFCEA1F
:10072000A42DCE35F0FDE43CFC2275F00875820066
:10073000EF2FFFEE33FECD33CDCC33CCC58233C5A6
:10074000829BED9AEC99E58298400CF582EE9BFE37
:10075000ED9AFDEC99FC0FD5F0D6E4CEFBE4CDFA92
:10076000E4CCF9A88222B800C1B90059BA002DEC36
:100770008BF084CFCECDFCE5F0CBF97818EF2FFFCE
:10078000EE33FEED33FDEC33FCEB33FB10D7039976
:100790004004EB99FB0FD8E5E4F9FA227818EF2F23
:1007A000FFEE33FEED33FDEC33FCC933C910D70542
:1007B0009BE99A4007EC9BFCE99AF90FD8E0E4C961
:1007C000FAE4CCFB2275F010EF2FFFEE33FEED3391
:1007D000FDCC33CCC833C810D7079BEC9AE89940BE
:1007E0000AED9BFDEC9AFCE899F80FD5F0DAE4CD20
:1007F000FBE4CCFAE4C8F922EB9FF5F0EA9E42F064
:10080000E99D42F0EC6480C864809845F022EB9F3B
:10081000F5F0EA9E42F0E99D42F0E89C45F022E8BE
:10082000600FECC313FCED13FDEE13FEEF13FFD8C6
:10083000F122E0FCA3E0FDA3E0FEA3E0FF22E0F84C
:10084000A3E0F9A3E0FAA3E0FB22ECF0A3EDF0A310
:10085000EEF0A3EFF022A8828583F0D083D082123D
:10086000104D12104D12104D12104DE473E493A36D
:10087000C583C5F0C583C8C582C8F0A3C583C5F0CC
:10088000C583C8C582C822A42582F582E5F03583D8
:10089000F58322E0FBA3E0FAA3E0F922EBF0A3EA60
:1008A000F0A3E9F022EC8EF0A4CCC5F0CCCDF8EFAB
:1008B000A4CEC5F02DFDE43CFCE8A42EC8C5F03D57
:1008C000FDE43CFCEFA4FFE5F028FEE43DFDE43C44
:1008D000FC22EF4E6012EF60010EEDBB010B89822E
:1008E0008A83F0A3DFFCDEFA2289F05007F709DFE4
:1008F000FCA9F022BBFEFCF309DFFCA9F022BC003E
:100900000BBE0029EF8DF084FFADF022E4CCF8752A
:10091000F008EF2FFFEE33FEEC33FCEE9DEC984039
:1009200005FCEE9DFE0FD5F0E9E4CEFD22EDF8F5D5
:10093000F0EE8420D21CFEADF075F008EF2FFFED35
:1009400033FD4007985006D5F0F222C398FD0FD52D
:10095000F0EA227F0112304C122818902E20E0304D
:10096000E2F990020FE025E0248EF582E43436129D
:1009700027DB9001DF12280A7F011228344E70080D
:100980009001DF122840801E7C007D03120DC09074
:1009900001E0E02FFF9001DFE03EFE7802EFCEC3E2
:1009A00013CE13D8F9FFEE1227D34E70031227CBC4
:1009B0001227CB90015BE07002A3E0700F90015F03
:1009C000E0FFA3E090015BCFF0A3EFF09001E11214
:1009D000103600002710E4FF12304CE49001DCF0E8
:1009E0009001DCE0FF7E00C3940274809480400399
:1009F0000213BCEF2401FFEE33FE1227EDFDD3EF0F
:100A00009D7480F86E9840030213B3E4FF12281817
:100A1000902E20E030E2F990020FE025E0248DF5E1
:100A200082E434361227DB9001DD12280AFF1228F7
:100A300034C390015CE09FFF90015BE09E9001DD7C
:100A40008FF0120E089001DDE0FAA3E0FB90016147
:100A5000EAF0A3EBF074FFF523F524F525F526E481
:100A6000F527F528F529F52AF52EF52DF52CF52B8A
:100A70009001CCEAF0A3EBF0E4F522C3E522940860
:100A80007480948040030212FDE52225E024BEF527
:100A900082E43401F583E0FEA3E0FF4E60028008AB
:100AA0009001DDE0FEA3E0FF1227B2EEF0A3EFF02D
:100AB0001227B2E0FEA3E0FFD39528EE9527400C65
:100AC00085272985282A8E278F28800DD3EF952A00
:100AD000EE952940048E298F2AC3EF9524EE9523A5
:100AE000500C8523258524268E238F24800DC3EF6B
:100AF0009526EE952550048E258F261227B2E0FE0E
:100B0000A3E0FFE4FCFDE52E2FFFE52D3EFEED35D5
:100B10002CFDEC352B12278D052202125BAE27AF80
:100B200028EFFB122779AE29AF2A122776AE23AF22
:100B300024122776AE25AF26122776FC7802120FF4
:100B4000FF9001CEEEF0A3EFF090015DE0FEA3E098
:100B5000FF4E70089001CE122840801E7C007D035D
:100B6000120DC09001CFE02FFF9001CEE03EFE7845
:100B700002EFCEC313CE13D8F9FF90015DEEF0FA69
:100B8000A3EFF0FB1227C3FFE4FCFD9001E6121077
:100B90002AEBFFEAFEE4FCFD9001EA12102AE4FFD2
:100BA000121DFD900165EEF0A3EFF090020FE064DE
:100BB000019001E1700B1227C02400FFEE34F08099
:100BC000091227C02400FFEE34E8FE3395E0FDFC57
:100BD00012284A9001DCE004F00211C0902E23E4B8
:100BE000F09001E112101EE8C0E0E9C0E0EAC0E0C8
:100BF000EBC0E01227EDFFFBE4FAF9F8122825120A
:100C000033FBD0E0FBD0E0FAD0E0F9D0E0F81228D6
:100C10004AE47F507EC3FDFC9001E112101ED31206
:100C20000FD8400A9001E11210360000C35012287C
:100C300025EC33500A9001E11210360000000090BC
:100C4000016BE0FAA3E0FB4A700512282580227EA2
:100C5000007F02EBFDEAFC121085ECF8EDF9EEFAEC
:100C6000EFFB122825120EA0E47B03FAF9F8120F0D
:100C70004690016BEEF0A3EFF0900159E07002A3F3
:100C8000E0700F90016BE0FFA3E0900159CFF0A35B
:100C9000EFF09001261227C0FFE4FCFD120EA09099
:100CA000012612102A90012AE475F001120E089014
:100CB000012AE0FEA3E0FFD3940AEE94004029EF5E
:100CC000FBEEFAE4F9F8900126121012120F46908A
:100CD0000124EEF0A3EFF0E490012AF0A3F09001DC
:100CE000261210360000000090012CE07002A3E0F4
:100CF000703A900124E0FEA3E0FFC3900166E09FFC
:100D0000FF900165E09EFE123674900122EEF0A382
:100D1000EFF0D39406EE9400401290012C7403F08F
:100D2000A374E8F0A3E475F001120E0890016BE0E3
:100D3000FEA3E0FF22122B9B40030218069001083D
:100D4000122B6EFDE5F0FC122B6BFFAEF0D39DEE87
:100D50009C402E122C04D3EF9430EE9475400C90EE
:100D600001DA7475F0A37430F08010120E1EC39D6A
:100D7000FEE5F09C9001DAF0A3CEF0E49001B6809D
:100D800060120E1EFFAEF0C3ED9FFBEC9EFAD3EB9C
:100D90009410EA9427400C9001DA7427F0A37410A1
:100DA000F08009C3ED9FFFEC9E122BC19001DAE0A9
:100DB000FFA3E09001B6CFF0A3EFF0300718D3E027
:100DC000942C9001B6E0940140139001B87427F080
:100DD000A37410F08007E49001B8F0A3F0E4900150
:100DE000DAF0A3F090013FE0604A122B74D3940034
:100DF000EE648094804014D3EF9509EE9508400B83
:100E0000900201E4F0A37464F0801BD3900202E02E
:100E10009400900201E09400400C900105122B6EAA
:100E2000FFE5F0122BC1D204900207740FF0A374F7
:100E3000A0F0800F9002057403F0A374E8F0E4FFC3
:100E40001234FED39001DBE094009001DAE064807C
:100E5000948050030217DBE0FEA3E0FF900105122F
:100E60002B62122B74EE3395E0FDFCE47BB87A889C
:100E7000F9F8C3120FD8500A9001DA7488F0A374FD
:100E8000B8F0D3900204E09400900203E094005084
:100E9000089000F1E06420702AE509240AFFE43597
:100EA00008FE9001DAE0FCA3E0FDC39FEC9E501326
:100EB000ED9400EC648094804038122B747C007DAB
:100EC0000A802930072C90013FE07011122B74C367
:100ED0009515EE9514501B7C027DBC800F122B746F
:100EE000C39509EE9508500A7C027DBC120DD21202
:100EF0002BC090013FE07003021760900205E07084
:100F000002A3E070149001DAE0FEA3E0FDEEFCE441
:100F1000FF121807122BC08035122B74C3900135B5
:100F2000E09FFF900134E09EFE123674D3EF9428C8
:100F3000EE648094804017D3900206E094C890023B
:100F400005E09400400874FF75F09C120E089001B3
:100F500034E0FEA3E0FF7C007D0F121085ECF8ED7D
:100F6000F9EEFAEFFB122B74EE3395E0FDFC120E56
:100F7000A0E47B10FAF9F8120F46900134EE800BD2
:100F80009001DAE0FFA3E0900134CFF0A3EFF090FE
:100F90000134E0FEA3E0FFD39405EE9400400EEF91
:100FA0009410EE940050069001DAEE801690013015
:100FB000E0FEA3E0FF900135E02FFF900134E03E1A
:100FC0009001DAF0A3EFF0D39001DBE094309001D0
:100FD000DAE0648094F540077475F0A37430F0E5AE
:100FE000DB54047041122B7490010E122B6290019D
:100FF000DBE024A8FF9001DAE08022E5DB540470F6
:1010000025122B8F900130E0FEA3E0FF90010E121D
:101010002B6290010E122B6E24A8FFE5F03461FEC6
:1010200090010B122B62229001DCEFF0A3ECF0A3F5
:10103000EDF0EF122A5DE0FEA3E0C39DFFEE9CFE03
:10104000123674D3EF9428EE64809480401C122AE8
:101050002D121036000000001229F9E4F0122A7750
:10106000122A59EEF0A3EFF0803B1229E8122A8DE4
:1010700040339001DDE0FCA3E0FDD3EF9DEE9C400A
:101080000B9001DCE0122A20E04401F09001DCE04A
:10109000FF1229ECE0FAA3E0C39DEA9C5007122A54
:1010A0001FE04402F09001DCE0122A32C083C082CB
:1010B00012101E122A77E4FCFD120EA0D082D083FB
:1010C00012102A9001DCE0FF122A80E475F0011270
:1010D0000E08EF75F007A42496F582E43436F58304
:1010E000E493FE740193FF9001DCE0FDC454F0240E
:1010F0002CF582E43402F583E0FAA3E0C39FEA9E74
:101100005003021A73ED122A80E0FEA3E0FFFBEE0B
:10111000FAE4F9F89001DCE0122A32121012120FF0
:10112000469001DF12102A1229E2E0FCA3E0C39FDF
:10113000FFEC9EFE1236749001E3EEF0A3EFF09008
:1011400001DCE0FD75F007A42491F582E43436F566
:1011500083C37401939FE4939E401FED1229ECE03A
:10116000FEA3E04E60149001DCE0FB122A6AE0FE70
:10117000A3E0C394B8EE940B501E9001DCE0FF1284
:1011800029ECE0FCA3E04C7008EF122A6AE4F0A31B
:10119000F01229E2EE021A1AEB6003021A20900103
:1011A000E5F09001E3E0FEA3E0FFD39450EE94005D
:1011B0004006A37408F080329001DCE0122A20E09F
:1011C00064036026D3EF943CEE940040089001E560
:1011D0007404F08015D39001E4E094289001E3E0DA
:1011E000940040069001E57402F01229E8E0FEA3A5
:1011F000E0FFE4FCFD122A99D3120FEE401190019A
:10120000E5E0FF1229E8E48FF0120E08021A56D327
:101210009001E4E094509001E3E0940040581229DA
:10122000E8C083C082E0FEA3E0FF9001E5E0FDC3DB
:10123000EF9DFFEE9400D082D083F0A3EFF08036D4
:101240001229E8E0FEA3E0FF4E700D122A99EBFF91
:10125000EAFEE9FDE8FC80167C007D07121085128D
:101260002A99120EA0E47B08FAF9F8120F46122907
:10127000E8EEF0A3EFF0122A2D1210360000000065
:101280001229F9E4F09001DF121012122A59EEF03F
:10129000A3EFF01229E8122A8D405F9001DEE09F53
:1012A000FF9001DDE09EFE1236749001DCE075F0E7
:1012B00007A42493F582E43436F583D37401939F15
:1012C000E4939E400F9001DCE0FF1229EC122A3FCC
:1012D000E4F080269001DCE0FF75F007A42495F58A
:1012E00082E43436F583E493FE122A4BE0C39E5029
:1012F000091229E8122A3FE004F0122A7722D3903B
:1013000001FCE09F9001FBE09E400AA3E09FF0906B
:1013100001FBE09EF09002001232119001FFE09C70
:10132000400CA3E09FF09001FFE09EF08002D28A83
:10133000D39001FEE09F9001FDE09E400AA3E09F54
:10134000F09001FDE09EF0123223500312325BD385
:10135000900202E09F900201E09E400AA3E09FF00D
:10136000900201E09EF0D3900204E09F900203E01F
:101370009E400AA3E09FF0900203E09EF0D390020B
:101380000AE09F900209E09E400AA3E09FF09002CD
:1013900009E09EF0D3900206E09F900205E09E4097
:1013A0000AA3E09FF0900205E09EF0D3900208E0CF
:1013B0009F900207E09E400AA3E09FF0900207E0A2
:1013C0009EF0D39001B9E09F9001B8E09E400AA33F
:1013D000E09FF09001B8E09EF090020C1232119064
:1013E000020BE09C400AA3E09FF090020BE09EF00D
:1013F000123231500312325BD3900195E09F90017D
:1014000094E09E400AA3E09FF0900194E09EF0904B
:101410000197123261900196E09C400AA3E09FF090
:10142000900196E09EF0D39001ABE09F9001AAE07E
:101430009E400AA3E09FF09001AAE09EF0D39001A5
:10144000ADE09F9001ACE09E400AA3E09FF09001C8
:10145000ACE09EF0900172123261900171E09C400C
:101460000AA3E09FF0900171E09EF0D39001BBE0F1
:101470009F9001BAE09E400AA3E09FF09001BAE07D
:101480009EF012323F500312325B12324D50031263
:10149000325BD390012DE09F90012CE09E400AA387
:1014A000E09FF090012CE09EF022C0E0C0F0C083ED
:1014B000C082C0D0E8C0E0D2AFD39001FCE094007D
:1014C0009001FBE09400400312320AD3900200E046
:1014D00094019001FFE09400400512320A8002D28C
:1014E0008AD39001FEE094009001FDE09400400357
:1014F00012320A123223500312321CD3900202E03D
:101500009400900201E09400400312320AD390024A
:1015100004E09400900203E09400400312320AD3E6
:1015200090020AE09400900209E094004003123215
:101530000AD3900206E09400900205E09400400374
:1015400012320AD3900208E09400900207E094005F
:10155000400312320AD39001B9E094009001B8E040
:101560009400400312320AD390020CE094019002DE
:101570000BE09400400312320A123231500312324F
:101580001CD3900195E09400900194E094004003F6
:1015900012320AD3900197E09401900196E09400F2
:1015A000400312320AD39001ABE094009001AAE00C
:1015B0009400400312320AD39001ADE094009001F0
:1015C000ACE09400400312320AD3900172E094011F
:1015D000900171E09400400312320AD39001BBE005
:1015E00094009001BAE09400400312320A12323F94
:1015F000500312321C12324D500312321CD3900190
:101600002DE0940090012CE09400400312320AD0A7
:10161000E0F8D0D0D082D083D0F0D0E0329001E595
:10162000EFF012289EE070279001E5E01228D51215
:101630001012E4FBFAF9F8C3120FEE60129001E504
:10164000E01228F3121012E4F8C3120FEE705712D2
:1016500029079001E6121F39EEF0A3EFF0ED1228F2
:101660009EE06029ED75F00AA42486F582E4343604
:10167000F583C083C08290020FE0D082D08312280D
:10168000AC400A9001E5E012289E7405F012285340
:10169000E0D3940074809480400612289DE014F0FA
:1016A0009001EA021F351228D01210129001EE129A
:1016B000102A1228F21210129001F212102A900130
:1016C000E5E01228E4121012EFF9122910E9F812DD
:1016D0000FFFEFFBEEFAEDF9ECF8122910120EAD48
:1016E0009001F612102A9001EE1210129001EA12E7
:1016F000101E120EA09001F612101E120EA012293A
:10170000011228D012290D1228F212290D122916C1
:1017100012101E120F461229019001F2121F39EE0B
:10172000F0A3EFF0ED75F00AA42482F582E43436DC
:10173000F583C083C08290020FE0D082D08312284C
:10174000AC400F1228537405F01229079001F212D1
:10175000102A9001F212101222EFFBEEFA12101270
:10176000C3EF9BFFEE9AFE1236749001E5E0FD7523
:10177000F013A4241AF582E43402F583227FFF7A61
:10178000007900122DD77FDA7A017900122DD77EE9
:10179000007F147D007B017A0179FA1210B2902D3E
:1017A000E0E493900001F09000047411F0A374221F
:1017B000F0A37433F0902DE2E493900012F0902D9A
:1017C000E3E493900014F09000FB7401F090003675
:1017D0007410F09000F1F0900024F0A37420F07BDE
:1017E000017A00794090010212107C7A00794490CD
:1017F000010812107C7A00794290010512107C7A5F
:1018000000792E90010B12107C7A00792A90010E3B
:1018100012107C7A00792890011112107C7A0079DC
:101820006090011F12107C7A0079809001B0121034
:101830007C7A00791890013912107C7A00791B901B
:10184000013612107C7A00793290011412107C7AE1
:1018500000792690011712107C7A00793490011AD1
:1018600012107C900114121073E475F0C8120E81EE
:10187000900117121073E475F064120E8190011A32
:10188000121073E475F096120E817514007515C868
:101890007508007509967B017A00795090013C1219
:1018A000107C9000527412F0A3740CF0A37407F033
:1018B00090005814F0A37404F0A37407F09001FB97
:1018C000F0A374D0F0E49001FAF022758D20438DDE
:1018D00020538D7FE4F5B275B6FF75B7FF75B2A2E0
:1018E00043B20153A8FB538B7F758B10438B08E5E4
:1018F0008B20E7030080F8538B7F758B11438B0897
:10190000E58B20E7030080F890023DE5B5F0A3E504
:10191000B4F0758B01E4F5B21235FCE4F58D90015D
:101920001DE0FEA3E0FF4E7010123633FD90011D46
:10193000E5F0F0A3EDF0022194123633FDC3EF9DE4
:10194000FFEE95F0FE123674D3EF940AEE648094A5
:10195000804024123633FFC390011EE09F90011D8A
:10196000E095F05006E475F001800790011D74FFCA
:10197000F5F0120E08803D90011D7D0312363CECFF
:10198000C0E0EDC0E0EEC0E0EFC0E0123633FFAEE5
:10199000F0E4FCFDD0E0FBD0E0FAD0E0F9D0E0F8D4
:1019A000120EA0E47B04FAF9F8120F4690011DEE26
:1019B000F0A3EFF090020FE0640190011D700A7D2A
:1019C0000512363CE47B64800AE0FEA3E0FFE4FC01
:1019D000FD7B0AFAF9F8120F4690019CEEF0A3EF96
:1019E000F090019EE07002A3E0700D90019CE0FF7A
:1019F000A3E0A3CFF0A3EFF09001A4E07002A3E076
:101A0000700F90011DE0FFA3E09001A4CFF0A3EFC1
:101A1000F02290017D122C0B9404EE9400502212BF
:101A20002BD4EF25E0FFEE33FE74752FF5827401A1
:101A30003EF583ECF0A3EDF090017D122BE802223D
:101A4000BD9001DE7401F09001DEE0FFC3122BAC0B
:101A50005021EF122BB3FCA3E0FDEF25E02473F53A
:101A600082E43401F583ECF0A3EDF09001DEE004B4
:101A7000F080D490013FE060028053122B6BFF1284
:101A80002BD4C3EF9DFFE5F09CFE123674C3EF9498
:101A900028EE648094805036900108122B6EFFC3AC
:101AA000900101E09FFF900100E095F0FE12367476
:101AB000C3EF9414EE648094805005900108800375
:101AC000900102122B6EFF90017BE5F0800B9001DC
:101AD00000E0FFA3E090017BCFF0A3EFF09001DAEC
:101AE00012103600000000E49001DEF09001DEE00C
:101AF000FFD390017EE09F90017DE094004025900F
:101B000001DA12101E9001DEE0122BB3FEA3E0FFFB
:101B1000E4FCFD120EA09001DA12102A9001DEE022
:101B200004F080C89001DA121012ECC0E0EDC0E0C1
:101B3000EEC0E0EFC0E090017D122BEFD0E0FFD0CF
:101B4000E0FED0E0FDD0E0FC120F469001DA12106A
:101B50002A9001DA0210129001DA7402F0A374BC28
:101B6000F0D39001BBE094009001BAE094004011E2
:101B7000122B6BFF900108121073E5F08FF0120E1C
:101B8000819001FBE07002A3E0600B9001DAE4F0C9
:101B9000A37464F0800B90001AE064117003742049
:101BA000F090013FE0600F7E007F0A7D007B017AAC
:101BB0000179400210B290014012101EE8C0E0E925
:101BC000C0E0EAC0E0EBC0E0122B6BFFAEF0E4FC3B
:101BD000FDD0E0FBD0E0FAD0E0F9D0E0F8120EA0A2
:101BE00090014012102A900144122BE89001DA1261
:101BF0002C0B900149E09F900148E09E5003022485
:101C00007B900140121012ECC0E0EDC0E0EEC0E0AD
:101C1000EFC0E0900144122BEFD0E0FFD0E0FED007
:101C2000E0FDD0E0FC120F4690014012102A900116
:101C300008122B6E2432FFE435F0FEE4FCFD900127
:101C40004012101ED3120FEE402E9001FBE07002E6
:101C5000A3E07024200421900146122BE9D39001C7
:101C600047E09405900146E094004018122B59E497
:101C7000900146F0A3F0800C122B59E4900146F03D
:101C8000A3F0C20490014012103600000000E4905E
:101C90000144F0A3F0900148F0A3F0229001E1EF9D
:101CA000F0902E22E0FF9001E5E4F0A3EFF0758ABA
:101CB00050902E227401F01232D97404F0A3E4F093
:101CC0009001E2F09001E2E0FFC3940D74809480F3
:101CD0004003022590EFF87E02E4088006CEA2E7DA
:101CE00013CE13D8F8FF9001E3EEF0A3EFF04E709F
:101CF000079001E3F0A304F0902E207401F0902EE1
:101D000020E030E2F99001E1E0FF902E001232E095
:101D1000E0FCA3E0D394FEEC94074040123301E0D2
:101D2000FEA3E0FF9001E3E0FCA3E0FDEF2DFFEE5A
:101D30003CFEC3EF94FFEE94079001E1E075F002E2
:101D4000902E10500B121067EC8DF0120E08805080
:101D50001210677407F0A374FFF080449001E1E073
:101D6000FF1232DDE0FCA3E0FD9001E3E0FAA3E026
:101D7000FBD3ED9BEC9A4021123301C083C082C398
:101D8000A3E09BFF0582D5820215831582E09AD0DD
:101D900082D083F0A3EFF080071232D9E4F0A3F0F1
:101DA000902E20E4F0F58D9001E2E004F00224A4EE
:101DB0009001E5A3E0902E22F0758A30227FC87E44
:101DC000007D967C00122B9B400302268E3007205C
:101DD0009001B8E07002A3E06008751413751588CF
:101DE00080067514077515D0750806750940804979
:101DF00090020FE0F964017006FE7FC8FC7D9690AA
:101E000001D4E0FAA3E0FB2FF515EA3EF514CEEC81
:101E1000CEEDFFEB2FF509EA3EF508E964017019F4
:101E2000A3E0FEA3E0FF2515F515EE3514F514EF3C
:101E30002509F509EE3508F508900105122B6EFF0E
:101E4000AEF0C39515EE9514500F90013FE0601A67
:101E5000C3EF9509EE95084011900203E07002A3CC
:101E6000E0702990013F04F080229000F1E06420AE
:101E70009002037005F0A3F080077401F0A374F4DE
:101E8000F0E490013FF0900201122BFA90013FE044
:101E9000FF6016900024E064109000367005741006
:101EA000F080037420F0122BDD90004BEFF022E461
:101EB000F526F525F524F523F526F525F524F52356
:101EC000F522122BA9502AE52225E0240AF8E6FE85
:101ED00008E6FFE4FCFDE5262FFFE5253EFEED3597
:101EE00024FDEC35238F268E258D24F523052280B5
:101EF000D1E47B04FAF9F8AF26AE25AD24AC231269
:101F00000F46900181EEF0A3EFF0E47526A8752549
:101F100061F524F523F522122BA950559001811269
:101F20002B7DC3122C04123674D3EF940AEE648016
:101F300094804012900181E0FEA3E0FF900159E0FF
:101F4000FCA3E0FD8007900159122B7DC3122C04E5
:101F50003395E0FDFCE5262FFFE5253EFEE5243D1B
:101F6000FDE5233C8F268E258D24F52305220226B0
:101F7000F7E47F607EEAFDFCAB26AA25A924A8230E
:101F8000D3120FEE400BE47526607525EAF524F5B3
:101F900023AE25AF2622CBEFCBEEFAC3E52E9BFF77
:101FA000E52D9AFEE52C9400FDE52B94008F2E8EF6
:101FB0002D8D2CF52B2290020FE025E0248DF5824B
:101FC000E43436F583E5822FF582E43583F583E446
:101FD0009322E52225E024BCF582E43401F5832236
:101FE00012101E900165E0FEA3E0229001DFE0FFE9
:101FF000A3E0CF90015FF0A3EFF022F583E49375A7
:10200000F002902E00121067E0FFA3E02290020F72
:10201000E0243FF582E43402F583E022F583E49383
:102020002420F582E4342EF58322CFF0A3EFF09044
:102030002E20E4F0758A30221235DF758A50902EFA
:10204000207401F0229001E10210127F047E007DD5
:10205000007B012212365790015FE0FEA3E0FF22D1
:10206000E0FCA3E0FDECFEEDFF22120EA09001E1EA
:1020700002102A9001EA1210129001E5E0FB75F0BF
:1020800013A42415F582E43402F58312102AEB75AB
:10209000F013A42420F582E43402F5831210129088
:1020A00001EA12101E120EBB9001E5E0FB75F01361
:1020B000A42411F582E43402F58312102AEB75F0A2
:1020C00013A42419F582E43402F5832275F0021278
:1020D0001067E493FE740193FFED75F013A4241AC6
:1020E000F582E43402F583E0FCA3E0D39FEC9E226A
:1020F0009001E5E0FB75F013A42415F582E43402A9
:10210000F58322EB75F013A4241CF582E43402F568
:102110008322EB75F013A42411F582E43402F583D5
:10212000229001F212102A9001EA02101212102AD3
:102130009001F2021012EB75F013A42420F582E452
:102140003402F58322C0E0C083C082C0D075D018AD
:10215000D2AFE5DB30E422D205C202E5DB30E11488
:10216000123666E0F5DFEF64077065D28A900007EB
:10217000F00229D3C2010229D6E5DB30E52C90001C
:10218000F0E064AA7017758A10F5DAC2AFF5B2F5FF
:10219000A8F5A9F58B758E01758DC080FED2003033
:1021A0000204C2028050C205804CC202E5DB30E16D
:1021B00021E5DB30E040123666E0F5DFEF24F96020
:1021C0000824EE700BD2068007D28A900007E4F054
:1021D000802120010A7816A6DFD201D202801712D0
:1021E0003666E5DFF0EF642470099001FD04F0A38A
:1021F00074F4F078160675DBFFD0D0D082D083D08F
:10220000E0329001DF1210129001DCE0C454F0249F
:102210002AF582E43402F58322EBC454F02428F535
:1022200082E43402F583E4F0A3F09001DCE0FFC423
:1022300054F0242CF582E43402F583E4F0A3F0EFAB
:10224000C454F02431F582E43402F583229001DC99
:10225000E0FBC454F02424F582E43402F58322E048
:10226000FDA3E09001DDCDF0A3EDF0EFC454F02428
:1022700030F582E43402F583229001DCE0C454F0AE
:10228000242EF582E43402F58322C454F02432F57E
:1022900082E43402F583229001DDE0FEA3E0FF2218
:1022A000C454F02428F582E43402F58322E0FEA32E
:1022B000E0FFD39400EE9400229001DF02101EE4B0
:1022C0009001DAF0A3F090014C7407F0A304F090B1
:1022D000014A14F0A304F012343F7E007F047D0015
:1022E0007B017A0179591210B27F011234C2902E0B
:1022F00014E0FEA3E0FF1232D290013C121073EE04
:102300008FF0120E81E4FF1234C21232E69001DA2D
:10231000CDF0A3EDF09001DAE0FCA3E0FDC394055D
:10232000EC94004009D3ED94F0EC94074017EF646F
:10233000014E700590014C8004E490014AF0A3F036
:10234000E4FF1234C2902E23E4F01232E69001DA58
:10235000CDF0A3EDF090001D7410F0EF64014E90ED
:1023600001DA70081232CD12330B80061232CD1210
:102370003315E03EFE1232F5229001401210129009
:102380000108121073EE8FF0020E819001021210FC
:1023900073020E1E9001DAE0FEA3E0FF22E5222583
:1023A000E0240AF8E6FE08E6FFE0FCA3E0FD229048
:1023B0000105121073E4F5F0020E81D39001FCE0E8
:1023C00094009001FBE0940022C3E5229404748001
:1023D00094802225E02475F582E43401F583E0221F
:1023E000EE9001DAF0A3EFF022121073746175F031
:1023F000A8020E81900100E0FCA3E0FD229001FD07
:102400007403F0A37420F022E475F001020E08E0DA
:10241000FEA3E0FBEEFAE4F9F822F0A3F090003618
:102420007410F022EF9DFFEE9CFE22E0FEA3E0FF81
:10243000C3221231361235BF7E007F2C7D007B0116
:102440007A0179841210B212082EE490017DF0A373
:10245000F090016BF0A3F0900169F0A3F090016D92
:10246000F0A3F07F04122ED2900100E0FEA3E0FF63
:10247000A3122B62900100E0FEA3E0FF122B5F127B
:102480002B8F90010B122BC9900111122BC99001B7
:102490000E122B92E490013FF0FE7F0AFD7B017A41
:1024A0000179401210B2E4900209F0A3F090020703
:1024B000122BFAE490004BF0122BDD90020DE0702D
:1024C0000FC39001FCE094F49001FBE09401500AEA
:1024D0009001FB7401F0A374F4F022787FE4F6D845
:1024E000FD75812E022D05020000022E4AE493A301
:1024F000F8E493A34003F68001F208DFF48029E4B6
:1025000093A3F85407240CC8C333C4540F4420C801
:10251000834004F456800146F6DFE4800B01020498
:10252000081020408090356DE47E019360BCA3FFCD
:10253000543F30E509541FFEE493A360010ECF54CD
:10254000C025E060A840B8E493A3FAE493A3F8E4BC
:1025500093A3C8C582C8CAC583CAF0A3C8C582C828
:10256000CAC583CADFE9DEE780BEE49001DEF0A3DE
:10257000F0200603022DD620077CC20690020FE051
:10258000902E12E0FFA3E09001DECFF0A3EFF090D9
:1025900001DEE0FFA3E09001DCCFF0A3EFF0E4FF69
:1025A0001234C21232E69001DECDF0A3EDF0EF64FA
:1025B000014E9001DE70081232CD12330B800612EC
:1025C00032CD123315E03E9001DAF0A3EFF0900126
:1025D000DAE0FEA3E0FF1232F590020FE09001DC9A
:1025E000E0FFA3E0902E12CFF0A3EFF09001FD7476
:1025F00003F0A37420F0227E007D007B010210B264
:102600000402AB4374AA7583F5758255A57455759C
:1026100083FA7582AAA574A57583F5758255A522DE
:102620000203020AB0B00BB6B60CFFFF09020208A3
:10263000FFFF0D77770E04041307071410101080A6
:102640008015000016000001921200000710020120
:10265000010F040400000401010000111206000033
:10266000120C040000030204020453A87F1236185F
:10267000121F5D12348212080E43A880E4F58D907B
:1026800000F17420F0122F529001FAE0146015143A
:10269000601714603814604A240470E0122A9F12F4
:1026A000080380D8122C12803112359C900020E053
:1026B000FF64206008EF64216003122FD090002592
:1026C000E0641070B79001FA7404F080AF12080A49
:1026D0009001FD7403F0A37420F09001FA7402F0ED
:1026E000809A1233B3900025E06410608F120803C3
:1026F000808A9001DAEFF0E4A3F09001DAE0FFA322
:10270000E0C39F502E12113312364690016DEEF049
:10271000A3EFF08E12F513C8740AC87400FCE4FD30
:10272000FB7A00790CFE7F08120D9A9001DBE00421
:10273000F080C712268F900100EEF0A3EFF0900119
:102740006B122C0B900133E09FFF900132E09EFE54
:102750001236747C007D05120DD2900130ECF0A38E
:10276000EDF090016BE0FFA3E0900132CFF0A3EF1A
:10277000F022900020E0642070037421F090013674
:10278000121073120E1E641045F0700312336A901B
:102790000001E064AA700312326C12331F20030898
:1027A00090001AE06410700B90001A7411F0C203CC
:1027B0001208039000FBE06006E4F09001FAF0904C
:1027C0000171E07004A3E064017015900171F0A341
:1027D000F09001BA7407F0A374D0F0E49001FAF01D
:1027E00030000CC2009001FD7401F0A374F4F022DB
:1027F000308A789001FBE07002A3E0706E90017166
:10280000E07002A3E07064F5B2758D20438D2075F1
:102810008D9043A808D2AF758B4090012CE0FEA3A9
:10282000E0FF4E6005758E148003758E3F20002FEB
:1028300020052CE5DB54047026758AA4200520E5CC
:10284000DB5404701AF58675870300000075860155
:10285000EF4E60047F2880027F7F7E00121ADE75B3
:102860008B01758A3053A8F71235FC22E4FEEEC3C3
:102870009407748094805038EE75F005A42428F5F0
:1028800082E4342EF583C083C08290020FE0D082B0
:10289000D08375F0021210671227A5FDEE75F005C2
:1028A000A42427F582E4342E1227FCEDF00E80BE1E
:1028B000EF701090020FE0700A90014AE07002A3DE
:1028C000E0601290020FE06401701990014CE0701A
:1028D00002A3E0700F90020FE0902E21700474129A
:1028E000F022E4F022CFF0EFA3F090010512107374
:1028F000020E1EC3FF900189E09F900188E095F0D1
:102900002290011DE0FEA3E0FF2290011DE0FFA345
:10291000E0229001DDE0941E9001DCE09400229022
:1029200001AC7413F0A37488F0A3E4F0A322E4F0E4
:10293000A3F0A3F0A3F022CF9001A4F0A3EFF02224
:10294000FF900188E5F0F0A3EFF0229001A7E09F4F
:102950009001A6E09E227E007F137D007B017A021B
:1029600079111210B2E4FBEBC3940174809480508F
:102970005190020FE0FFEB75F00AA42480F582E489
:102980003436F583E5822FF582E43583F583E493CD
:10299000FFE4FCFDFE1228E312102A1228E31210B5
:1029A00012EF04F87E007401088005C333CE33CEE5
:1029B000D8F9FFEE3395E0FDFC12291612102A0B10
:1029C00080A5229001FFE07004A3E06401701190E3
:1029D0000007E06004D28AE4F0E49001FFF0A3F085
:1029E000900036E0FF9000FFE06F603D900036E021
:1029F000FD9000FFF0900007E0900210F0540FF0FF
:102A0000ED7E0064207005E04420800CEF64104EE1
:102A1000700B900210E04410F0900007F0C28A9012
:102A200001FF7403F0A374E8F02274FFF5F0020EC6
:102A300008EF2401FDE43EFCD3E09D22E475F001A3
:102A4000020E08C3900149E094BC900148E0940252
:102A500022C3900193E09464900192E0940022C319
:102A6000900233E094B8900232E0940B22C39002BB
:102A70002DE094F490022CE0940122EE8FF0020EEF
:102A800008EF2401FDE43EFCD3E09D229001DA74BE
:102A900008F0A3E4F0A3743FF0A374DFF0E4FDFCBE
:102AA000F9758A10538AEF009001DAE0FEA3E02D59
:102AB000F582EE3CF583E493FF69F90DBD00010C4E
:102AC000BC37E5BDDFE29001DCE0FEA3E0F5828EDD
:102AD00083E493FFE96F70089000017404F08005AF
:102AE000E4900001F0758A30538AEF0022E0FEA3E3
:102AF000E0FF7C007D0A020DC09001E1E0902E1005
:102B000075F00202106790020FE0FF7E00902E1217
:102B1000E0FDA3E022900139121073EE8FF0020E57
:102B20008175F002EF902E1002106790014DE02F9A
:102B3000FF90014C2290014BE02FFF90014A229020
:102B40000013E0FF90020EE06F600CEFF090020BBC
:102B50007402F0A37458F090020BE07004A3E064D8
:102B600001702690020EE0FF7E0064107002D20712
:102B7000EF64204E7002C207900025E064106002EE
:102B8000D203E490020BF0A3F022E49001DAF0A368
:102B9000F0758A10538AEF00122DE475EA81E4F58E
:102BA000F6F5F475F308F5F275EB0700E5EC30E7A0
:102BB000FBAFF3EFFEADF2EDFF900136121073EEB6
:102BC0008FF0120E81E4F5EC75EB30758A30538A84
:102BD000EF0022900025E06410703FF5B2758D2063
:102BE000438D20538D7F53A8F7F58BE5DB5404709C
:102BF00013200510F58AF586758703000000758699
:102C000001758A30758B0190020D7401F09001FD01
:102C10007403F0A37420F01235FC22C2D5E830E72B
:102C20000FB2D5E4C39BFBE49AFAE499F9E498F86F
:102C3000EC30E717B2D5123431120F46E4C39BFBD8
:102C4000E49AFAE499F9E498F88003120F4630D533
:102C50000DE4C39FFFE49EFEE49DFDE49CFC22E4A2
:102C6000FFEFC3940D74809480502E90020FE0FE0D
:102C7000EF75F003A42401F582E4342EF583E58298
:102C80002E1227A8FEEF75F003A42400F582E43489
:102C90002E1227FCEEF00F80C8902F56E0902E2BBE
:102CA000F022E4F5DA75DA4043DA2030881375D77C
:102CB0004075D64090020F04F09000157440F080EB
:102CC0001175D74275D642E490020FF0900015744A
:102CD00041F05392FE75DA5843A80275B80275F8B0
:102CE00002229001E0EFF01235DF9001E0E0FF12E8
:102CF000304C9001E0E0FF90020FE025E0248DF5DC
:102D000082E43436F583E5822FF582E43583F5835A
:102D1000E493FF12247C9001E0E0FF02365790011B
:102D2000DCEFF07E007F10EEC0E0EFC0E07D00E061
:102D300075F010A42424F9740235F0FA7B01D0E078
:102D4000FFD0E0FE1210B29001DCE0122A6A740B90
:102D5000F0A374B8F02290015AE02418FF900159B2
:102D6000E034FCFEC390016CE09F90016BE09E504C
:102D700014900171E07002A3E0701190017104F0F1
:102D8000A374F4F022E4900171F0A3F022C1054293
:102D9000023F0202C1064102100041020F00C107BA
:102DA00041020E00C101011600C100C102C104C1EF
:102DB000034100FF1043023A01023D0012082E7F3A
:102DC00001122ED21221F2900102122B621215155D
:102DD00012259D1223371231A3123536022D4A12C5
:102DE000282B7A01795D1210B212282B7A017965AD
:102DF0001210B27F1212282D7A0179BC0210B2EFA4
:102E0000F87401088002C333D8FC42AB12279690B5
:102E1000368A93F4529152935391DF22E5B25401D2
:102E20006006E5A85410700F75B29275B67CE4F593
:102E3000B743B20143A81022758A30538AEF7586D2
:102E400001758F05E4F5AB75AC0F75913E75920178
:102E5000D28A2290023A121073020E1EE0FEA3E004
:102E6000FF7C0002108590016BE0FEA3E0FF900163
:102E700069EEF0A3EFF02212279690368A934291E2
:102E80004288439120227816E6FF2400F582E4343C
:102E900000F58322EE30E707C3E49FFFE49EFE22A5
:102EA00003030019001E0014001901022001020191
:102EB00002009600960701F40000000000000000E8
:102EC0000000000000000000000000000000000002
:102ED00000000000000000000000000000000000F2
:102EE00000000000000000000000000000000000E2
:102EF00000000000000000000000000000000000D2
:1037F0000000000000000000000000000000004A7F
:1038000000000000000000000000000000000000B8
:1038100000000000000000000000000000000000A8
:00000001FF
