:100000000043000000070000C38A00000000000059
:1000100000000000000000000000000000000000E0
:10002000022CD09001F87401F0222202293A023603
:10003000040000020816D2AF32000002081ED2AF40
:10004000320000021C8AD2AF320000020826E4907F
:1000500001D8F0A3F01221F390018A12101E123081
:10006000E9E4FCFD120EA090018A12102A90018E84
:10007000E475F001120E08C3900191E094649001C0
:1000800090E094005003020AD490018A121012ECFE
:10009000C0E0EDC0E0EEC0E0EFC0E090018EE0FE19
:1000A000A3E0FBEEFAE4F9F8D0E0FFD0E0FED0E008
:1000B000FDD0E0FC120F4690018A12102A90018AAE
:1000C000121012900188EEF0A3EFF0A31210360088
:1000D00000000090018E1231169001F9E07002A329
:1000E000E06003020AD4900192E07002A3E0600392
:1000F000020AD490013FE0700302096E900184E08F
:100100007002A3E0701D900188E0FFA3E0900184DD
:100110001230CD1231289001947403F0A374E8F0EA
:1001200002097E900188E0FEA3E0FFC3900185E014
:100130009FFF900184E09EFE12367C9001AE12106B
:1001400073EE8FF0120E81900182E0701D9001AE6F
:100150001230D5C39406E5F0940050081230D21244
:10016000312880069001827401F0900188E0FEA39E
:10017000E0FFD3900185E09F900184E09E4007E47A
:10018000900183F080189001837401F08010900139
:1001900084123116900182F090019612311790016D
:1001A00082E07003020AD4D3900187E094009001AA
:1001B00086E094005003020AD41230D2FF900186E8
:1001C000E0FCA3E0FDC3EF9DFFE5F09CFE12367C52
:1001D0009001DAEEF0A3EFF0A3E4F074C81230D08F
:1001E000D39494E5F09411400A9001DC7403F0A3D9
:1001F0007420F09001DAE0FFA3E09001B21230CD5C
:10020000D31230DC400CD39001DBE0946412310057
:1002100050131230D21230DB50369001DBE094C81C
:10022000123100402BE4900182F0900184F01230F2
:10023000D01230DB9001925008E4F0A374C8F08033
:10024000077401F0A3742CF0E4900183F0020AD447
:100250001230D2FFD31230DD404AD31230FA40447C
:1002600090010812107374FF75F0F9120E49900195
:1002700098E475F007120E08C3900197E094E89097
:100280000196E09403501DA3E09407900196E0943A
:1002900000400A74FF75F0F9120E088007E490011F
:1002A00096F0A3F01230D21230DB50481230FA40F0
:1002B00043900108121073E475F007120E49900183
:1002C00096E475F007120E08C3900199E0945890D7
:1002D0000198E09402501DA3E09407900198E094E7
:1002E00000400A74FF75F0F9120E088007E49001CF
:1002F00098F0A3F090013FE060179001CEE070020B
:10030000A3E0700D1230F29001CECFF0A3EFF08099
:100310001F90013FE070191230D2C39496E5F0941B
:1003200000500DE49001CEF0A3F09001D2F0A3F0C4
:100330009001CEE07002A3E07003020BD81230E906
:10034000C39001CFE09FFF9001CEE09EFE12367C6D
:100350009001D8EEF0A3EFF01230E9D39001CFE096
:100360009F9001CEE09E400D9001D8E0FFA3E09069
:1003700001D0CF801A9001D8E0FEA3E0FFD394C84B
:10038000EE9400400EEE13FEEF13FF9001D0EEF05E
:10039000A3EFF0D39001D1E0940A9001D0E0940053
:1003A00040561230D2D39488E5F094134023900144
:1003B000D3E094DC9001D2E09405503C9001D1E070
:1003C00025E0FE9001D0E0339001D2F0A3CEF08082
:1003D000271230D2D394E8E5F09403401B9001D368
:1003E000E094F49001D2E09401500D9001D0E0FF30
:1003F000A3E0A3CFF0A3EFF090020DE0640160034F
:10040000020CC990013FE06003020CB69001A4E029
:100410007002A3E0700B1230F29001A4CFF0A3EFB2
:10042000F01230E9C39001A3E09F9001A2E09E503A
:1004300004EE1231209001A8E07002A3E0705A127D
:1004400030E9D312313340129001A5E09FFF9001B3
:10045000A4E09E9001A6F0A3EFF0D39001A7E09452
:10046000049001A6E0940040081231077464F08003
:1004700015D39001A7E094069001A6E094004006F1
:1004800012310774C8F09001A87403F0A374E8F067
:100490001230F29001A4CF800D1230E9C312313333
:1004A00050089001A4EEF0A3EFF09001AAE07002D2
:1004B000A3E070121230F212311FE49001ACF0A3ED
:1004C000F09001D480209001ACE0FFA3E09001D433
:1004D000CFF0A3EFF0221230F212311FE49001D4DA
:1004E000F0A3F09001ACF0A3F022E709F608DFFAE0
:1004F0008046E709F208DFFA803E88828C83E709AC
:10050000F0A3DFFA8032E309F608DFFA8078E30926
:10051000F208DFFA807088828C83E309F0A3DFFAA7
:10052000806489828A83E0A3F608DFFA8058898292
:100530008A83E0A3F208DFFA804C80D280FA80C67A
:1005400080D4806980F28033801080A680EA809A0F
:1005500080A880DA80E280CA803389828A83ECFABC
:10056000E493A3C8C582C8CCC583CCF0A3C8C58218
:10057000C8CCC583CCDFE9DEE7800D89828A83E4BD
:1005800093A3F608DFF9ECFAA9F0EDFB2289828A41
:1005900083ECFAE0A3C8C582C8CCC583CCF0A3C85D
:1005A000C582C8CCC583CCDFEADEE880DB89828ADD
:1005B00083E493A3F208DFF980CC88F0EF60010EAA
:1005C0004E60C388F0ED2402B4040050B9F582EB0C
:1005D0002402B4040050AF2323458223900D1A73E4
:1005E000EF8DF0A4A8F0CF8CF0A428CE8DF0A42E2F
:1005F000FE22C2D5EC30E709B2D5E4C39DFDE49CF0
:10060000FCEE30E715B2D5E4C39FFFE49EFE121066
:10061000DEC3E49DFDE49CFC80031210DE30D507B0
:10062000C3E49FFFE49EFE22C5F0F8A3E028F0C5D6
:10063000F0F8E582158270021583E038F022BB01E4
:100640000A89828A83E0F5F0A3E022500687F00948
:10065000E71922BBFE07E3F5F009E3192289828A34
:1006600083E493F5F074019322BB010789828A83A6
:10067000020E08500B09C5F027F7C5F01937F7220D
:10068000BBFE0D09F8E325F0F3C5F019E338F322BA
:10069000F889828A8374019325F0C5F0F8E49338D1
:1006A00022BB010A89828A83F0E5F0A3F02250067A
:1006B000F709A7F01922BBFE06F3E5F009F31922AA
:1006C000EF2BFFEE3AFEED39FDEC38FC22C3EF9B39
:1006D000FFEE9AFEED99FDEC98FC22E88FF0A4CC99
:1006E0008BF0A42CFCE98EF0A42CFC8AF0EDA42C59
:1006F000FCEA8EF0A4CDA8F08BF0A42DCC3825F028
:10070000FDE98FF0A42CCD35F0FCEB8EF0A4FEA912
:10071000F0EB8FF0A4CFC5F02ECD39FEE43CFCEA1F
:10072000A42DCE35F0FDE43CFC2275F00875820066
:10073000EF2FFFEE33FECD33CDCC33CCC58233C5A6
:10074000829BED9AEC99E58298400CF582EE9BFE37
:10075000ED9AFDEC99FC0FD5F0D6E4CEFBE4CDFA92
:10076000E4CCF9A88222B800C1B90059BA002DEC36
:100770008BF084CFCECDFCE5F0CBF97818EF2FFFCE
:10078000EE33FEED33FDEC33FCEB33FB10D7039976
:100790004004EB99FB0FD8E5E4F9FA227818EF2F23
:1007A000FFEE33FEED33FDEC33FCC933C910D70542
:1007B0009BE99A4007EC9BFCE99AF90FD8E0E4C961
:1007C000FAE4CCFB2275F010EF2FFFEE33FEED3391
:1007D000FDCC33CCC833C810D7079BEC9AE89940BE
:1007E0000AED9BFDEC9AFCE899F80FD5F0DAE4CD20
:1007F000FBE4CCFAE4C8F922EB9FF5F0EA9E42F064
:10080000E99D42F0EC6480C864809845F022EB9F3B
:10081000F5F0EA9E42F0E99D42F0E89C45F022E8BE
:10082000600FECC313FCED13FDEE13FEEF13FFD8C6
:10083000F122E0FCA3E0FDA3E0FEA3E0FF22E0F84C
:10084000A3E0F9A3E0FAA3E0FB22ECF0A3EDF0A310
:10085000EEF0A3EFF022A8828583F0D083D082123D
:10086000104D12104D12104D12104DE473E493A36D
:10087000C583C5F0C583C8C582C8F0A3C583C5F0CC
:10088000C583C8C582C822A42582F582E5F03583D8
:10089000F58322E0FBA3E0FAA3E0F922EBF0A3EA60
:1008A000F0A3E9F022EC8EF0A4CCC5F0CCCDF8EFAB
:1008B000A4CEC5F02DFDE43CFCE8A42EC8C5F03D57
:1008C000FDE43CFCEFA4FFE5F028FEE43DFDE43C44
:1008D000FC22EF4E6012EF60010EEDBB010B89822E
:1008E0008A83F0A3DFFCDEFA2289F05007F709DFE4
:1008F000FCA9F022BBFEFCF309DFFCA9F022BC003E
:100900000BBE0029EF8DF084FFADF022E4CCF8752A
:10091000F008EF2FFFEE33FEEC33FCEE9DEC984039
:1009200005FCEE9DFE0FD5F0E9E4CEFD22EDF8F5D5
:10093000F0EE8420D21CFEADF075F008EF2FFFED35
:1009400033FD4007985006D5F0F222C398FD0FD52D
:10095000F0EA227F011230591226F3902E20E03067
:10096000E2F990020DE025E0249FF582E43436128E
:1009700027249001DD1226DC7F011227624E7008C9
:100980009001DD12276E801E7C007D03120DC09049
:1009900001DEE02FFF9001DDE03EFE7802EFCEC3E6
:1009A00013CE13D8F9FFEE12271C4E700312271432
:1009B000122714900159E07002A3E0700F90015DBE
:1009C000E0FFA3E0900159CFF0A3EFF09001DF1218
:1009D000103600002710E4FF123059E49001DAF0DD
:1009E0009001DAE0FF7E00C394027480948040039B
:1009F0000213BCEF2401FFEE33FE122736FDD3EFC6
:100A00009D7480F86E9840030213B3E4FF1226F33E
:100A1000902E20E030E2F990020DE025E0249EF5D2
:100A200082E434361227249001DB1226DCFF1227E1
:100A300062C390015AE09FFF900159E09E9001DB54
:100A40008FF0120E089001DBE0FAA3E0FB90015F4B
:100A5000EAF0A3EBF074FFF509F50AF50BF50CE4E9
:100A6000F50DF50EF50FF510F514F513F512F5115A
:100A70009001CAEAF0A3EBF0E4F508C3E508940896
:100A80007480948040030212FDE50825E024BCF543
:100A900082E43401F583E0FEA3E0FF4E60028008AB
:100AA0009001DBE0FEA3E0FF1226CEEEF0A3EFF014
:100AB0001226CEE0FEA3E0FFD3950EEE950D400C7E
:100AC000850D0F850E108E0D8F0E800DD3EF9510B6
:100AD000EE950F40048E0F8F10C3EF950AEE950927
:100AE000500C85090B850A0C8E098F0A800DC3EF07
:100AF000950CEE950B50048E0B8F0C1226CEE0FE5B
:100B0000A3E0FFE4FCFDE5142FFFE5133EFEED3509
:100B100012FDEC35111226A9050802125BAE0DAFCD
:100B20000EEFFB122695AE0FAF10122692AE09AF54
:100B30000A122692AE0BAF0C122692FC7802120F0C
:100B4000FF9001CCEEF0A3EFF090015BE0FEA3E09C
:100B5000FF4E70089001CC12276E801E7C007D0332
:100B6000120DC09001CDE02FFF9001CCE03EFE7849
:100B700002EFCEC313CE13D8F9FF90015BEEF0FA6B
:100B8000A3EFF0FB12270CFFE4FCFD9001E4121030
:100B90002AEBFFEAFEE4FCFD9001E812102AE4FFD4
:100BA000121DFD900163EEF0A3EFF090020DE064E2
:100BB000019001DF700B1227092400FFEE34F08052
:100BC000091227092400FFEE34E8FE3395E0FDFC0E
:100BD0001227789001DAE004F00211C0902E23E48D
:100BE000F09001DF12101EE8C0E0E9C0E0EAC0E0CA
:100BF000EBC0E0122736FFFBE4FAF9F81227531294
:100C00003403D0E0FBD0E0FAD0E0F9D0E0F81227CE
:100C100078E47F507EC3FDFC9001DF12101ED312DA
:100C20000FD8400A9001DF1210360000C35012277F
:100C300053EC33500A9001DF121036000000009090
:100C40000169E0FAA3E0FB4A700512275380227E77
:100C5000007F02EBFDEAFC121085ECF8EDF9EEFAEC
:100C6000EFFB122753120EA0E47B03FAF9F8120FE0
:100C700046900169EEF0A3EFF0900157E07002A3F7
:100C8000E0700F900169E0FFA3E0900157CFF0A35F
:100C9000EFF0900126122709FFE4FCFD120EA09050
:100CA000012612102A90012AE475F001120E089014
:100CB000012AE0FEA3E0FFD3940AEE94004029EF5E
:100CC000FBEEFAE4F9F8900126121012120F46908A
:100CD0000124EEF0A3EFF0E490012AF0A3F09001DC
:100CE000261210360000000090012CE07002A3E0F4
:100CF000703A900124E0FEA3E0FFC3900164E09FFE
:100D0000FF900163E09EFE12367C900122EEF0A37C
:100D1000EFF0D39406EE9400401290012C7403F08F
:100D2000A374E8F0A3E475F001120E08900169E0E5
:100D3000FEA3E0FF22122BB0400302180690010828
:100D4000122B83FDE5F0FC122B80FFAEF0D39DEE5D
:100D50009C402E122C19D3EF9430EE9475400C90D9
:100D600001D87475F0A37430F08010120E1EC39D6C
:100D7000FEE5F09C9001D8F0A3CEF0E49001B480A1
:100D800060120E1EFFAEF0C3ED9FFBEC9EFAD3EB9C
:100D90009410EA9427400C9001D87427F0A37410A3
:100DA000F08009C3ED9FFFEC9E122BCC9001D8E0A0
:100DB000FFA3E09001B4CFF0A3EFF0300718D3E029
:100DC000942C9001B4E0940140139001B67427F084
:100DD000A37410F08007E49001B6F0A3F0E4900152
:100DE000D8F0A3F090013FE0604A122B89D3940021
:100DF000EE648094804014D3EF9523EE9522400B4F
:100E00009001FFE4F0A37464F0801BD3900200E033
:100E100094009001FFE09400400C900105122B8398
:100E2000FFE5F0122BCCD204900205740FF0A374EE
:100E3000A0F0800F9002037403F0A374E8F0E4FFC5
:100E4000123506D39001D9E094009001D8E0648077
:100E5000948050030217DBE0FEA3E0FF900105122F
:100E60002B77122B89EE3395E0FDFCE47BB87A8872
:100E7000F9F8C3120FD8500A9001D87488F0A374FF
:100E8000B8F0D3900202E09400900201E094005088
:100E9000089000F1E06420702AE523240AFFE4357D
:100EA00022FE9001D8E0FCA3E0FDC39FEC9E50130E
:100EB000ED9400EC648094804038122B897C007D96
:100EC0000A802930072C90013FE07011122B89C352
:100ED000952DEE952C501B7C027DBC800F122B892A
:100EE000C39523EE9522500A7C027DBC120DD212CE
:100EF0002BCB90013FE07003021760900203E0707B
:100F000002A3E070149001D8E0FEA3E0FDEEFCE443
:100F1000FF121807122BCB8035122B89C390013595
:100F2000E09FFF900134E09EFE12367CD3EF9428C0
:100F3000EE648094804017D3900204E094C890023D
:100F400003E09400400874FF75F09C120E089001B5
:100F500034E0FEA3E0FF7C007D0F121085ECF8ED7D
:100F6000F9EEFAEFFB122B89EE3395E0FDFC120E41
:100F7000A0E47B10FAF9F8120F46900134EE800BD2
:100F80009001D8E0FFA3E0900134CFF0A3EFF09000
:100F90000134E0FEA3E0FFD39405EE9400400EEF91
:100FA0009410EE940050069001D8EE801690013017
:100FB000E0FEA3E0FF900135E02FFF900134E03E1A
:100FC0009001D8F0A3EFF0D39001D9E094309001D4
:100FD000D8E0648094F540077475F0A37430F0E5B0
:100FE000DB54047041122B8990010E122B77900173
:100FF000D9E024A8FF9001D8E08022E5DB540470FA
:1010000025122BA4900130E0FEA3E0FF90010E1208
:101010002B7790010E122B8324A8FFE5F03461FE9C
:1010200090010B122B77229001DAEFF0A3ECF0A3E2
:10103000EDF0EF122A72E0FEA3E0C39DFFEE9CFEEE
:1010400012367CD3EF9428EE64809480401C122AE0
:101050004212103600000000122A0EE4F0122A8C10
:10106000122A6EEEF0A3EFF0803B1229FD122AA2A5
:1010700040339001DBE0FCA3E0FDD3EF9DEE9C400C
:101080000B9001DAE0122A35E04401F09001DAE039
:10109000FF122A01E0FAA3E0C39DEA9C5007122A3E
:1010A00034E04402F09001DAE0122A47C083C082A3
:1010B00012101E122A8CE4FCFD120EA0D082D083E6
:1010C00012102A9001DAE0FF122A95E475F001125D
:1010D0000E08EF75F007A424A7F582E43436F583F3
:1010E000E493FE740193FF9001DAE0FDC454F02410
:1010F0002AF582E43402F583E0FAA3E0C39FEA9E76
:101100005003021A73ED122A95E0FEA3E0FFFBEEF6
:10111000FAE4F9F89001DAE0122A47121012120FDD
:10112000469001DD12102A1229F7E0FCA3E0C39FCC
:10113000FFEC9EFE12367C9001E1EEF0A3EFF09002
:1011400001DAE0FD75F007A424A2F582E43436F557
:1011500083C37401939FE4939E401FED122A01E024
:10116000FEA3E04E60149001DAE0FB122A7FE0FE5D
:10117000A3E0C394B8EE940B501E9001DAE0FF1286
:101180002A01E0FCA3E04C7008EF122A7FE4F0A3F0
:10119000F01229F7EE021A1AEB6003021A209001EE
:1011A000E3F09001E1E0FEA3E0FFD39450EE940061
:1011B0004006A37408F080329001DAE0122A35E08C
:1011C00064036026D3EF943CEE940040089001E362
:1011D0007404F08015D39001E2E094289001E1E0DE
:1011E000940040069001E37402F01229FDE0FEA392
:1011F000E0FFE4FCFD122AAED3120FEE4011900185
:10120000E3E0FF1229FDE48FF0120E08021A56D314
:101210009001E2E094509001E1E0940040581229DE
:10122000FDC083C082E0FEA3E0FF9001E3E0FDC3C8
:10123000EF9DFFEE9400D082D083F0A3EFF08036D4
:101240001229FDE0FEA3E0FF4E700D122AAEEBFF67
:10125000EAFEE9FDE8FC80167C007D07121085128D
:101260002AAE120EA0E47B08FAF9F8120F461229F2
:10127000FDEEF0A3EFF0122A42121036000000003B
:10128000122A0EE4F09001DD121012122A6EEEF016
:10129000A3EFF01229FD122AA2405F9001DCE09F2B
:1012A000FF9001DBE09EFE12367C9001DAE075F0E3
:1012B00007A424A4F582E43436F583D37401939F04
:1012C000E4939E400F9001DAE0FF122A01122A54A3
:1012D000E4F080269001DAE0FF75F007A424A6F57B
:1012E00082E43436F583E493FE122A60E0C39E5014
:1012F000091229FD122A54E004F0122A8C22D390FC
:1013000001FAE09F9001F9E09E400AA3E09FF0906F
:1013100001F9E09EF09001FE1232199001FDE09C6F
:10132000400CA3E09FF09001FDE09EF08002D28A85
:10133000D39001FCE09F9001FBE09E400AA3E09F58
:10134000F09001FBE09EF012322B5003123263D377
:10135000900200E09F9001FFE09E400AA3E09FF012
:101360009001FFE09EF0D3900202E09F900201E026
:101370009E400AA3E09FF0900201E09EF0D390020D
:1013800008E09F900207E09E400AA3E09FF09002D1
:1013900007E09EF0D3900204E09F900203E09E409D
:1013A0000AA3E09FF0900203E09EF0D3900206E0D3
:1013B0009F900205E09E400AA3E09FF0900205E0A6
:1013C0009EF0D39001B7E09F9001B6E09E400AA343
:1013D000E09FF09001B6E09EF090020A1232199060
:1013E0000209E09C400AA3E09FF0900209E09EF011
:1013F0001232395003123263D3900193E09F90016F
:1014000092E09E400AA3E09FF0900192E09EF0904F
:101410000195123269900194E09C400AA3E09FF08C
:10142000900194E09EF0D39001A9E09F9001A8E084
:101430009E400AA3E09FF09001A8E09EF0D39001A7
:10144000ABE09F9001AAE09E400AA3E09FF09001CC
:10145000AAE09EF090017012326990016FE09C400A
:101460000AA3E09FF090016FE09EF0D39001B9E0F5
:101470009F9001B8E09E400AA3E09FF09001B8E081
:101480009EF012324750031232631232555003124B
:101490003263D390012DE09F90012CE09E400AA37F
:1014A000E09FF090012CE09EF022C0E0C0F0C083ED
:1014B000C082C0D0E8C0E0D2AFD39001FAE094007F
:1014C0009001F9E094004003123212D39001FEE043
:1014D00094019001FDE0940040051232128002D286
:1014E0008AD39001FCE094009001FBE0940040035B
:1014F00012321212322B5003123224D3900200E027
:1015000094009001FFE094004003123212D3900245
:1015100002E09400900201E094004003123212D3E2
:10152000900208E09400900207E094004003123219
:1015300012D3900204E09400900203E09400400370
:10154000123212D3900206E09400900205E094005B
:101550004003123212D39001B7E094009001B6E03C
:1015600094004003123212D390020AE094019002D8
:1015700009E0940040031232121232395003123241
:1015800024D3900193E09400900192E094004003F2
:10159000123212D3900195E09401900194E09400EE
:1015A0004003123212D39001A9E094009001A8E008
:1015B00094004003123212D39001ABE094009001EA
:1015C000AAE094004003123212D3900170E094011B
:1015D00090016FE094004003123212D39001B9E001
:1015E00094009001B8E09400400312321212324786
:1015F00050031232241232555003123224D3900178
:101600002DE0940090012CE094004003123212D09F
:10161000E0F8D0D0D082D083D0F0D0E0329001E397
:10162000EFF01228B3E070279001E3E01228EA12ED
:101630001012E4FBFAF9F8C3120FEE60129001E306
:10164000E0122908121012E4F8C3120FEE705712BC
:10165000291C9001E4121F39EEF0A3EFF0ED1228DF
:10166000B3E06029ED75F00AA4248EF582E43436E7
:10167000F583C083C08290020DE0D082D08312280F
:10168000C1400A9001E3E01228B37405F012286803
:10169000E0D394007480948040061228B2E014F0E5
:1016A0009001E8021F351228E51210129001EC1289
:1016B000102A1229071210129001F012102A90011C
:1016C000E3E01228F9121012EFF9122925E9F812B5
:1016D0000FFFEFFBEEFAEDF9ECF8122925120EAD33
:1016E0009001F412102A9001EC1210129001E812ED
:1016F000101E120EA09001F412101E120EA012293C
:10170000161228E512292212290712292212292B42
:1017100012101E120F461229169001F0121F39EEF8
:10172000F0A3EFF0ED75F00AA4248AF582E43436D4
:10173000F583C083C08290020DE0D082D08312284E
:10174000C1400F1228687405F012291C9001F01294
:10175000102A9001F012101222EFFBEEFA12101272
:10176000C3EF9BFFEE9AFE12367C9001E3E0FD751D
:10177000F013A42418F582E43402F583227FFF7A63
:101780000079001236927FD87A0179001236927E63
:10179000007F147D007B017A0179F81210B2902D40
:1017A000E0E493900001F09000047411F0A374221F
:1017B000F0A37433F0902DE2E493900012F0902D9A
:1017C000E3E493900014F09000FB7401F090003675
:1017D0007410F09000F1F0900024F0A37420F07BDE
:1017E000017A00794090010212107C7A00794490CD
:1017F000010812107C7A00794290010512107C7A5F
:1018000000792E90010B12107C7A00792A90010E3B
:1018100012107C7A00792890011112107C7A0079DC
:101820006090011F12107C7A0079809001AE121036
:101830007C7A00791890013912107C7A00791B901B
:10184000013612107C7A00793290011412107C7AE1
:1018500000792690011712107C7A00793490011AD1
:1018600012107C900114121073E475F0C8120E81EE
:10187000900117121073E475F064120E8190011A32
:10188000121073E475F096120E81752C00752DC838
:101890007522007523967B017A00795090013C12E5
:1018A000107C9000527412F0A3740CF0A37407F033
:1018B00090005814F0A37404F0A37407F09001F999
:1018C000F0A374D0F0E49001F8F02290017B122C88
:1018D000209404EE94005022122BDFEF25E0FFEE5F
:1018E00033FE74732FF58274013EF583ECF0A3EDA3
:1018F000F090017B122BF30221799001DC7401F04E
:101900009001DCE0FFC39404748094805021EF12B6
:101910002BBEFCA3E0FDEF25E02471F582E4340149
:10192000F583ECF0A3EDF09001DCE004F080D190C1
:10193000013FE060028053122B80FF122BDFC3EFC8
:101940009DFFE5F09CFE12367CC3EF9428EE648088
:1019500094805036900108122B83FFC3900101E060
:101960009FFF900100E095F0FE12367CC3EF9414C7
:10197000EE6480948050059001088003900102126B
:101980002B83FF900179E5F0800B900100E0FFA32D
:10199000E0900179CFF0A3EFF09001D8121036005B
:1019A000000000E49001DCF09001DCE0FFD3900146
:1019B0007CE09F90017BE0940040259001D81210BC
:1019C0001E9001DCE0122BBEFEA3E0FFE4FCFD1242
:1019D0000EA09001D812102A9001DCE004F080C81B
:1019E0009001D8121012ECC0E0EDC0E0EEC0E0EFC4
:1019F000C0E090017B122BFAD0E0FFD0E0FED0E0F7
:101A0000FDD0E0FC120F469001D812102A9001D8A8
:101A1000021012758D20438D20538D7FE4F5B27531
:101A2000B6FF75B7FF75B2A243B20153A8FB538B43
:101A30007F758B10438B08E58B20E7030080F853FC
:101A40008B7F758B11438B08E58B20E7030080F8B3
:101A500090023BE5B5F0A3E5B4F0758B01E4F5B277
:101A6000123604E4F58D90011DE0FEA3E0FF4E70F8
:101A70001012363BFD90011DE5F0F0A3EDF00222BF
:101A8000DC12363BFDC3EF9DFFEE95F0FE12367C77
:101A9000D3EF940AEE64809480402412363BFFC357
:101AA00090011EE09F90011DE095F05006E475F056
:101AB00001800790011D74FFF5F0120E08803D9023
:101AC000011D7D03123644ECC0E0EDC0E0EEC0E045
:101AD000EFC0E012363BFFAEF0E4FCFDD0E0FBD0FF
:101AE000E0FAD0E0F9D0E0F8120EA0E47B04FAF9B5
:101AF000F8120F4690011DEEF0A3EFF090020DE0FA
:101B0000640190011D700A7D05123644E47B6480F7
:101B10000AE0FEA3E0FFE4FCFD7B0AFAF9F8120FED
:101B20004690019AEEF0A3EFF090019CE07002A3C2
:101B3000E0700D90019AE0FFA3E0A3CFF0A3EFF0D7
:101B40009001A2E07002A3E0700F90011DE0FFA3DE
:101B5000E09001A2CFF0A3EFF0229001D87402F040
:101B6000A374BCF0D39001B9E094009001B8E09464
:101B7000004011122B80FF900108121073E5F08FC6
:101B8000F0120E819001F9E07002A3E0600B900169
:101B9000D8E4F0A37464F0800B90001AE064117034
:101BA000037420F090013FE0600F7E007F0A7D000B
:101BB0007B017A0179400210B290014012101EE8B8
:101BC000C0E0E9C0E0EAC0E0EBC0E0122B80FFAE6D
:101BD000F0E4FCFDD0E0FBD0E0FAD0E0F9D0E0F892
:101BE000120EA090014012102A900144122BF39083
:101BF00001D8122C20900149E09F900148E09E50AE
:101C00000302247E900140121012ECC0E0EDC0E00F
:101C1000EEC0E0EFC0E0900144122BFAD0E0FFD01C
:101C2000E0FED0E0FDD0E0FC120F46900140121023
:101C30002A900108122B832432FFE435F0FEE4FCE5
:101C4000FD90014012101ED3120FEE402E9001F9AC
:101C5000E07002A3E07024200421900146122BF4CE
:101C6000D3900147E09405900146E094004018129B
:101C70002B6EE4900146F0A3F0800C122B6EE490E2
:101C80000146F0A3F0C2049001401210360000009B
:101C900000E4900144F0A3F0900148F0A3F02290FA
:101CA00001DFEFF0902E22E0FF9001E3E4F0A3EFDC
:101CB000F0758A50902E227401F01232E17404F013
:101CC000A3E4F09001E0F09001E0E0FFC3940D7414
:101CD0008094804003022593EFF87E02E40880069A
:101CE000CEA2E713CE13D8F8FF9001E1EEF0A3EFF8
:101CF000F04E70079001E1F0A304F0902E207401E3
:101D0000F0902E20E030E2F99001DFE0FF902E000D
:101D10001232E8E0FCA3E0D394FEEC9407404012BA
:101D20003309E0FEA3E0FF9001E1E0FCA3E0FDEF5A
:101D30002DFFEE3CFEC3EF94FFEE94079001DFE031
:101D400075F002902E10500B121067EC8DF0120EF1
:101D50000880501210677407F0A374FFF08044905D
:101D600001DFE0FF1232E5E0FCA3E0FD9001E1E0DD
:101D7000FAA3E0FBD3ED9BEC9A4021123309C08318
:101D8000C082C3A3E09BFF0582D582021583158222
:101D9000E09AD082D083F0A3EFF080071232E1E422
:101DA000F0A3F0902E20E4F0F58D9001E0E004F037
:101DB0000224A79001E3A3E0902E22F0758A30223E
:101DC0007FC87E007D967C00122BB04003022691D6
:101DD0003007209001B6E07002A3E06008752C1374
:101DE000752D888006752C07752DD07522067523F4
:101DF00040804990020DE0F964017006FE7FC8FC46
:101E00007D969001D2E0FAA3E0FB2FF52DEA3EF596
:101E10002CCEECCEEDFFEB2FF523EA3EF522E96464
:101E2000017019A3E0FEA3E0FF252DF52DEE352C62
:101E3000F52CEF2523F523EE3522F522900105122E
:101E40002B83FFAEF0C3952DEE952C500F90013FE4
:101E5000E0601AC3EF9523EE95224011900201E055
:101E60007002A3E0702990013F04F080229000F1FD
:101E7000E064209002017005F0A3F080077401F087
:101E8000A374F4F0E490013FF09001FF122C059050
:101E9000013FE0FF6016900024E06410900036706F
:101EA000057410F080037420F0122BE890004BEFC3
:101EB000F022CBEFCBEEFAC3E5149BFFE5139AFEBD
:101EC000E5129400FDE51194008F148E138D12F528
:101ED000112290020DE025E0249EF582E43436F5CF
:101EE00083E5822FF582E43583F583E49322E508C8
:101EF00025E024BAF582E43401F58322CFF0A3EF84
:101F0000F0902E20E4F053B2E1758A3043B21043D2
:101F1000B202221235E753B2E143B20C758A504344
:101F2000B202902E207401F02212101E900163E084
:101F3000FEA3E0229001DDE0FFA3E0CF90015DF081
:101F4000A3EFF022F583E49375F002902E001210B7
:101F500067E0FFA3E02290020DE0243DF582E43427
:101F600002F583E022F583E4932420F582E4342E05
:101F7000F583229001DF0210127F047E007D007B3A
:101F8000012212365F90015DE0FEA3E0FF22E0FC3B
:101F9000A3E0FDECFEEDFF22120EA09001DF021087
:101FA0002AE4F50CF50BF50AF509F50CF50BF50A25
:101FB000F509F508122C0F502AE50825E02424F82D
:101FC000E6FE08E6FFE4FCFDE50C2FFFE50B3EFE18
:101FD000ED350AFDEC35098F0C8E0B8D0AF50905E0
:101FE0000880D1E47B03FAF9F8AF0CAE0BAD0AAC74
:101FF00009120F4690017FEEF0A3EFF0E4750CA8F4
:10200000750B61F50AF509F508122C0F5055900172
:102010007F122B92C3122C1912367CD3EF940AEE46
:1020200064809480401290017FE0FEA3E0FF900165
:1020300057E0FCA3E0FD8007900157122B92C312DA
:102040002C193395E0FDFCE50C2FFFE50B3EFEE57A
:102050000A3DFDE5093C8F0C8E0B8D0AF50905083C
:102060000227E9E47F607EEAFDFCAB0CAA0BA90A1B
:10207000A809D3120FEE400BE4750C60750BEAF55E
:102080000AF509AE0BAF0C229001E8121012900174
:10209000E3E0FB75F013A42413F582E43402F58326
:1020A00012102AEB75F013A4241EF582E43402F515
:1020B000831210129001E812101E120EBB9001E361
:1020C000E0FB75F013A4240FF582E43402F58312CB
:1020D000102AEB75F013A42417F582E43402F5837B
:1020E0002275F002121067E493FE740193FFED7500
:1020F000F013A42418F582E43402F583E0FCA3E095
:10210000D39FEC9E229001E3E0FB75F013A424130F
:10211000F582E43402F58322EB75F013A4241AF55A
:1021200082E43402F58322EB75F013A4240FF582C8
:10213000E43402F583229001F012102A9001E802A3
:10214000101212102A9001F0021012EB75F013A475
:10215000241EF582E43402F58322C0E0C083C082ED
:10216000C0D075D018D2AFE5DB30E422D205C20270
:10217000E5DB30E11412366EE0F5DFEF64077065E1
:10218000D28A900007F00229E8C2010229EBE5DBC0
:1021900030E52C9000F0E064AA7017758A10F5DA2B
:1021A000C2AFF5B2F5A8F5A9F58B758E01758DC096
:1021B00080FED200300204C2028050C205804CC2B0
:1021C00002E5DB30E121E5DB30E04012366EE0F580
:1021D000DFEF24F9600824EE700BD2068007D28A64
:1021E000900007E4F0802120010A7815A6DFD201D3
:1021F000D202801712366EE5DFF0EF64247009908A
:1022000001FB04F0A374F4F078150675DBFFD0D061
:10221000D082D083D0E0329001DD1210129001DA2A
:10222000E0C454F02428F582E43402F58322EBC4A0
:1022300054F02426F582E43402F583E4F0A3F09010
:1022400001DAE0FFC454F0242AF582E43402F58375
:10225000E4F0A3F0EFC454F0242FF582E43402F547
:1022600083229001DAE0FBC454F02422F582E434A6
:1022700002F58322E0FDA3E09001DBCDF0A3EDF0B9
:10228000EFC454F0242EF582E43402F58322900149
:10229000DAE0C454F0242CF582E43402F58322C43D
:1022A00054F02430F582E43402F583229001DBE01F
:1022B000FEA3E0FF22C454F02426F582E43402F5A4
:1022C0008322E0FEA3E0FFD39400EE94002290016D
:1022D000DD02101EE49001D8F0A3F090014C7407C9
:1022E000F0A304F090014A14F0A304F01234477EE6
:1022F000007F047D007B017A0179571210B27F01C3
:102300001234CA902E14E0FEA3E0FF1232DA9001DC
:102310003C121073EE8FF0120E81E4FF1234CA12D9
:1023200032EE9001D8CDF0A3EDF09001D8E0FCA3FF
:10233000E0FDC39405EC94004009D3ED94F0EC94D7
:10234000074017EF64014E700590014C8004E49043
:10235000014AF0A3F0E4FF1234CA902E23E4F012F5
:1023600032EE9001D8CDF0A3EDF090001D7410F086
:10237000EF64014E9001D870081232D512331380E9
:10238000061232D512331DE03EFE1232FD229001BC
:1023900040121012900108121073EE8FF0020E819D
:1023A000900102121073020E1E9001D8E0FEA3E00D
:1023B000FF22E50825E02424F8E6FE08E6FFE0FC1D
:1023C000A3E0FD22900105121073E4F5F0020E81E6
:1023D000D39001FAE094009001F9E094002225E006
:1023E0002473F582E43401F583E022EE9001D8F005
:1023F000A3EFF022121073746175F0A8020E8190A1
:102400000100E0FCA3E0FD229001FB7403F0A37443
:1024100020F022E475F001020E08E0FEA3E0FBEEDE
:10242000FAE4F9F822F0A3F09000367410F022C319
:10243000E50894037480948022EF9DFFEE9CFE22B9
:10244000E0FEA3E0FFC32212313E1235C77E007FBB
:102450002C7D007B017A0179821210B212082EE4E1
:1024600090017BF0A3F0900169F0A3F0900167F078
:10247000A3F090016BF0A3F07F03122D5F90010099
:10248000E0FEA3E0FFA3122B77900100E0FEA3E0A3
:10249000FF122B74122BA490010B122BD49001115C
:1024A000122BD490010E122BA7E490013FF0FE7F77
:1024B0000AFD7B017A0179401210B2E4900207F024
:1024C000A3F0900205122C05E490004BF0122BE8CB
:1024D00090020BE0700FC39001FAE094F49001F9C0
:1024E000E09401500A9001F97401F0A374F4F02211
:1024F000787FE4F6D8FD75812D022D1A02000002C6
:102500002ED7E493A3F8E493A34003F68001F208E6
:10251000DFF48029E493A3F85407240CC8C333C420
:10252000540F4420C8834004F456800146F6DFE48B
:10253000800B0102040810204080903575E47E0174
:102540009360BCA3FF543F30E509541FFEE493A3FE
:1025500060010ECF54C025E060A840B8E493A3FA10
:10256000E493A3F8E493A3C8C582C8CAC583CAF09C
:10257000A3C8C582C8CAC583CADFE9DEE780BE90AA
:1025800001D8EFF0E4A3F09001D8E0FFA3E0C39FEF
:10259000502E12113312364E90016BEEF0A3EFF075
:1025A0008E2AF52BC87424C87400FCE4FDFB7A0065
:1025B0007926FE7F06120D9A9001D9E004F080C7BB
:1025C000122781900100EEF0A3EFF0900169122C28
:1025D00020900133E09FFF900132E09EFE12367C96
:1025E0007C007D05120DD2900130ECF0A3EDF0904F
:1025F0000169E0FFA3E0900132CFF0A3EFF02200E9
:102600000702AB4374AA7583F5758255A574557599
:1026100083FA7582AAA574A57583F5758255A522DE
:102620000203020AB0B00BB6B60CFFFF09020208A3
:10263000FFFF0D77770E04041307071410101080A6
:10264000801500001600000192129212071003106C
:10265000030F04040404040101010111120612060F
:10266000120C040C040302040204E49001DCF0A345
:10267000F0200603022ED620077CC20690020DE051
:10268000902E12E0FFA3E09001DCCFF0A3EFF090DA
:1026900001DCE0FFA3E09001DACFF0A3EFF0E4FF6C
:1026A0001234CA1232EE9001DCCDF0A3EDF0EF64EB
:1026B000014E9001DC70081232D5123313800612DD
:1026C00032D512331DE03E9001D8F0A3EFF0900117
:1026D000D8E0FEA3E0FF1232FD90020DE09001DA97
:1026E000E0FFA3E0902E12CFF0A3EFF09001FB7477
:1026F00003F0A37420F02253A87F123620121F5D2E
:1027000012348A12080E43A880E4F58D9000F1740B
:1027100020F0122F5F9001F8E01460151460171478
:10272000603814604A240470E0122AB4120803804E
:10273000D8122C2780311235A4900020E0FF6420AD
:102740006008EF64216003122FDD900025E0641023
:1027500070B79001F87404F080AF12080A9001FB82
:102760007403F0A37420F09001F87402F0809A12C0
:1027700033BB900025E06410608F120803808A90BC
:102780000020E0642070037421F090013612107371
:10279000120E1E641045F07003123372900001E0B7
:1027A00064AA700312327412332720030890001AAF
:1027B000E06410700B90001A7411F0C20312080349
:1027C0009000FBE06006E4F09001F8F090016FE00B
:1027D0007004A3E06401701590016FF0A3F0900104
:1027E000B87407F0A374D0F0E49001F8F030000C56
:1027F000C2009001FB7401F0A374F4F022308A78D7
:102800009001F9E07002A3E0706E90016FE0700239
:10281000A3E07064F5B2758D20438D20758D9043D3
:10282000A808D2AF758B4090012CE0FEA3E0FF4ECC
:102830006005758E148003758E3F20002F20052CB7
:10284000E5DB54047026758AA4200520E5DB5404DA
:10285000701AF586758703000000758601EF4E60DB
:10286000047F2880027F7F7E00121ADE758B01753F
:102870008A3053A8F712360422E4FEEEC39407749C
:102880008094805038EE75F005A42428F582E43455
:102890002EF583C083C08290020DE0D082D0837574
:1028A000F0021210671226C1FDEE75F005A4242770
:1028B000F582E4342E122745EDF00E80BEEF701045
:1028C00090020DE0700A90014AE07002A3E06012ED
:1028D00090020DE06401701490014CE07002A3E0DE
:1028E000700A90020DE0902E217412F022CFF0EFCA
:1028F000A3F0900105121073020E1EC3FF90018712
:10290000E09F900186E095F02290011DE0FEA3E09B
:10291000FF2290011DE0FFA3E0229001DBE0941E66
:102920009001DAE09400229001AA7413F0A3748855
:10293000F0A3E4F0A322E4F0A3F0A3F0A3F022CFED
:102940009001A2F0A3EFF022FF900186E5F0F0A342
:10295000EFF0229001A5E09F9001A4E09E227E006E
:102960007F137D007B017A02790F1210B2E4FBEB3A
:10297000C3940174809480505190020DE0FFEB7578
:10298000F00AA42488F582E43436F583E5822FF535
:1029900082E43583F583E493FFE4FCFDFE1228F81E
:1029A00012102A1228F8121012EF04F87E00740197
:1029B000088005C333CE33CED8F9FFEE3395E0FD62
:1029C000FC12292B12102A0B80A5229001FDE07029
:1029D00004A3E064017011900007E06004D28AE46F
:1029E000F0E49001FDF0A3F0900036E0FF9000FFCE
:1029F000E06F603D900036E0FD9000FFF090000732
:102A0000E090020EF0540FF0ED7E0064207005E0BF
:102A10004420800CEF64104E700B90020EE04410C6
:102A2000F0900007F0C28A9001FD7403F0A374E8EF
:102A3000F02274FFF5F0020E08EF2401FDE43EFCE5
:102A4000D3E09D22E475F001020E08C3900149E035
:102A500094BC900148E0940222C3900191E09464F8
:102A6000900190E0940022C3900231E094B890026B
:102A700030E0940B22C390022BE094F490022AE001
:102A8000940122EE8FF0020E08EF2401FDE43EFCDB
:102A9000D3E09D229001D87408F0A3E4F0A3743F22
:102AA000F0A374DFF0E4FDFCF9758A10538AEF009F
:102AB0009001D8E0FEA3E02DF582EE3CF583E4938F
:102AC000FF69F90DBD00010CBC37E5BDDFE29001E7
:102AD000DAE0FEA3E0F5828E83E493FFE96F7008ED
:102AE0009000017407F08005E4900001F0758A30D1
:102AF000538AEF0022E0FEA3E0FF7C007D0A020D76
:102B0000C09001DFE0902E1075F002021067900275
:102B10000DE0FF7E00902E12E0FDA3E0229001392F
:102B2000121073EE8FF0020E8175F002EF902E10EE
:102B300002106790014DE02FFF90014C2290014B55
:102B4000E02FFF90014A22900013E0FF90020CE07A
:102B50006F600CEFF09002097402F0A37458F090CB
:102B60000209E07004A3E06401702690020CE0FF0B
:102B70007E0064107002D207EF64204E7002C2071C
:102B8000900025E064106002D203E4900209F0A3F3
:102B9000F022E49001D8F0A3F0758A10538AEF0078
:102BA000122DE475EA81E4F5F6F5F475F308F5F213
:102BB00075EB0700E5EC30E7FBAFF3EFFEADF2EDB0
:102BC000FF900136121073EE8FF0120E81E4F5ECD7
:102BD00075EB30758A30538AEF0022900025E0644F
:102BE00010703FF5B2758D20438D20538D7F53A813
:102BF000F7F58BE5DB54047013200510F58AF58694
:102C0000758703000000758601758A30758B019009
:102C1000020B7401F09001FB7403F0A37420F01216
:102C2000360422C2D5E830E70FB2D5E4C39BFBE4FB
:102C30009AFAE499F9E498F8EC30E717B2D512342F
:102C400039120F46E4C39BFBE49AFAE499F9E4983D
:102C5000F88003120F4630D50DE4C39FFFE49EFEBB
:102C6000E49DFDE49CFC22E4FFEFC3940D7480948A
:102C700080502E90020DE0FEEF75F003A42401F5C4
:102C800082E4342EF583E5822E1226C4FEEF75F021
:102C900003A42400F582E4342E122745EEF00F80C1
:102CA000C8902F56E0902E2BF022E4F5DA75DA402A
:102CB00043DA2030881375D74075D64090020D0452
:102CC000F09000157440F0801175D74275D642E43B
:102CD00090020DF09000157441F05392FE75DA5891
:102CE00043A80275B80275F802229001DEEFF012D7
:102CF00035E79001DEE0FF1230599001DEE0FF90F1
:102D0000020DE025E0249EF582E43436F583E58269
:102D10002FF582E43583F583E493FF12247F90013D
:102D2000DEE0FF02365F9001DAEFF07E007F10EE0A
:102D3000C0E0EFC0E07D00E075F010A42422F9743B
:102D40000235F0FA7B01D0E0FFD0E0FE1210B29025
:102D500001DAE0122A7F740BF0A374B8F02290011C
:102D600058E02418FF900157E034FCFEC390016A3C
:102D7000E09F900169E09E501490016FE07002A303
:102D8000E0701190016F04F0A374F4F022E490015C
:102D90006FF0A3F022C10542023D0202C1064102CA
:102DA0000E0041020D00C10741020C00C1010115D6
:102DB00000C100C102C104C1034100FF1043023839
:102DC00001023B0012082E7F01122D5F1220AB90F2
:102DD0000102122B771215151225A012233A123177
:102DE000AB12353E022E4A1227597A01795B121036
:102DF000B21227597A0179631210B27F1212275B3F
:102E00007A0179BA0210B2EFF87401088002C33374
:102E1000D8FC42AB1226B290369B93F45291529357
:102E20005391DF22E5B254016006E5A85410700FFB
:102E300075B29275B67CE4F5B743B20143A810228F
:102E4000758A30538AEF758601758F05E4F5AB7589
:102E5000AC0F75913E759201D28A22900238121001
:102E600073020E1EE0FEA3E0FF7C000210859001BD
:102E700069E0FEA3E0FF900167EEF0A3EFF02212FD
:102E800026B290369B934291428843912022781536
:102E9000E6FF2400F582E43400F58322EE30E707F4
:102EA000C3E49FFFE49EFE2203030019001E0014EA
:102EB00000197E007D007B010210B2010220010298
:102EC0000102009600960701F400000000000000D7
:102ED00000000000000000000000000000000000F2
:102EE00000000000000000000000000000000000E2
:102EF00000000000000000000000000000000000D2
:102F000000000000000000000000000000000000C1
:1037F000000000000000000000000000000000CBFE
:1038000000000000000000000000000000000000B8
:1038100000000000000000000000000000000000A8
:00000001FF
