:10000000005600000001000037B8000000000000AA
:1000100000000000000000000000000000000000E0
:1000200002361901022000010200000233EE023DF7
:10003000E40000020826D2AF320000020816D2AF58
:10004000320000022556D2AF32000002081E7F02A5
:100050001239CD122927902E20E030E2F9900808BD
:10006000E493902E001228B8E0FFA3E090026ACF3C
:10007000F0EF12294A7F02123EB7900081E0FEA302
:10008000E0FF4E700E90026AE0FCA3E0FDECFEED96
:10009000FF8014EF25E0FFEE33FE90026BE02FFFB0
:1000A00090026AE01229BD900081EEF0A3EFF0907B
:1000B000007BE07002A3E0700F900081E0FFA3E0FE
:1000C00090007BCFF0A3EFF0E4900264F012293DA2
:1000D0005010EF1228C21210FC000027101229C67F
:1000E00080EBE4900265F0900265E0C394057480B3
:1000F00094804003020BBEE4900264F012293D405C
:1001000003020BB5A3E02401FDE433FC74CF2F12EE
:1001100029CDD3ED9F7480F86C984003020BAF900B
:100120000264E0FF1239CD900264E0FF12292790AB
:100130002E20E030E2F9900264E0FF9008069390F0
:100140002E00122921E0FCA3E0FDEF122911ECF0B2
:10015000ED12294A900264E0FF123EB712290CE02A
:10016000FCA3E075F0029000951229A0900264E0D3
:10017000640190007B70241229D7C0E0C0E0EEC07B
:10018000E0EFC0E0122967D0E0FFD0E0FED0E0FD54
:10019000D0E0FC120F73E47B0880221229D7C0E064
:1001A000C0E0EEC0E0EFC0E0122967D0E0FFD0E091
:1001B000FED0E0FDD0E0FC120F73E47B09FA120FD1
:1001C00081E47B0AFAF9F8123C28900264E01229D3
:1001D00011EE8FF0120E5474FFF509F50AF50BF5C8
:1001E0000CE4F50DF50EF50FF510F514F513F512F9
:1001F000F51112290CE0FCA3E075F01290010F122A
:1002000029A0E4F508C3E5089408748094804003AD
:10021000020AD2900264E0FF9001011228B0E0FCD3
:10022000A3E04C600C75F012EF9001011228B3802E
:1002300007900264E0122911E0FEA3E0FF9002643F
:10024000E0FD1228ADEEF0A3EFF0ED1229821228A6
:10025000B3E0FEA3E0D3950EEE950D4016850D0F8D
:10026000850E10900264E01228ADE0F50DA3E0F5D4
:100270000E801C1228A8E0FCA3E0D39510EC950F8B
:10028000400D1229811228B3E0F50FA3E0F51012FA
:1002900028A8E0FCA3E0C3950AEC95095015850950
:1002A0000B850A0C1229811228B3E0F509A3E0F5A9
:1002B0000A801C1228A8E0FCA3E0C3950CEC950B67
:1002C000500D1229811228B3E0F50BA3E0F50C9034
:1002D0000264E01228AD1229D7FCFDE5142FFFE5DA
:1002E000133EFEED3512FDEC35111228F60508021D
:1002F00009E5AE0DAF0EEFFB1228E2AE0FAF101204
:1003000028DFAE09AF0A1228DFAE0BAF0C1228DFD0
:10031000FC78021210C5900264E09001231228FFBD
:100320001229AB1228D7FF4E700E12291DE0FAA336
:10033000E0FBEAFEEBFF8014EF25E0FFEE33FE1258
:10034000291DE0FCA3E02FFFEC1229BD12295E90CD
:10035000007D1229031228D04E70111229AB1228E9
:10036000D7FF75F002ED900083122903900264E03C
:10037000900083122975FDECC0E0EDC0E0EF12297A
:10038000AC1228D7FFE4FCFD9002771210F0900227
:1003900064E090027BF0D0E0FDD0E0FCE4FF1214BA
:1003A000BB900264E09000831228FFED1228C2C0C7
:1003B00083C0821210E41228D02400FFEE34E8FE3D
:1003C0003395E0FDFC120F66D082D0831210F0123C
:1003D00029C60208DC900265E004F00208C7902EEE
:1003E00023E4F0900264F012293D4003020D8BEFEC
:1003F0001228C2C083C0821210E4E8C0E0E9C0E065
:10040000EAC0E0EBC0E0900264E024CF1229CDFB0B
:10041000E4FAF9F81228BE1210D8123C28D0E0FBFA
:10042000D0E0FAD0E0F9D0E0F8120F66D082D083A5
:100430001210F01228BE1210D8E47B507AC3F9F8DB
:10044000C312109E500A1228BE1210FC0000C350A6
:10045000900264E0FF1228C21210E4E833500BEF60
:100460001228C21210FC00000000900264E090000C
:100470008D1229754C7009EF1228C21210D8802CE9
:10048000900264E090008D1228D4FF7C007D02125F
:10049000114BECF8EDF9EEFAEFFB1228BE1210D872
:1004A000120F66E47B03FAF9F812100C12295E9021
:1004B000008D12112DEEF0A3EFF075F002ED90001B
:1004C000771228D74E701575F002ED90008D122826
:1004D000D7FF75F002ED900077122903900264E0D7
:1004E000FF122997C083C0821210E4EF1228D1FFB7
:1004F000E4FCFD120F66D082D0831210F0900264EB
:10050000E0FF75F00290003512112DE475F0011234
:100510000E5475F002EF9000351228D7FFD3940ADD
:10052000EE94004032EF12296E900264E012299797
:100530001210D812100C12295E9000291229039073
:100540000035122920E4F0A3F075F004ED12299A89
:100550001210FC00000000900039E07002A3E0706F
:1005600044900264E0FD1228D1FF75F002ED900086
:1005700029122979FD123E4D12295E90002512297B
:100580000375F002ED9000251228D7D39406EE945F
:100590000040129000397407F0A374D0F0A3E47502
:1005A000F001120E541229C6020BC722BB010689A4
:1005B000828A83E0225002E722BBFE02E322898284
:1005C0008A83E49322BB010689828A83F022500247
:1005D000F722BBFE01F322EF8DF0A4A8F0CF8CF040
:1005E000A428CE8DF0A42EFE22BC000BBE0029EF65
:1005F0008DF084FFADF022E4CCF875F008EF2FFF0A
:10060000EE33FEEC33FCEE9DEC984005FCEE9DFED7
:100610000FD5F0E9E4CEFD22EDF8F5F0EE8420D21E
:100620001CFEADF075F008EF2FFFED33FD4007988D
:100630005006D5F0F222C398FD0FD5F0EA22C2D5BC
:10064000EC30E709B2D5E4C39DFDE49CFCEE30E755
:1006500015B2D5E4C39FFFE49EFE120DC9C3E49D0D
:10066000FDE49CFC8003120DC930D507C3E49FFF55
:10067000E49EFE22C5F0F8A3E028F0C5F0F8E5827C
:10068000158270021583E038F022BB010A89828A44
:1006900083E0F5F0A3E022500687F009E71922BBBA
:1006A000FE07E3F5F009E3192289828A83E493F5D2
:1006B000F074019322BB0110E58229F582E5833AAB
:1006C000F583E0F5F0A3E0225009E92582F886F0F1
:1006D00008E622BBFE0AE92582F8E2F5F008E222EC
:1006E000E5832AF583E993F5F0A3E99322BB010D95
:1006F000C58229C582C5833AC583020E545011C5EF
:100700008229F808E5F026F618F5F0E58236F6229B
:10071000BBFE11C58229F808E225F0F5F0F218E2D7
:100720003582F222F8E58229F582E5832AF5837481
:10073000019325F0F5F0E4933822BB010A89828AFF
:1007400083F0E5F0A3F0225006F709A7F01922BBC9
:10075000FE06F3E5F009F31922F8BB0111E5822941
:10076000F582E5833AF583E8F0E5F0A3F02250093D
:10077000E92582C8F608A6F022BBFE09E92582C851
:10078000F2E5F008F222EF2BFFEE3AFEED39FDEC38
:1007900038FC22C3EF9BFFEE9AFEED99FDEC98FC2E
:1007A00022E88FF0A4CC8BF0A42CFCE98EF0A42CD2
:1007B000FC8AF0EDA42CFCEA8EF0A4CDA8F08BF01E
:1007C000A42DCC3825F0FDE98FF0A42CCD35F0FC1C
:1007D000EB8EF0A4FEA9F0EB8FF0A4CFC5F02ECDE8
:1007E00039FEE43CFCEAA42DCE35F0FDE43CFC22CD
:1007F00075F008758200EF2FFFEE33FECD33CDCCC0
:1008000033CCC58233C5829BED9AEC99E582984042
:100810000CF582EE9BFEED9AFDEC99FC0FD5F0D61F
:10082000E4CEFBE4CDFAE4CCF9A88222B800C1B949
:100830000059BA002DEC8BF084CFCECDFCE5F0CB87
:10084000F97818EF2FFFEE33FEED33FDEC33FCEBC0
:1008500033FB10D703994004EB99FB0FD8E5E4F97B
:10086000FA227818EF2FFFEE33FEED33FDEC33FC68
:10087000C933C910D7059BE99A4007EC9BFCE99A5C
:10088000F90FD8E0E4C9FAE4CCFB2275F010EF2FA1
:10089000FFEE33FEED33FDCC33CCC833C810D707A1
:1008A0009BEC9AE899400AED9BFDEC9AFCE899F8DC
:1008B0000FD5F0DAE4CDFBE4CCFAE4C8F922EB9FE3
:1008C000F5F0EA9E42F0E99D42F0EC6480C8648055
:1008D0009845F022EB9FF5F0EA9E42F0E99D42F048
:1008E000E89C45F022E8600FECC313FCED13FDEE2D
:1008F00013FEEF13FFD8F122E0FCA3E0FDA3E0FE1E
:10090000A3E0FF22E0F8A3E0F9A3E0FAA3E0FB22D2
:10091000ECF0A3EDF0A3EEF0A3EFF022A882858324
:10092000F0D083D08212111312111312111312116D
:1009300013E473E493A3C583C5F0C583C8C582C817
:10094000F0A3C583C5F0C583C8C582C822A425828B
:10095000F582E5F03583F58322E0FBA3E0FAA3E01E
:10096000F922EBF0A3EAF0A3E9F022EC8EF0A4CC9C
:10097000C5F0CCCDF8EFA4CEC5F02DFDE43CFCE8ED
:10098000A42EC8C5F03DFDE43CFCEFA4FFE5F02833
:10099000FEE43DFDE43CFC229002611222DE4003B5
:1009A0000214BA122249FF1221D61222EE1221D2CB
:1009B000120E95D39DE5F09C40431222491221D698
:1009C0001222EE1221D212232E9430EE9475400C96
:1009D0009002627475F0A37430F08010122249FF07
:1009E0001221D61222EE1221D21222BE900261E012
:1009F00075F0029000E912112DE40212431221B5A4
:100A000012232E9410EE9427400C9002627427F06B
:100A1000A37410F080061221B51222BE1222659036
:100A20000261E0FD75F0029000E9122233300525E5
:100A300075F002ED9000E91221EAD3942CEE9401B6
:100A4000401D75F002ED9000ED12112D7427F0A3FA
:100A50007410F0800A75F002ED9000ED122227E488
:100A6000900262F0A3F0122200E0605E1222CFD367
:100A70009400EC64809480401EEF25E02421122233
:100A80007AD3ED9FEC9E400F900261E01222A8E421
:100A9000F0A37464F0801C900261E0FF1222A8129F
:100AA0002383400F9000081221D2120E95FFE5F02B
:100AB000122342900261E0FF1222F87401F0122327
:100AC00017740FF0A374A0F0800D1222547403F079
:100AD000A374E8F0123D55D3900263E094009002B5
:100AE00062E0648094805003021470E0FEA3E0FF93
:100AF00090000812224C1221D612233BEE3395E0CF
:100B0000FDFCE47BB87A88F9F8C312109E500A9075
:100B100002627488F0A374B8F030053C122200E041
:100B20007016EF25E02439F8E6FC08E6FD12226590
:100B3000C39DEE9C505D801A900261E025E0242167
:100B4000F8E6FC08E6FDA3E0FEA3E0FFC39DEE9CF3
:100B500050417C007DC880359002611222811223B1
:100B600083500890021AE064207028EF25E02421C9
:100B700012227A1222CFC39FEC9E5017ED9400EC04
:100B800064809480400D1222657C007D0A120E1E46
:100B9000122341122200E06074EF122259E0FEA3FA
:100BA000E04E7011900261A3E0FCA3E0FD1217F784
:100BB000122341802E1221E0FF1222CF123E4DD38C
:100BC000EF9432EE9400401B122254E0FCA3E0D3D9
:100BD00094C8EC9400400CEF12225974FF75F09CFD
:100BE000120E541221E0FF7C007D0712114BECF82D
:100BF000EDF9EEFAEFFB122265EE3395E0FDFC1203
:100C00000F66E47B08FAF9F812100C8003122265D3
:100C1000900261E075F0029000451222331221E04B
:100C2000FFD39405EE9400400EEF9410EE94005024
:100C300006900262EE8020900261E0FF75F0029063
:100C4000003D1221F8FD75F002EF9000451221EAF7
:100C50002DFFEE3C900262F0A3EFF0D3900263E030
:100C60009430900262E0648094F540077475F0A3BC
:100C70007430F0E5DB5404706112226590001112AB
:100C8000224CFD1221D612233BEF24A8FFEE803721
:100C9000E5DB5404704490000812224CFF1221D668
:100CA00012238E75F002EF90003D1221EAFF9000B2
:100CB0001112224CFD1221D612233BED1221D61225
:100CC0000E9524A8FFE5F03461FE90000E12113954
:100CD00075F002ED1221D912233B22900275ECF03F
:100CE000A3EDF0900274EFF0122D6FC083C08290DC
:100CF000027BE0D082D083122D69E07046122D6015
:100D0000122D7DC083C08290027BE0D082D08312FE
:100D10002D691210D8E4FBFAF9F8C31210B460235D
:100D2000122D60122D87C083C08290027BE0D0829A
:100D3000D083122D691210D8E4F8C31210B46003E6
:100D400002161F122DA4C3900276E09FFF90027539
:100D5000E09E1217E0C083C08290027BE0FCD0824C
:100D6000D083122D69EEF0A3EFF0ED122D6F122D4E
:100D7000BBE06050900274E0FF122DC2C083C082BD
:100D800090027BE0D082D083122D69E0FCA3E0FDCD
:100D9000EF75F005A424C5F582E4343EF583E493B1
:100DA000FE740193FFD3ED9FEC9E4018122D60124C
:100DB0002D73C083C08290027BE0D082D083122D3D
:100DC000697405F0122DA4122D60122D7DC083C010
:100DD0008290027BE0D082D083122D691210F01233
:100DE0002D60122D91C083C08290027BE0D082D012
:100DF00083122D49122D87C083C08290027BE0D0E0
:100E000082D083122D691210F0900274E0FF122D2F
:100E10006FC083C08290027BE0FED082D083122D0F
:100E200069E0D3940074809480400EEF122D6F75AA
:100E3000F00EEE12112DE014F09002770217DC1282
:100E40002D60122D7DC083C08290027BE0D082D0C5
:100E500083122D691210D890027C1210F0122D60AE
:100E6000122D87C083C08290027BE0D082D0831293
:100E70002D691210D8900280122D9B122D60122D18
:100E8000D0C083C08290027BE0D082D083122D69D3
:100E9000E0F9F81210C5EFFBEEFAEDF9ECF8122DBF
:100EA0009E120F739002841210F090027C1210D8E0
:100EB0009002771210E4120F669002841210E4126E
:100EC0000F66122DDA122DA4122D60122D7DC08313
:100ED000C08290027BE0D082D083122D69122D9BBC
:100EE000122D60122D87C083C08290027BE0D082D9
:100EF000D083122D69122D9BECC0E0EDC0E0EEC056
:100F0000E0EFC0E0122D60122D91C083C0829002EC
:100F10007BE0D082D083122D69E0FEA3E0FBEEFAE5
:100F2000E4F9F8D0E0FFD0E0FED0E0FDD0E0FC1224
:100F3000100C122DDA900274E0640160030217D9DC
:100F4000122DA4EFFBEEFA122D9EC3EF9BFFEE9A3B
:100F50001217E0C083C08290027BE0FCD082D08375
:100F6000122D69EEF0A3EFF0ED122DC2122DBBE0B1
:100F7000FEA3E0FF900274E0FB75F005A424C3F526
:100F800082E4343EF583E493FC740193FDD3EF9D3A
:100F9000EE9C4065122DA4EB75F01CA4122D7DC0B3
:100FA00083C08290027BE0D082D083122D69121020
:100FB000F0122D60122D91C083C08290027BE0D090
:100FC00082D083122D49122D87C083C08290027B6C
:100FD000E0D082D083122D691210F0122D60122DF4
:100FE00073C083C08290027BE0D082D083122D69CF
:100FF0007405F0122DA4122DDA9002801210D8225E
:10100000FE123EAB900274E0FD75F01CA42431F595
:1010100082E43402F58322900264EFF0A3ECF0A3A3
:10102000EDF0EF1235DDE0FEA3E0FF123E4DD3EF11
:101030009432EE9400401C1235AD1210FC000000FA
:1010400000123579E4F01235F71235D9EEF0A3EF3E
:10105000F08043123568E0FEA3E0FFD39400EE94E5
:10106000004033900265E0FCA3E0FDD3EF9DEE9CD1
:10107000400B900264E01235A0E04401F09002645D
:10108000E0FF12356CE0FAA3E0C39DEA9C50071222
:10109000359FE04402F0900264E01235B2C083C094
:1010A000821210E41235F7E4FCFD120F66D082D0F4
:1010B000831210F0900264E0FF123600E475F00134
:1010C000120E54EF75F007A424A2F582E4343EF525
:1010D00083E493FE740193FF900264E0FDC454F036
:1010E0002490F582E43402F583E0FAA3E0C39FEA9A
:1010F0009E5003021A77ED123600E0FEA3E0FFFBDC
:10110000EEFAE4F9F8900264E01235B21210D81247
:10111000100C9002671210F0123568E0FEA3E0FF99
:10112000EEC0E0EFC0E012360DEFFDEEFCD0E0FFC8
:10113000D0E0FE123E4D90026BEEF0A3EFF0900275
:1011400064E0FD75F007A4249DF582E4343EF58348
:10115000C37401939FE4939E401FED12356CE0FE33
:10116000A3E04E6014900264E0FB1235EAE0FEA3B7
:10117000E0C394B8EE940B5021900264E0FF123566
:101180006CE0FCA3E04C7008EF1235EAE4F0A3F049
:1011900012360D123568EE021A21EB600764016009
:1011A00003021A27E490026DF090026BE0FEA3E0C8
:1011B000FFD39450EE94004006A37408F080329060
:1011C0000264E01235A0E064036026D3EF943CEEA5
:1011D0009400400890026D7402F08015D390026C68
:1011E000E0943290026BE09400400690026D74012E
:1011F000F0123568E0FEA3E0FFE4FCFD123613D3E5
:101200001210B4401190026DE0FF123568E48FF0C7
:10121000120E54021A5DD390026CE0945090026B4F
:10122000E094004058123568C083C082E0FEA3E01D
:10123000FF90026DE0FDC3EF9DFFEE9400D082D0E1
:1012400083F0A3EFF08036123568E0FEA3E0FF4E96
:10125000700D123613EBFFEAFEE9FDE8FC80167C08
:10126000007D0712114B123613120F66E47B08FA49
:10127000F9F812100C123568EEF0A3EFF01235AD4C
:101280001210FC00000000123579E4F012360D1245
:1012900035D9EEF0A3EFF0123568E0FCA3E0FDD302
:1012A0009400EC940040561235F7123E4D900264C3
:1012B000E075F007A4249FF582E4343EF583D374EF
:1012C00001939FE4939E400F900264E0FF12356CFF
:1012D0001235BFE4F08026900264E0FF75F007A4A9
:1012E00024A1F582E4343EF583E493FE1235CBE08D
:1012F000C39E50091235681235BFE004F01235F76D
:1013000022E4900262F0A3F012322FD39002AAE0FE
:1013100094009002A9E094004003021D479000CD84
:101320001210E4900020E0FEA3E0FFE4FCFD120FA9
:10133000669000CD1210F09000D1E475F001120E0D
:1013400054C39000D4E094649000D3E09400500320
:10135000021BB39000CD1210D8ECC0E0EDC0E0EE5F
:10136000C0E0EFC0E09000D1E0FEA3E0FBEEFAE4C5
:10137000F9F8D0E0FFD0E0FED0E0FDD0E0FC1210A4
:101380000C9000CD1210F09000CD1210D89000CB30
:10139000EEF0A3EFF0A31210FC00000000E49000B8
:1013A000D1F0A3F0A3F0A3F09002A9E07002A3E0B3
:1013B0007021900261F0123100501875F002EF9028
:1013C00000D512308D4E7003121D48900261E0046A
:1013D000F080E3E4900261F01231004003021D4707
:1013E00074522FF582E43400F583E0FF6028900208
:1013F00061E0FE75F002123119E0FCA3E04C7016BA
:10140000900020E0FCA3E0FD75F002EE123119EC33
:10141000F0A3EDF0802DEF702A12310D90026112D1
:1014200030A8120E95C39496E5F0940050159002E2
:1014300061E0FF9000F31230CFF0A3F0123095E49A
:10144000F0A3F0900261E075F0029000F312308D8D
:10145000FF4E7003021D3E900020E0FCA3E0FDC3A0
:10146000EF9DFFEE9CFE123EAB900262EEF0A3EF0A
:10147000F0900261E0FD1230B3EEF0A3EFF075F0F2
:1014800002ED9000F712308DD3940AEE94005003D1
:10149000021D3E12310D75F002ED1230AC120E95A8
:1014A000D39498E5F0943A404675F002ED9000FB35
:1014B00012308DC39428EE94234003021D3E900207
:1014C00061E0FB24CFF582E43402F583E075F01887
:1014D000A4FFAEF0EB1230B3E0FCA3E0FD120DB7B9
:1014E000900261E0123132EEF0A3EFF0021D3E12E5
:1014F000310D900261E0FF1230A9120E95FDACF0A3
:10150000D39488EC9413402875F002EF9000FB12FE
:10151000308DC394D0EE94075044900261E01230B5
:10152000B3E0FAA3E0FB123095EAF0A3EBF0802ED3
:10153000D3ED94E8EC94034025900261E0FF123172
:1015400032E0FCA3E0C39458EC94025011EF123047
:10155000B3E0FCA3E0FD123095ECF0A3EDF09002B7
:1015600061E004F0021BB822900264EFF0E0FF2477
:1015700052F582E43400F583E07003021E209000EF
:10158000C31230894E701A9000CBE0FEA3E0FF90AA
:101590000264E09000C3123040EEF0A3EFF0021EB0
:1015A0004F900264E09000C3123066E0FEA3E0FFBB
:1015B0009000CBE0FCA3E0FD123E4D9000E1121143
:1015C00039900264E0FD1230A9EE8FF0120F3974E9
:1015D000BF2D1230C3E070379000E112113975F061
:1015E00002ED1230AC120E95C39414E5F094005045
:1015F0000A12304CEEF0A3EFF08014E4FFEF12314A
:1016000005500C74BF2F1230C37401F00F80EE90A0
:101610000264E0FF9000C3123099E0FCA3E0FD906B
:1016200000CBE0FAA3E0FBD3ED9BEC9A400A74C137
:101630002F1230EAE4F080371230E47401F0802F8A
:10164000900264E0FF9000C31230B6E4F0A3F0EF24
:10165000123063E4F0A3F074BF2F1230C3E4F090B3
:1016600000D9123098E4F0A3F01230CBF0A3F012BE
:1016700030BCE07003021FAB123086D39400EE94AE
:10168000005003021FAB12310D900264E0FD75F0B3
:1016900002123056E0FCA3E0FD123E4D900265EED2
:1016A000F0A3EFF0900264E09000E5123040E0FC1F
:1016B000A3E0D39FEC9E400CD3900266E0948C1282
:1016C00030DD501412306CC39DEE9C505D9002666C
:1016D000E094C81230DD40521230BCE4F09000C3F8
:1016E0001230CEF0A3F012310D75F002EF1230ACD3
:1016F000120E95FFAEF0900264E0FD123063E0FA46
:10170000A3E0C39FEA9E500F75F002ED123113E47F
:10171000F0A374C8F0800D1230F81231137401F088
:10172000A3742CF01230E4E4F02212306CD39DEE5E
:101730009C404DD31230D74047900264E09000DDCA
:1017400012308A12312B503812309F74FF75F0F727
:10175000120ECD1230CB12311F9000D912308D12E3
:10176000312A501C1230F29000D9400D12112D7404
:10177000FF75F0F7120E54800712112DE4F0A3F05C
:1017800012306CC39DEE9C50421230D7403D123057
:101790009FE475F009120ECD75F002EF9000D9129A
:1017A000112DE412311F9000DD12308D12312A50BC
:1017B0001A1230F29000DD400B12112D74FF75F0FB
:1017C000F7020E5412112DE4F0A3F022D39002AAD6
:1017D000E09F9002A9E09E400AA3E09FF09002A93A
:1017E000E09EF09002AE1237429002ADE09C400CB9
:1017F000A3E09FF09002ADE09EF08002D28AD390E9
:1018000002ACE09F9002ABE09E400AA3E09FF09004
:1018100002ABE09EF0123753500312374DD39002C3
:10182000B4E09F9002B3E09E400AA3E09FF09002D4
:10183000B3E09EF0D39002B8E09F9002B7E09E40E4
:101840000AA3E09FF09002B7E09EF0D39002BCE0C4
:101850009F9002BBE09E400AA3E09FF09002BBE095
:101860009EF0D39000EEE09F9000EDE09E400AA332
:10187000E09FF09000EDE09EF0D39002B0E09F90EA
:1018800002AFE09E400AA3E09FF09002AFE09EF01E
:101890009002C01237429002BFE09C400AA3E09F32
:1018A000F09002BFE09EF0123761500312374DD323
:1018B0009002B6E09F9002B5E09E400AA3E09FF040
:1018C0009002B5E09EF0D39002BAE09F9002B9E09A
:1018D0009E400AA3E09FF09002B9E09EF0D39002F0
:1018E000BEE09F9002BDE09E400AA3E09FF0900200
:1018F000BDE09EF0D39002B2E09F9002B1E09E4026
:101900000AA3E09FF09002B1E09EF0D39000F0E0D7
:101910009F9000EFE09E400AA3E09FF09000EFE070
:101920009EF012376F500312374DD39000D6E09FD0
:101930009000D5E09E400AA3E09FF09000D5E09E85
:10194000F0D39000D8E09F9000D7E09E400AA3E03B
:101950009FF09000D7E09EF09000A31237B5900062
:10196000A2E09C400AA3E09FF09000A2E09EF0D38A
:101970009000F2E09F9000F1E09E400AA3E09FF00B
:101980009000F1E09EF09000A51237B59000A4E021
:101990009C400AA3E09FF09000A4E09EF012377DE7
:1019A000500312374D12378B500312374D123799AF
:1019B000500312374D1237A7500312374DD3900002
:1019C0003AE09F900039E09E400AA3E09FF090002B
:1019D00039E09EF022900005121139900261E0FF7B
:1019E00075F002A4F58285F083120E95FDACF0909F
:1019F000000B121139EF75F002A4F58285F08322F5
:101A0000900261E090004575F00212112DE0FEA3F6
:101A1000E02275F00290000112112DE0FCA3E022FB
:101A2000900261E0FF2452F582E43400F5832290B5
:101A3000005412112D1210D8900264EEF0A3EFF0B2
:101A400090005A75F00AEB12112DE4F0A3F022FD7C
:101A500075F00212112DEEF0A3EFF022900261E07A
:101A600090005475F00A02112D90000B121139905C
:101A70000261E022900261E0FF25E024BBF582E4F0
:101A80003402F58322900262E0FEA3E0FF2275F0AB
:101A90000AA42425F8E50825E028F8E6FE08E6FF74
:101AA00022E0FF25E024B7F582E43402F58322909A
:101AB0000262E0FFC39402748094802275F00212E7
:101AC000112DECF0A3EDF02225E024B3F582E434EF
:101AD00002F583229000A6EF75F00402112D120E7C
:101AE00095C39DFEE5F09C900262F0A3CEF022909B
:101AF0000262E0FCA3E0FD22EC8DF0020F39EFF072
:101B0000D39002AAE094009002A9E0940022120E61
:101B100095FDACF0900005222427F582E43401F510
:101B2000832212112DE475F001020E54900261E03F
:101B300075F0029000B622EF25E024AFF582E43480
:101B400002F58322C3E50894047480948022120E67
:101B500095C39DFFE5F09CFED3EF22EE8FF0020FC0
:101B600039EE900262F0A3EFF022900005121139D5
:101B700090026122900261E0FF75F00A90005A2203
:101B8000900261E0FF75F0029000FB2290000812C5
:101B90001139900261E0FF229002AB7403F0A3744C
:101BA00020F022E0FCA3E0D39400EC940022E4F5C2
:101BB000F0020F39900261EFF0A37402F0A374BC3D
:101BC000F0E4A3F0A3F0D39000F2E094009000F1D1
:101BD000E09400400912234A1221BE1222D890023A
:101BE000A9E07002A3E0600B900262E4F0A37464C9
:101BF000F0800B900143E0641170037420F09002B8
:101C000061E0FB122205E06020900261E0FA1222FE
:101C1000401210FC0000000075F00AEA9000581213
:101C2000222775F00AEB02254F12223CC083C082A6
:101C30001210E4E8C0E0E9C0E0EAC0E0EBC0E01266
:101C4000234AE01221D6120E95FFAEF0E4FCFDD03F
:101C5000E0FBD0E0FAD0E0F9D0E0F8120F66D082D5
:101C6000D0831210F0900261E0FF900058122243DE
:101C700012230575F00AEF90005C1221EAFF900232
:101C800062E0FCA3E0FDC3EF9DEE9C5003022555EE
:101C900012223CC083C0821210D8ECC0E0EDC0E03C
:101CA000EEC0E0EFC0E0900261E075F00A900058ED
:101CB0001221EAFBEEFAE4F9F8D0E0FFD0E0FED022
:101CC000E0FDD0E0FC12100CD082D0831210F09016
:101CD000000B12234DE01221D6120E952450FFE482
:101CE00035F0FEE4FCFD12223C1210E4D31210B4D5
:101CF00040369002A9E07002A3E0702C900261E0EF
:101D0000FB1222F8E0702112235412230275F00A0C
:101D1000EF90005A1221EAD39403EE9400401D750F
:101D2000F00AEB12220F8014900261E0FB75F00ABA
:101D300012220F900261E01222F8E4F012235412F2
:101D400021F84C700E900264E0FCA3E0FD1221CF5C
:101D50001222D8900261E0FB1222401210FC000017
:101D60000000900058122223900261E075F00A9062
:101D7000005C12222722C0E0C0F0C083C082C0D025
:101D8000E8C0E0D2AFD39002AAE094009002A9E0AC
:101D900094004003123734D39002AEE094019002D5
:101DA000ADE0940040051237348002D28AD390020D
:101DB000ACE094009002ABE0940040031237341280
:101DC0003753500312373BD39002B4E09400900293
:101DD000B3E094004003123734D39002B8E094008B
:101DE0009002B7E094004003123734D39002BCE075
:101DF00094009002BBE094004003123734D390006B
:101E0000EEE094009000EDE094004003123734D3EC
:101E10009002B0E094009002AFE0940040031237CB
:101E200034D39002C0E094019002BFE094004003DC
:101E3000123734123761500312373BD39002B6E0A9
:101E400094009002B5E094004003123734D390021E
:101E5000BAE094009002B9E094004003123734D302
:101E60009002BEE094009002BDE09400400312375F
:101E700034D39002B2E094009002B1E094004003A9
:101E8000123734D39000F0E094009000EFE094001B
:101E9000400312373412376F500312373BD3900090
:101EA000D6E094009000D5E094004003123734D37C
:101EB0009000D8E094009000D7E0940040031237DF
:101EC00034D39000A3E094019000A2E0940040037A
:101ED000123734D39000F2E094009000F1E09400C7
:101EE0004003123734D39000A5E094019000A4E0A1
:101EF0009400400312373412377D500312373B12DF
:101F0000378B500312373B123799500312373B126D
:101F100037A7500312373BD390003AE0940090006B
:101F200039E094004003123734D0E0F8D0D0D082AA
:101F3000D083D0F0D0E0327B017A0179297DFF7C1B
:101F400000123E637B017A0079017D267C01123EFE
:101F5000637B017A0279A87D1A7C00123E63902D82
:101F6000E0E49390012AF090012D7411F0A3742203
:101F7000F0A37433F0902DE2E49390013BF0902DA8
:101F8000E3E49390013DF09002247401F09001731A
:101F90007411F090021A14F090014DF0A37420F027
:101FA0007B017A0179679000051211427A01796B01
:101FB00090000B1211427A01796F900008121142C1
:101FC0007A01795B90000E1211427A0179639000D8
:101FD000111211427A01795F9000141211427A01B4
:101FE00079899000221211427A0179A99000E112B8
:101FF00011427A01793390004C1211427A017944EE
:102000009000491211427A0179539000171211423F
:102010007A01794F90001A1211427A017957900093
:102020001D121142900017121139E475F0C8120FF9
:102030001A90001A121139E475F064120F1A900008
:102040001D121139E475F096120F1A753900753AA0
:10205000C8752100752296900017123E8E75F0C843
:10206000120F3990001A123E8E75F064120F3990DB
:10207000001D123E8E75F096120F39753B00753CAF
:10208000C87523007524967B017A01797990004FF9
:1020900012114290017B7414F0740C123E96A374DA
:1020A00016F0740A123E96A304F0A37404F0A3740D
:1020B00007F09001497410F09002A97407F0A3741E
:1020C000D0F0E49002A8F022900264E0FF9000FFBC
:1020D00075F01212112DE50875F00202112D900213
:1020E00064E025E025E0246CF582E43402F58322E7
:1020F000ED90008375F00212112DE0FEA3E022CBDB
:10210000EFCBEEFAC3E5149BFFE5139AFEE51294BC
:1021100000FDE51194008F148E138D12F51122FD30
:1021200075F00212112DEEF0A3EFF022900264E0A0
:10213000FF25E02466F582E43402F5832290012332
:10214000ED75F00202112D123E3453B2E143B20C90
:10215000758A5043B202902E207401F022900264DE
:10216000E0FFC394027480948022A3F0902E20E4B8
:10217000F053B2E1758A1043B21043B202229002CA
:1021800064E0FD75F00222900081E0FEA3E0FBEE2A
:10219000FAE4F9F822FF75F00212112DE0FCA3E039
:1021A00022EF75F0129000FF22F583E4932420F5CE
:1021B00082E4342EF5832275F00490002D02112D57
:1021C000FDEF12112DECF0A3EDF022ED75F0029071
:1021D000007D22EF9008069390080393223EFE7C38
:1021E000007D03020DC9900264E004F022F582E450
:1021F0003402F583E0FF22E0FEA3E0FFE422900238
:102200006BEFF0902E22E0FF90026FE4F0A3EFF06E
:10221000758A50902E227401F090026BE01238D92A
:102220007404F0A3E4F090026CF090026CE0FFC341
:10223000940D748094804003022B01EFF87E02E439
:10224000088006CEA2E713CE13D8F8FF90026DEEF9
:10225000F0A3EFF04E700790026DF0A304F0902E03
:10226000207401F0902E20E030E2F990026BE0FF44
:10227000902E001238DCE0FCA3E0D394FEEC94072F
:102280004044EF902E101238F2E0FEA3E0FF9002DF
:102290006DE0FCA3E0FDEF2DFFEE3CFEC3EF94FFED
:1022A000EE940790026BE075F002902E10500B1226
:1022B000112DEC8DF0120E54805712112D7407F071
:1022C000A374FFF0804B90026BE0FF1238D9E0FC62
:1022D000A3E0FD90026DE0FAA3E0FBD3ED9BEC9A46
:1022E0004024902E101238FBC083C082C3A3E09B11
:1022F000FF0582D5820215831582E09AD082D083B1
:10230000F0A3EFF0800B90026BE01238D9E4F0A359
:10231000F0902E20E4F0F58D90026CE004F0022A9B
:102320000A90026FA3E0902E22F0758A102290028C
:10233000611222DE4003022C30300545900261E03C
:1023400075F0029000ED1221EA4E9002616019E0F2
:10235000FF25E02439F8764E087620EF25E0242189
:10236000F8761F0876408045E0FF25E02439F876AE
:102370000B0876B8EF25E02421F876090876C480AA
:102380002C1223601221F824C8FDE43CF8EF25E06C
:102390002439C8F608EDF61223601221F82496FDC0
:1023A000E43CF8EF25E02421C8F608EDF612236C92
:1023B0001221D6120E95FDEF25E0243912227AC3A0
:1023C000ED9FE5F09E5024900261E0122205E0604E
:1023D0003212236C1221D6120E95FDEF25E0242136
:1023E00012227AC3ED9FE5F09E40189002611222FE
:1023F00081E0FCA3E04C703A74522F122207740162
:10240000F0802F90021AE06420900261700AE012BE
:102410002283E4F0A3F0800AE0122283E4F0A374A4
:10242000C8F0900261122203E4F0EF1222A8E4F057
:10243000A3F0900261E0122205E06003122378907D
:102440000053E0C454F0FF900052E04F900174F04C
:1024500022900261EFF01223101221EAFFC39404CC
:10246000EE94005027900261E01221F2FD1222B496
:10247000C083C082900261E0FFD082D08312229C90
:1024800075F002EF9000B6122302804D9002667440
:1024900001F0900266E0FFC312232750291222B4F4
:1024A000C083C082900261E0FED082D08375F002CA
:1024B0001221F8FD9000A21222B7EE12229C900287
:1024C00066E004F080CC900261E0FF1221F2FD751D
:1024D000F002EF9000B212229F9002621210FC00F4
:1024E000000000E4900266F012230C1221EAFF9033
:1024F0000266E0FDD3EF9DEE94004034900262123C
:1025000010E4900266E09000A61222B8C083C08258
:10251000900261E0D082D0831221E7FFE4FCFD123B
:102520000F669002621210F0900266E004F080B82C
:102530009002621210D8ECC0E0EDC0E0EEC0E0EF17
:10254000C0E012230C1221EAFBEEFAE4F9F8D0E025
:10255000FFD0E0FED0E0FDD0E0FC12100C90026253
:102560001210F09002620210D875F00E12112DE0D8
:10257000FEA3E0FFE4FCFD9002771210E4120F814D
:10258000900274E075F01CA42275F00E02112D75F6
:10259000F01CA42430F582E43402F58322242CF5C7
:1025A00082E43402F583222428F582E43402F583A0
:1025B000222434F582E43402F583221210F09002D2
:1025C000800210D89002770210D8ED75F005A4248F
:1025D000C2F582E4343EF583E49322EC75F00E02FA
:1025E000112D75F01CA42431F582E43402F5832208
:1025F0002433F582E43402F583229002800210F045
:102600000100AB5674AA7583F5758255A57455758E
:1026100083FA7582AAA574A57583F5758255A522DE
:1026200002030AB00BB60CFF090208FF0D770E0477
:1026300013071410108015001600011292120718CB
:1026400010120F0404040401010111141608120CE5
:102650000A0403010204900264EFF0E4F50CF50BA8
:10266000F50AF509F50CF50BF50AF509F50812233D
:10267000245025900264E012226EE4FCFDE50C2F4C
:10268000FFE50B3EFEED350AFDEC35098F0C8E0B98
:102690008D0AF509050880D6E47B04FAF9F8AF0C39
:1026A000AE0BAD0AAC0912100C900264E075F0029A
:1026B0009000BA122233E4750CA8750B61F50AF587
:1026C00009F5081223245074900264E0FD12226E72
:1026D00075F002ED9000BA1221F8FD123E4DD3EFD5
:1026E000940AEE9400900264E0FF400B75F00290B3
:1026F00000BA1221F8801175F00AA42425F8E50823
:1027000025E028F8E6FC08E6FD75F002EF9000777A
:102710001221EAFFC3ED9FFFEC9EFE3395E0FDFC26
:10272000E50C2FFFE50B3EFEE50A3DFDE5093C8F7C
:102730000C8E0B8D0AF5090508022EA3E47F607E3E
:10274000EAFDFCAB0CAA0BA90AA809D31210B440ED
:102750000BE4750C60750BEAF50AF509AE0BAF0CCE
:1027600022123951123D7F7A0079B61230247A0054
:1027700079A67D101230387A00798D1230247A00D3
:10278000798912302E7A00799112302E7A0079529E
:102790007D021230387F0412313BE4FFEF122294A5
:1027A000505875F002EF1221F5FD9000051221D26C
:1027B0001222D875F002EF1221F5FD1221CF12225C
:1027C000D89000081221D212238E90000E1221D22E
:1027D000746175F0A8120F399000141221D274613F
:1027E00075F0A8120F399000111221D212238E1207
:1027F0002317E4F0A3F00F022F7C7B017A0079BF4E
:102800007D227C00123E637B017A0079547D147C2A
:1028100000123E63E4900130F09001737411F0A354
:10282000F01223789002C1E0700FC39002AAE094E6
:10283000F49002A9E09401500A9002A97401F0A357
:1028400074F4F0227B017D047C00123E63227B0144
:102850007D047C00123E63227B017C00123E6322D9
:10286000FD75F00212112DEEF0A3EFF090000812AA
:10287000113975F002EDA4F58285F083120E95FFF3
:10288000AEF0ED9000C775F00202112D9000081215
:102890001139900264E0FF75F002A4F58285F0839F
:1028A000120E95FDACF09000C7EF75F00212112DDD
:1028B000E0FEA3E0229000FBEF75F00202112D90E4
:1028C000000B121139900264E075F002A4F58285C4
:1028D000F083229000F775F00202112D900264E05F
:1028E000FF24BFF582E43400F583229000DDEF750C
:1028F000F00212112DE422900266E0941490026519
:10290000E0940022900264E024C1F582E43400F5F2
:102910008322EF9409EE9400900264E075F00222A5
:10292000900261E0FFC394027480948022900008BA
:102930000211399000D502112D9000F302112D756E
:10294000F009120E5475F002EF22FFC39430EE949A
:10295000752275F0029000FB02112D900261EFF0DC
:10296000E4900263F0900261E0FF900263E0C39F95
:10297000507912082EE4900262F012228F506312F6
:102980003BE0900262E090009112222F75F002ED80
:1029900090009112112DE0F8A3E0FFED75F00AA46C
:1029A000242DC8F608EFF6ED75F00AA4FF2425F9EA
:1029B000E4FAFBC0E0C0E0E9C0E074272FF9E4903E
:1029C000026712114290026AE4F0A37408F0D0E0AA
:1029D000F9D0E0FAD0E0FB123B44900262E004F050
:1029E0008098900263E004F0023145E4900262F0C6
:1029F00012228F5059122E36900262E0900001127E
:102A0000222F75F002ED9000411221EAFF75F002CD
:102A1000ED90008D1221F8FD123E4D7C007D0512D7
:102A20000DC9900262E0FF90003D12229C75F002F9
:102A3000EF90008D1221EAFF900262E075F00290A3
:102A40000041122233900262E004F00231D022757C
:102A50008D20438D20538D7FE4F5B275B6FF75B799
:102A6000FF75B2A243B20153A8FB538B7F758B1045
:102A7000438B08E58B20E7030080F8538B7F758B31
:102A800011438B08E58B20E7030080F89002CDE529
:102A9000B5F0A3E5B4F0758B01E4F5B27F02FE1248
:102AA0001FAC123DE4E4F58D900020E0FEA3E0FFB2
:102AB0004E700E123ECCFD900020E5F0F0A3EDF03C
:102AC00022123ECCFDC3EF9DFFEE95F0FE123EAB11
:102AD000D3EF940AEE648094804022123ECCFFC370
:102AE000900021E09F900020E095F05006E475F002
:102AF00001800790002074FFF5F0020E5490002032
:102B0000E0FEA3E0FF7C007D0312114BECC0E0ED82
:102B1000C0E0EEC0E0EFC0E0123ECCFFAEF0E4FC5F
:102B2000FDD0E0FBD0E0FAD0E0F9D0E0F8120F667B
:102B3000E47B04FAF9F812100C900020EEF0A3EFF9
:102B4000F022E4900068F0A3F0A37403F0A37420D3
:102B5000F0123CF17B017A0079777D067C00123E11
:102B6000637F02123DA4902E14E0FEA3E0FF7C00E0
:102B70007D0A120DB790004F121139EE8FF0120F2F
:102B80001AE4900260F090026012393D5079123DD3
:102B9000A4900260E090080693FF1238D9E0FCA3ED
:102BA000E0C39405EC94004012902E10123913E00B
:102BB000FEA3E0D394F0EE94074012900260E0FF91
:102BC0009000681238FCE4F0A3F0123DA4902E238C
:102BD000E4F09002601238D31238E21239479000C4
:102BE0004C121139900260E0FD75F00212390CEEC2
:102BF0008FF0120F39ED700612390212393290023D
:102C000060E004F00233669001467410F022C0E0E8
:102C1000C083C082C0D075D018D2AFE5DB30E422CB
:102C2000D203C202E5DB30E114123E79E0F5DFEFBA
:102C300064077069D28A900130F00234A0C20102A8
:102C400034A3E5DB30E52C900219E064AA70177517
:102C50008A10F5DAC2AFF5B2F5A8F5A9F58B758E35
:102C600001758DC080FED200300204C2028054C2C1
:102C7000038050C202E5DB30E125E5DB30E04412A1
:102C80003E79E0F5DFEF24F9600C24FA60042402B9
:102C9000700BD2048007D28A900130E4F0802120AA
:102CA000010A7815A6DFD201D2028017123E79E51B
:102CB000DFF0EF642470099002AB04F0A374F4F029
:102CC00078150675DBFFD0D0D082D083D0E032E417
:102CD000FFFD9002ADE07004A3E06401701190016B
:102CE00030E06004D28AE4F0E49002ADF0A3F0900A
:102CF0000052E0600E90014DE064106006EF442049
:102D0000FF8004EF4410FF900053E0600E90014DEF
:102D1000E064106006EF4402FF8004EF4401FF907E
:102D20000173EFF0900000E0FC6F605B900173E0D6
:102D3000FFEC6FFE900000EFF0208A1BD28A900219
:102D4000ADE4F0A37403F09002AEE024FFFB900228
:102D5000ADE034FF4B70F0900130E07007900173EC
:102D6000E05E8013EEF4FF900000E05FFDEEFF9068
:102D70000173E05FFFED4F900130F09002AD7403FE
:102D8000F0A374E8F0C28A22900264E0C454F024F4
:102D90008EF582E43402F58322EBC454F0248CF5E2
:102DA00082E43402F583E4F0A3F0900264E0FFC40F
:102DB00054F02490F582E43402F583E4F0A3F0EFBC
:102DC000C454F02495F582E43402F5832290026421
:102DD000E0FBC454F02488F582E43402F58322E059
:102DE000FDA3E0900265CDF0A3EDF0EFC454F02414
:102DF00094F582E43402F58322900264E0C454F036
:102E00002492F582E43402F58322C454F02496F52A
:102E100082E43402F58322900265E0FEA3E0FF2203
:102E2000C454F0248CF582E43402F58322900267C6
:102E30000210D89002670210E4787FE4F6D8FD759E
:102E4000813C023663020000023AEFE493A3F8E407
:102E500093A34003F68001F208DFF48029E493A3F2
:102E6000F85407240CC8C333C4540F4420C883400B
:102E700004F456800146F6DFE4800B0102040810DA
:102E8000204080903D27E47E019360BCA3FF543F27
:102E900030E509541FFEE493A360010ECF54C02512
:102EA000E060A840B8E493A3FAE493A3F8E493A302
:102EB000C8C582C8CAC583CAF0A3C8C582C8CAC566
:102EC00083CADFE9DEE780BE900149E06420700339
:102ED0007421F0900049121139120E6A641045F005
:102EE0007003123C6C90012AE064AA7003123A3F0E
:102EF000123B95200608900143E06410700D90018C
:102F0000437411F0C206E49002A8F0900224E0603D
:102F100006E4F09002A8F09000A2E07004A3E06440
:102F200001600C9000A4E07004A3E064017015E45B
:102F30009000A2F0A3F0A3F0A3F09000F1F0A3F0B2
:102F40009002A8F030000CC2009002AB7401F0A314
:102F500074F4F02274FFF5F0020E54E475F00102EF
:102F60000E54EF2401FDE43EFCD3E09D22EE8FF0F1
:102F7000020E54C390005DE094BC90005CE09402AB
:102F800022C3900067E094BC900066E0940222C3E4
:102F90009000D4E094649000D3E0940022C39002A7
:102FA00097E094B8900296E0940B22C3900291E0CF
:102FB00094F4900290E0940122C39002A7E094B8A8
:102FC0009002A6E0940B22C39002A1E094F4900238
:102FD000A0E0940122EF2401FDE43EFCD3E09D2219
:102FE00020040302384A30050302384AC204E49040
:102FF0000261F090026112393D5065E0FE1238D551
:10300000E0FCA3E0FDEE12391AECF0A3EDF0123D66
:10301000A49002611238D31238E21239479002614B
:10302000E0FD123926EEF0A3EFF0ED123926E0FEB6
:10303000A3E0FF123902EE8FF0120F39ED70061285
:103040003902123932ED12391AE0FEA3E0FFED1217
:1030500038D5EEF0A3EFF0900261E004F00237D330
:103060009002AB7403F0A37420F022208A0302388C
:10307000D29002A9E07002A3E070779000A2E07005
:1030800002A3E0706D9000A4E07002A3E07063F50D
:10309000B2758D20438D20758D8043A808D2AFF581
:1030A0008B900039E0FEA3E0FF4E6005758E5080E6
:1030B00003758EFE20002F20032CE5DB54047026C0
:1030C000758A84200320E5DB5404701AF586758721
:1030D00003000000758601EF4E60047F5080027F80
:1030E000FE7E00121FAC758B01758A1053A8F71273
:1030F0003DE422E0FB90080693902E1075F002024A
:10310000112DE0FEA3E0FF7C007D0A120DB7EB90CD
:10311000006875F00202112D9000A2EF75F0020216
:10312000112D90004C12113975F002EDA4F5828535
:10313000F0832275F002EF02112D25E02466F5825E
:10314000E43402F5832225E02462F582E43402F5BA
:103150008322120E95D39400E5F0940022E0FFC381
:1031600094027480948022E0FCA3E02FFFEC3EFEEA
:10317000227B017A0279287D387C00123E63E4FDCF
:10318000EDC39402748094805062E4900260F090E9
:103190000260E0FFC3940274809480504B122DAA09
:1031A000FEED75F01CA4122DD0EF122DBCEEF01226
:1031B0002DAA04F87E007401088005C333CE33CEF7
:1031C000D8F9FFED75F01CA4122D91C083C0829038
:1031D0000260E0D082D083122D69EEF0A3EFF09070
:1031E0000260E004F002396F0D02396022E4FEEE65
:1031F000C3940774809480502FEE25E025E0241BB3
:10320000F582E4342EF583E5822FF582E43583F5EB
:1032100083E493FDEE25E025E0241AF582E4342EC4
:10322000122989EDF00E80C7EFFD7C00701775F054
:1032300002EF90006812112DE0FAA3E04A700690A8
:103240002E217412F0ED64014C701375F002EF90B2
:1032500000681228D74E7006902E217412F022902A
:1032600002607408F0A3E4F0A3743FF0A374DFF0ED
:10327000E4FDFCF9123E8700900260E0FEA3E02D21
:10328000F582EE3CF583E493FF69F90DBD00010C76
:10329000BC37E5BDDFE2900262E0FEA3E0F5828E7E
:1032A00083E493FFE96F700790012A04F08005E43E
:1032B00090012AF0123E8700227F0112313B121A40
:1032C000E1E4900260F0900260122292503B123CC6
:1032D000AF900260E0FF122C31EEFCEFFD90000594
:1032E000121139900260E0FF1221D61222D8121179
:1032F00078900260E0FF122B0E900260E0FF122334
:1033000094900260E004F080BD1234AF0237C01226
:103310003E1A53A87F123E00122717123DC812080A
:103320000E43A880E4F58D1236A89002A8E0146040
:103330001214601A240270EC1233229002A8740155
:10334000F080E1122F419002A87402F080D6123A68
:1033500099900149E0FF642060CAEF642160C512C2
:10336000384B80C090026C121142900267121139E2
:1033700090026F12114290026AE07002A3E0603482
:1033800090026F121139120D8CFF90026C121139DC
:10339000EF120DA590026DE475F001120E5490022B
:1033A00070E475F001120E5490026A74FFF5F01289
:1033B0000E5480C22290013CE0FF9002C2E06F6098
:1033C0000CEFF09002BF7402F0A37458F09002BFAB
:1033D000E07004A3E0640170269002C2E0FF7E006A
:1033E00064107002D205EF64204E7002C205900195
:1033F0004EE064106002D206E49002BFF0A3F02217
:10340000EFFB90008D1221E7FF75F002EB90008931
:1034100012223375F002EB9000911221F8FDECC0FE
:10342000E0EDC0E075F002EB9000891221EAFFE4C4
:10343000FCFD9002771210F0EB90027BF0D0E0FDE3
:10344000D0E0FC7F010214BBC2D5E830E70FB2D553
:10345000E4C39BFBE49AFAE499F9E498F8EC30E7CA
:1034600017B2D5123C5E12100CE4C39BFBE49AFA2F
:10347000E499F9E498F8800312100C30D50DE4C3F8
:103480009FFFE49EFEE49DFDE49CFC22E49002602C
:10349000F0A3F0123E8700122DE475EA81E4F5F600
:1034A000F5F475F308F5F275EB0700E5EC30E7FB92
:1034B000AFF3EFFEADF2EDFF900049121139EE8F40
:1034C000F0120F1AE4F5EC75EB30123E87002290F3
:1034D0000077123913E0FCA3E0243CFDEC34F6FC49
:1034E00075F002EF90008D12112DE0FAA3E0C39D5C
:1034F000EA9C50151238F8E0FCA3E04C7012123828
:10350000F87401F0A374F4F0221238F8E4F0A3F098
:1035100022E4FFEFC3940D748094805021EF25E0E6
:103520002401F582E4342EF583E493FEEF25E024B4
:1035300000F582E4342E122989EEF00F80D5902F09
:1035400056E0902E2BF022C1034202CF0503C104A6
:103550004102C300C1054102C200C101011500C101
:1035600000C102420127000041000011C1064302D0
:10357000CA0102CD00900264EFF0E075F010A424BF
:1035800088F9740235F0FA7B017D107C00123E63ED
:10359000900264E01235EA740BF0A374B8F0227A5A
:1035A00000797D123D9A7A007983123D9A7B017AE7
:1035B0000079FF7D247C00023E637B017D067C0058
:1035C000123E632290026AEFF0123E3490026AE0EB
:1035D000FF1239CD90026AE090080693FF1229DEAF
:1035E00090026AE0FF023EB7E4F5DA75DA4043DAAA
:1035F0002075D74075D64075DA5843A80275B802D1
:1036000075F80222E5B254016006E5A85410700F67
:1036100075B29275B6F9E4F5B743B20143A810222A
:10362000758A10538AEF758601758F02E4F5AB75C4
:10363000AC0F75913FF592D28A2290407F43EC40C7
:10364000E493643B700300800753A87F000080FC74
:1036500053ECBF22EFF87401088002C333D8FC4258
:10366000AB1229B3F4529152935391DF22D3EF9DC1
:10367000EE9C4007EF9DFFEE9CFE22C3ED9FFFEC0A
:103680009EFE22ED4C6011E4120DA50429F9E43AE6
:10369000FAED1D70EE1C80EB227815E6FF2429F56B
:1036A00082E43401F58322758A10538AEF221211C5
:1036B00039900002E422A3F0A37407F022009600E0
:1036C000960701F4009600960701F4EE30E707C371
:1036D000E49FFFE49EFE221229B342914288439167
:1036E000202204001E001901001900199002CA12BC
:1036F0001139020E6A000000000000000000000006
:1037000000000000000000000000000000000000B9
:1037100000000000000000000000000000000000A9
:103720000000000000000000000000000000000099
:103730000000000000000000000000000000000089
:103740000000000000000000000000000000000079
:103750000000000000000000000000000000000069
:103760000000000000000000000000000000000059
:103770000000000000000000000000000000000049
:103780000000000000000000000000000000000039
:103790000000000000000000000000000000000029
:1037A0000000000000000000000000000000000019
:1037B0000000000000000000000000000000000009
:1037C00000000000000000000000000000000000F9
:1037D00000000000000000000000000000000000E9
:1037E00000000000000000000000000000000000D9
:1037F00000000000000000000000000000000018B1
:1038000000000000000000000000000000000000B8
:1038100000000000000000000000000000000000A8
:00000001FF
