:1000000000420000000400005EE800000000000064
:1000100000000000000000000000000000000000E0
:10002000022B939001E87401F0222202275C023433
:10003000CB0000020816D2AF32000002081ED2AF79
:10004000320000021BBED2AF320000020826E4904C
:1000500001C8F0A3F012225D90018C12101E122F25
:10006000D5E4FCFD120EA090018C12102A90019094
:10007000E475F001120E08C3900193E094649001BE
:1000800092E094005003020AD490018C121012ECFA
:10009000C0E0EDC0E0EEC0E0EFC0E0900190E0FE17
:1000A000A3E0FBEEFAE4F9F8D0E0FFD0E0FED0E008
:1000B000FDD0E0FC120F4690018C12102A90018CAA
:1000C00012101290018AEEF0A3EFF0A31210360086
:1000D0000000009001901230029001E9E07002A34C
:1000E000E06003020AD4900194E07002A3E0600390
:1000F000020AD490013FE0700302096E900186E08D
:100100007002A3E0701D90018AE0FFA3E0900186D9
:10011000122FB91230149001967403F0A374E8F012
:1001200002097E90018AE0FEA3E0FFC3900187E010
:100130009FFF900186E09EFE1235559001B012108F
:1001400073EE8FF0120E81900184E0701D9001B06B
:10015000122FC1C39406E5F094005008122FBE126E
:10016000301480069001847401F090018AE0FEA3AF
:10017000E0FFD3900187E09F900186E09E4007E476
:10018000900185F080189001857401F08010900135
:1001900086123002900184F0900198123003900191
:1001A00084E07003020AD4D3900189E094009001A6
:1001B00088E094005003020AD4122FBEFF900188F9
:1001C000E0FCA3E0FDC3EF9DFFE5F09CFE1235557A
:1001D0009001CAEEF0A3EFF0A3E4F074C8122FBCB4
:1001E000D39494E5F09411400A9001CC7403F0A3E9
:1001F0007420F09001CAE0FFA3E09001B4122FB97F
:10020000D3122FC8400CD39001CBE09464122FEC92
:100210005013122FBE122FC750369001CBE094C856
:10022000122FEC402BE4900184F0900186F0122F05
:10023000BC122FC79001945008E4F0A374C8F0805A
:10024000077401F0A3742CF0E4900185F0020AD445
:10025000122FBEFFD3122FC9404AD3122FE64044BB
:1002600090010812107374FF75F0F9120E49900195
:100270009AE475F007120E08C3900199E094E89093
:100280000198E09403501DA3E09407900198E09436
:1002900000400A74FF75F0F9120E088007E490011F
:1002A00098F0A3F0122FBE122FC75048122FE6402D
:1002B00043900108121073E475F007120E49900183
:1002C00098E475F007120E08C390019BE0945890D3
:1002D000019AE09402501DA3E0940790019AE094E3
:1002E00000400A74FF75F0F9120E088007E49001CF
:1002F0009AF0A3F090013FE060179001BEE0700219
:10030000A3E0700D122FDE9001BECFF0A3EFF080BE
:100310001F90013FE07019122FBEC39496E5F09430
:1003200000500DE49001BEF0A3F09001C2F0A3F0E4
:100330009001BEE07002A3E07003020BD8122FD52B
:10034000C39001BFE09FFF9001BEE09EFE123555B5
:100350009001C8EEF0A3EFF0122FD5D39001BFE0CB
:100360009F9001BEE09E400D9001C8E0FFA3E09089
:1003700001C0CF801A9001C8E0FEA3E0FFD394C86B
:10038000EE9400400EEE13FEEF13FF9001C0EEF06E
:10039000A3EFF0D39001C1E0940A9001C0E0940073
:1003A0004056122FBED39488E5F094134023900159
:1003B000C3E094DC9001C2E09405503C9001C1E0A0
:1003C00025E0FE9001C0E0339001C2F0A3CEF080A2
:1003D00027122FBED394E8E5F09403401B9001C38D
:1003E000E094F49001C2E09401500D9001C0E0FF50
:1003F000A3E0A3CFF0A3EFF09001FDE06401600360
:10040000020CC990013FE06003020CB69001A6E027
:100410007002A3E0700B122FDE9001A6CFF0A3EFC5
:10042000F0122FD5C39001A5E09F9001A4E09E504B
:1004300004EE12300C9001AAE07002A3E0705A1290
:100440002FD5D312301F40129001A7E09FFF9001DB
:10045000A6E09E9001A8F0A3EFF0D39001A9E0944C
:10046000049001A8E094004008122FF37464F08017
:1004700015D39001A9E094069001A8E094004006ED
:10048000122FF374C8F09001AA7403F0A374E8F07B
:10049000122FDE9001A6CF800D122FD5C312301F70
:1004A00050089001A6EEF0A3EFF09001ACE07002CE
:1004B000A3E07012122FDE12300BE49001AEF0A315
:1004C000F09001C480209001AEE0FFA3E09001C451
:1004D000CFF0A3EFF022122FDE12300BE49001C414
:1004E000F0A3F09001AEF0A3F022E709F608DFFADE
:1004F0008046E709F208DFFA803E88828C83E709AC
:10050000F0A3DFFA8032E309F608DFFA8078E30926
:10051000F208DFFA807088828C83E309F0A3DFFAA7
:10052000806489828A83E0A3F608DFFA8058898292
:100530008A83E0A3F208DFFA804C80D280FA80C67A
:1005400080D4806980F28033801080A680EA809A0F
:1005500080A880DA80E280CA803389828A83ECFABC
:10056000E493A3C8C582C8CCC583CCF0A3C8C58218
:10057000C8CCC583CCDFE9DEE7800D89828A83E4BD
:1005800093A3F608DFF9ECFAA9F0EDFB2289828A41
:1005900083ECFAE0A3C8C582C8CCC583CCF0A3C85D
:1005A000C582C8CCC583CCDFEADEE880DB89828ADD
:1005B00083E493A3F208DFF980CC88F0EF60010EAA
:1005C0004E60C388F0ED2402B4040050B9F582EB0C
:1005D0002402B4040050AF2323458223900D1A73E4
:1005E000EF8DF0A4A8F0CF8CF0A428CE8DF0A42E2F
:1005F000FE22C2D5EC30E709B2D5E4C39DFDE49CF0
:10060000FCEE30E715B2D5E4C39FFFE49EFE121066
:10061000DEC3E49DFDE49CFC80031210DE30D507B0
:10062000C3E49FFFE49EFE22C5F0F8A3E028F0C5D6
:10063000F0F8E582158270021583E038F022BB01E4
:100640000A89828A83E0F5F0A3E022500687F00948
:10065000E71922BBFE07E3F5F009E3192289828A34
:1006600083E493F5F074019322BB010789828A83A6
:10067000020E08500B09C5F027F7C5F01937F7220D
:10068000BBFE0D09F8E325F0F3C5F019E338F322BA
:10069000F889828A8374019325F0C5F0F8E49338D1
:1006A00022BB010A89828A83F0E5F0A3F02250067A
:1006B000F709A7F01922BBFE06F3E5F009F31922AA
:1006C000EF2BFFEE3AFEED39FDEC38FC22C3EF9B39
:1006D000FFEE9AFEED99FDEC98FC22E88FF0A4CC99
:1006E0008BF0A42CFCE98EF0A42CFC8AF0EDA42C59
:1006F000FCEA8EF0A4CDA8F08BF0A42DCC3825F028
:10070000FDE98FF0A42CCD35F0FCEB8EF0A4FEA912
:10071000F0EB8FF0A4CFC5F02ECD39FEE43CFCEA1F
:10072000A42DCE35F0FDE43CFC2275F00875820066
:10073000EF2FFFEE33FECD33CDCC33CCC58233C5A6
:10074000829BED9AEC99E58298400CF582EE9BFE37
:10075000ED9AFDEC99FC0FD5F0D6E4CEFBE4CDFA92
:10076000E4CCF9A88222B800C1B90059BA002DEC36
:100770008BF084CFCECDFCE5F0CBF97818EF2FFFCE
:10078000EE33FEED33FDEC33FCEB33FB10D7039976
:100790004004EB99FB0FD8E5E4F9FA227818EF2F23
:1007A000FFEE33FEED33FDEC33FCC933C910D70542
:1007B0009BE99A4007EC9BFCE99AF90FD8E0E4C961
:1007C000FAE4CCFB2275F010EF2FFFEE33FEED3391
:1007D000FDCC33CCC833C810D7079BEC9AE89940BE
:1007E0000AED9BFDEC9AFCE899F80FD5F0DAE4CD20
:1007F000FBE4CCFAE4C8F922EB9FF5F0EA9E42F064
:10080000E99D42F0EC6480C864809845F022EB9F3B
:10081000F5F0EA9E42F0E99D42F0E89C45F022E8BE
:10082000600FECC313FCED13FDEE13FEEF13FFD8C6
:10083000F122E0FCA3E0FDA3E0FEA3E0FF22E0F84C
:10084000A3E0F9A3E0FAA3E0FB22ECF0A3EDF0A310
:10085000EEF0A3EFF022A8828583F0D083D082123D
:10086000104D12104D12104D12104DE473E493A36D
:10087000C583C5F0C583C8C582C8F0A3C583C5F0CC
:10088000C583C8C582C822A42582F582E5F03583D8
:10089000F58322E0FBA3E0FAA3E0F922EBF0A3EA60
:1008A000F0A3E9F022EC8EF0A4CCC5F0CCCDF8EFAB
:1008B000A4CEC5F02DFDE43CFCE8A42EC8C5F03D57
:1008C000FDE43CFCEFA4FFE5F028FEE43DFDE43C44
:1008D000FC22EF4E6012EF60010EEDBB010B89822E
:1008E0008A83F0A3DFFCDEFA2289F05007F709DFE4
:1008F000FCA9F022BBFEFCF309DFFCA9F022BC003E
:100900000BBE0029EF8DF084FFADF022E4CCF8752A
:10091000F008EF2FFFEE33FEEC33FCEE9DEC984039
:1009200005FCEE9DFE0FD5F0E9E4CEFD22EDF8F5D5
:10093000F0EE8420D21CFEADF075F008EF2FFFED35
:1009400033FD4007985006D5F0F222C398FD0FD52D
:10095000F0EA22122B6660030211BC7F01122F44C1
:10096000122B6D902E20E030E2F99001FDE025E0A1
:10097000246FF582E43435122B299001CD122B58C7
:100980007F0112353890015FE0FEA3E0FF4E700852
:100990009001CD122B80801E7C007D03120DC09033
:1009A00001CEE02FFF9001CDE03EFE7802EFCEC3F6
:1009B00013CE13D8F9FFEE122B214E7003122B1910
:1009C000122B1990015BE07002A3E0700F90015FA1
:1009D000E0FFA3E090015BCFF0A3EFF09001CF1216
:1009E000103600002710E4FF122F44E49001CAF0F3
:1009F0009001CAE0FF7E00C3940474809480400399
:100A00000212F0EF2401FFEE33FE122B3BFDD3EF79
:100A10009D7480F86E9840030212E7E4FF122B6D7C
:100A2000902E20E030E2F99001FDE025E0246EF503
:100A300082E43435122B299001CB122B58FF12354A
:100A400038122B66702B90015FE0FEA3E0FFC3908D
:100A5000015CE09FFF90015BE09E9001CB8FF01264
:100A60000E089001CBE0FFA3E0900161CFF0A3EF6F
:100A7000F09001CBE0FFA3E09001BCCFF0A3EFF03A
:100A800090015DE0FEA3E0FF4E70089001BC122BC8
:100A900080801E7C007D03120DC09001BDE02FFF01
:100AA0009001BCE03EFE7802EFCEC313CE13D8F91E
:100AB000FF90015DEEF0FAA3EFF0FB122B11FFE4C3
:100AC000FCFD9001D412102AEBFFEAFEE4FCFD903D
:100AD00001D812102AE4FF121D31900165EEF0A337
:100AE000EFF0122B669001CF700B122B0E2400FF3B
:100AF000EE34F08009122B0E2400FFEE34E8FE33B2
:100B000095E0FDFC122B8A9001CAE004F00211D09E
:100B1000902E23E4F09001CF12101EE8C0E0E9C04F
:100B2000E0EAC0E0EBC0E0122B3BFFFBE4FAF9F88F
:100B3000122B7A1232EFD0E0FBD0E0FAD0E0F9D0FD
:100B4000E0F8122B8AE47F507EC3FDFC9001CF12A7
:100B5000101ED3120FD8400A9001CF121036000099
:100B6000C350122B7AEC33500A9001CF121036008A
:100B700000000090016BE0FAA3E0FB4A7005122B25
:100B80007A80227E007F02EBFDEAFC121085ECF8F1
:100B9000EDF9EEFAEFFB122B7A120EA0E47B03FACA
:100BA000F9F8120F4690016BEEF0A3EFF0900159A7
:100BB000E07002A3E0700F90016BE0FFA3E09001F2
:100BC00059CFF0A3EFF0900126122B0EFFE4FCFDAD
:100BD000120EA090012612102A90012AE475F0014D
:100BE000120E0890012AE0FEA3E0FFD3940AEE94CF
:100BF000004029EFFBEEFAE4F9F8900126121012FA
:100C0000120F46900124EEF0A3EFF0E490012AF0D9
:100C1000A3F09001261210360000000090012CE095
:100C20007002A3E0703A900124E0FEA3E0FFC390BD
:100C30000166E09FFF900165E09EFE123555900130
:100C400022EEF0A3EFF0D39406EE94004012900150
:100C50002C7403F0A374E8F0A3E475F001120E08FD
:100C600090016BE0FEA3E0FF221229D2400302179D
:100C70003A9001081229A5FDE5F0FC1229A2FFAE69
:100C8000F0D39DEE9C402E122A3BD3EF9430EE948D
:100C900075400C9001C87475F0A37430F080101288
:100CA0000E1EC39DFEE5F09C9001C8F0A3CEF0E4BB
:100CB0009001B68060120E1EFFAEF0C3ED9FFBECFC
:100CC0009EFAD3EB9410EA9427400C9001C8742745
:100CD000F0A37410F08009C3ED9FFFEC9E1229F879
:100CE0009001C8E0FFA3E09001B6CFF0A3EFF03091
:100CF0000718D3E0942C9001B6E0940140139001C2
:100D0000B87427F0A37410F08007E49001B8F0A342
:100D1000F0E49001C8F0A3F090013FE0604A12298E
:100D2000ABD39400EE648094804014D3EF9509EE29
:100D30009508400B9001EFE4F0A37464F0801BD39E
:100D40009001F0E094009001EFE09400400C9001DD
:100D5000051229A5FFE5F01229F8D2049001F574D7
:100D60000FF0A374A0F0800F9001F37403F0A3744C
:100D7000E8F0E4FF1233F2D39001C9E0940090014F
:100D8000C8E064809480500302170FE0FEA3E0FFE8
:100D90009001051229991229ABEE3395E0FDFCE490
:100DA0007BB87A88F9F8C3120FD8500A9001C8743A
:100DB00088F0A374B8F0D39001F2E094009001F1B0
:100DC000E0940050089000F1E06420702AE50924C6
:100DD0000AFFE43508FE9001C8E0FCA3E0FDC39FD4
:100DE000EC9E5013ED9400EC6480948040381229FE
:100DF000AB7C007D0A802930072C90013FE0701108
:100E00001229ABC39515EE9514501B7C027DBC8056
:100E10000F1229ABC39509EE9508500A7C027DBCE0
:100E2000120DD21229F790013FE070030216949040
:100E300001F3E07002A3E070149001C8E0FEA3E0AB
:100E4000FDEEFCE4FF12173B1229F780351229ABA7
:100E5000C3900135E09FFF900134E09EFE123555AE
:100E6000D3EF9428EE648094804017D39001F4E08F
:100E700094C89001F3E09400400874FF75F09C1250
:100E80000E08900134E0FEA3E0FF7C007D0F1210FD
:100E900085ECF8EDF9EEFAEFFB1229ABEE3395E0B5
:100EA000FDFC120EA0E47B10FAF9F8120F46900137
:100EB00034EE800B9001C8E0FFA3E0900134CFF046
:100EC000A3EFF0900134E0FEA3E0FFD39405EE948D
:100ED00000400EEF9410EE940050069001C8EE8092
:100EE00016900130E0FEA3E0FF900135E02FFF9067
:100EF0000134E03E9001C8F0A3EFF0D39001C9E0C7
:100F000094309001C8E0648094F540077475F0A3B4
:100F10007430F0E5DB540470411229AB90010E12DD
:100F200029999001C9E024A8FF9001C8E08022E53A
:100F3000DB540470251229C6900130E0FEA3E0FFC7
:100F400090010E12299990010E1229A524A8FFE5FF
:100F5000F03461FE90010B122999229001CAEFF042
:100F6000A3ECF0A3EDF0EF122894E0FEA3E0C39D04
:100F7000FFEE9CFE123555D3EF9428EE64809480EA
:100F8000401C12286412103600000000122830E4C1
:100F9000F01228AE122890EEF0A3EFF0803B12285A
:100FA0001F1228C440339001CBE0FCA3E0FDD3EF37
:100FB0009DEE9C400B9001CAE0122857E04401F0DE
:100FC0009001CAE0FF122823E0FAA3E0C39DEA9C47
:100FD0005007122856E04402F09001CAE012286936
:100FE000C083C08212101E1228AEE4FCFD120EA0B7
:100FF000D082D08312102A9001CAE0FF1228B7E4F1
:1010000075F001120E08EF75F007A42477F582E45D
:101010003435F583E493FE740193FF9001CAE0FD3B
:10102000C454F0241AF582E43402F583E0FAA3E014
:10103000C39FEA9E50030219A7ED1228B7E0FEA352
:10104000E0FFFBEEFAE4F9F89001CAE01228691219
:101050001012120F469001CD12102A122819E0FC2E
:10106000A3E0C39FFFEC9EFE1235559001D1EEF038
:10107000A3EFF09001CAE0FD75F007A42472F58299
:10108000E43435F583C37401939FE4939E401FEDD0
:10109000122823E0FEA3E04E60149001CAE0FB1288
:1010A00028A1E0FEA3E0C394B8EE940B501E90017B
:1010B000CAE0FF122823E0FCA3E04C7008EF1228DE
:1010C000A1E4F0A3F0122819EE02194EEB6003021E
:1010D00019549001D3F09001D1E0FEA3E0FFD39426
:1010E00050EE94004006A37408F080329001CAE0EC
:1010F000122857E064036026D3EF943CEE9400403E
:10110000089001D37404F08015D39001D2E09428A4
:101110009001D1E0940040069001D37402F01228AF
:101120001FE0FEA3E0FFE4FCFD1228D0D3120FEE77
:1011300040119001D3E0FF12281FE48FF0120E0837
:1011400002198AD39001D2E094509001D1E094002A
:10115000405812281FC083C082E0FEA3E0FF900128
:10116000D3E0FDC3EF9DFFEE9400D082D083F0A3C7
:10117000EFF0803612281FE0FEA3E0FF4E700D1244
:1011800028D0EBFFEAFEE9FDE8FC80167C007D0735
:101190001210851228D0120EA0E47B08FAF9F8127A
:1011A0000F4612281FEEF0A3EFF01228641210363B
:1011B00000000000122830E4F09001CD121012124D
:1011C0002890EEF0A3EFF012281F1228C4405F9081
:1011D00001CCE09FFF9001CBE09EFE1235559001BF
:1011E000CAE075F007A42474F582E43435F583D39E
:1011F0007401939FE4939E400F9001CAE0FF122870
:1012000023122876E4F080269001CAE0FF75F007EB
:10121000A42476F582E43435F583E493FE12288223
:10122000E0C39E500912281F122876E004F012280D
:10123000AE22D39001EAE09F9001E9E09E400AA32C
:10124000E09FF09001E9E09EF09001EE12310590F0
:1012500001EDE09C400CA3E09FF09001EDE09EF0DA
:101260008002D28AD39001ECE09F9001EBE09E4097
:101270000AA3E09FF09001EBE09EF01231175003BB
:1012800012314FD39001F0E09F9001EFE09E400AB1
:10129000A3E09FF09001EFE09EF0D39001F2E09F79
:1012A0009001F1E09E400AA3E09FF09001F1E09EE2
:1012B000F0D39001F8E09F9001F7E09E400AA3E090
:1012C0009FF09001F7E09EF0D39001F4E09F900131
:1012D000F3E09E400AA3E09FF09001F3E09EF0D37C
:1012E0009001F6E09F9001F5E09E400AA3E09FF098
:1012F0009001F5E09EF0D39001B9E09F9001B8E035
:101300009E400AA3E09FF09001B8E09EF09001FAA1
:101310001231059001F9E09C400AA3E09FF0900192
:10132000F9E09EF0123125500312314FD390019510
:10133000E09F900194E09E400AA3E09FF09001940A
:10134000E09EF0900197123155900196E09C400A82
:10135000A3E09FF0900196E09EF0D39001ABE09F58
:101360009001AAE09E400AA3E09FF09001AAE09EAF
:10137000F0D39001ADE09F9001ACE09E400AA3E065
:101380009FF09001ACE09EF09001721231559001F7
:1013900071E09C400AA3E09FF0900171E09EF0D3C1
:1013A0009001BBE09F9001BAE09E400AA3E09FF04D
:1013B0009001BAE09EF0123133500312314F1231D6
:1013C00041500312314FD390012DE09F90012CE04A
:1013D0009E400AA3E09FF090012CE09EF022C0E026
:1013E000C0F0C083C082C0D0E8C0E0D2AFD39001CB
:1013F000EAE094009001E9E0940040031230FED34B
:101400009001EEE094019001EDE09400400512306F
:10141000FE8002D28AD39001ECE094009001EBE0D0
:10142000940040031230FE1231175003123110D3D2
:101430009001F0E094009001EFE09400400312303E
:10144000FED39001F2E094009001F1E0940040039B
:101450001230FED39001F8E094009001F7E0940080
:1014600040031230FED39001F4E094009001F3E0C9
:10147000940040031230FED39001F6E094009001F6
:10148000F5E0940040031230FED39001B9E09400DF
:101490009001B8E0940040031230FED39001FAE0CE
:1014A00094019001F9E0940040031230FE123125BE
:1014B0005003123110D3900195E09400900194E014
:1014C000940040031230FED3900197E09401900104
:1014D00096E0940040031230FED39001ABE09400FC
:1014E0009001AAE0940040031230FED39001ADE0D9
:1014F00094009001ACE0940040031230FED39001C0
:1015000072E09401900171E0940040031230FED328
:101510009001BBE094009001BAE0940040031230C7
:10152000FE12313350031231101231415003123187
:1015300010D390012DE0940090012CE09400400322
:101540001230FED0E0F8D0D0D082D083D0F0D0E0FE
:10155000329001D3EFF01226D5E070279001D3E04E
:1015600012270C121012E4FBFAF9F8C3120FEE6006
:10157000129001D3E012272A121012E4F8C3120FBE
:10158000EE705712273E9001D4121E6DEEF0A3EFBD
:10159000F0ED1226D5E06029ED75F00AA42467F578
:1015A00082E43435F583C083C0829001FDE0D082AF
:1015B000D0831226E3400A9001D3E01226D57405A9
:1015C000F012268AE0D3940074809480400612269C
:1015D000D4E014F09001D8021E69122707121012ED
:1015E0009001DC12102A1227291210129001E01229
:1015F000102A9001D3E012271B121012EFF91227C4
:1016000047E9F8120FFFEFFBEEFAEDF9ECF81227BD
:1016100047120EAD9001E412102A9001DC12101254
:101620009001D812101E120EA09001E412101E128A
:101630000EA0122738122707122744122729122733
:101640004412274D12101E120F461227389001E047
:10165000121E6DEEF0A3EFF0ED75F00AA42463F511
:1016600082E43435F583C083C0829001FDE0D082EE
:10167000D0831226E3400F12268A7405F012273E0B
:101680009001E012102A9001E012101222EFFBEEFE
:10169000FA121012C3EF9BFFEE9AFE12355590011D
:1016A000D3E0FD75F013A42408F582E43402F58339
:1016B0002290017D122A429404EE94005022122AB4
:1016C0000BEF25E0FFEE33FE74752FF58274013EBB
:1016D000F583ECF0A3EDF090017D122A1F021F5C50
:1016E0009001CC7401F09001CCE0FFC31229E350CB
:1016F00021EF1229EAFCA3E0FDEF25E02473F58237
:10170000E43401F583ECF0A3EDF09001CCE004F0BB
:1017100080D490013FE0600280531229A2FF122A78
:101720000BC3EF9DFFE5F09CFE123555C3EF9428E7
:10173000EE6480948050369001081229A5FFC39072
:101740000101E09FFF900100E095F0FE123555C3C6
:10175000EF9414EE6480948050059001088003900B
:1017600001021229A5FF90017BE5F0800B9001009A
:10177000E0FFA3E090017BCFF0A3EFF09001C8124F
:10178000103600000000E49001CCF09001CCE0FFA6
:10179000D390017EE09F90017DE094004025900170
:1017A000C812101E9001CCE01229EAFEA3E0FFE46B
:1017B000FCFD120EA09001C812102A9001CCE0048A
:1017C000F080C89001C8121012ECC0E0EDC0E0EE4D
:1017D000C0E0EFC0E090017D122A26D0E0FFD0E00B
:1017E000FED0E0FDD0E0FC120F469001C812102A96
:1017F0009001C80210129001C87402F0A374BCF0EA
:10180000D39001BBE094009001BAE0940040111223
:1018100029A2FF900108121073E5F08FF0120E81DB
:101820009001E9E07002A3E0600B9001C8E4F0A32E
:101830007464F0800B90001AE0641170037420F05F
:1018400090013FE0600F7E007F0A7D007B017A01FE
:1018500079400210B290014012101EE8C0E0E9C0C9
:10186000E0EAC0E0EBC0E01229A2FFAEF0E4FCFD2C
:10187000D0E0FBD0E0FAD0E0F9D0E0F8120EA09072
:10188000014012102A900144122A1F9001C8122A06
:1018900042900149E09F900148E09E500302211AC6
:1018A000900140121012ECC0E0EDC0E0EEC0E0EF9D
:1018B000C0E0900144122A26D0E0FFD0E0FED0E044
:1018C000FDD0E0FC120F4690014012102A90010852
:1018D0001229A52432FFE435F0FEE4FCFD9001401E
:1018E00012101ED3120FEE402E9001E9E07002A3F9
:1018F000E07024200421900146122A20D390014751
:10190000E09405900146E094004018122990E4907C
:101910000146F0A3F0800C122990E4900146F0A358
:10192000F0C20490014012103600000000E4900163
:1019300044F0A3F0900148F0A3F0227FFF7A0079F1
:10194000001235027FC87A0179001235027E007FCD
:10195000147D007B017A0179E81210B2902DE0E449
:1019600093900001F09000047411F0A37422F0A38E
:101970007433F0902DE2E493900012F0902DE3E4A4
:1019800093900014F09000FB7401F09000367410F6
:10199000F09000F1F0900024F0A37420F07B017A25
:1019A00000794090010212107C7A0079449001087D
:1019B00012107C7A00794290010512107C7A00792D
:1019C0002E90010B12107C7A00792A90010E1210D1
:1019D0007C7A00792890011112107C7A007960904D
:1019E000011F12107C7A0079809001B012107C7A6D
:1019F00000791890013912107C7A00791B90013619
:101A000012107C7A00793290011412107C7A0079DD
:101A10002690011712107C7A00793490011A121066
:101A20007C900114121073E475F0C8120E819001BD
:101A300017121073E475F064120E8190011A1210DF
:101A400073E475F096120E817514007515C875084B
:101A5000007509967B017A00795090013C12107C48
:101A6000900052740A12350B9000580412350B90F6
:101A700001E9F0A374D0F0E49001E8F022758D2024
:101A8000438D20538D7FE4F5B275B6FF75B7FF75B2
:101A9000B2A243B20153A8FB538B7F758B10438BCB
:101AA00008E58B20E7030080F8538B7F758B11438B
:101AB0008B08E58B20E7030080F890022BE5B5F05A
:101AC000A3E5B4F0758B01E4F5B21234CBE4F58DE7
:101AD00012351E4E7010123515FD90011DE5F0F007
:101AE000A3EDF0022343123515FDC3EF9DFFEE95E4
:101AF000F0FE123555D3EF940AEE648094804024B2
:101B0000123515FFC390011EE09F90011DE095F076
:101B10005006E475F001800790011D74FFF5F01286
:101B20000E08803F12351E7C007D03121085ECC02C
:101B3000E0EDC0E0EEC0E0EFC0E0123515FFAEF022
:101B4000E4FCFDD0E0FBD0E0FAD0E0F9D0E0F81200
:101B50000EA0E47B04FAF9F8120F4690011DEEF096
:101B6000A3EFF09001FDE0640112351EE4FCFD7B63
:101B70000AFAF9F8120F4690019CEEF0A3EFF090EC
:101B8000019EE07002A3E0700D90019CE0FFA3E0D5
:101B9000A3CFF0A3EFF09001A4E07002A3E0700FD8
:101BA00090011DE0FFA3E09001A4CFF0A3EFF0228D
:101BB0009001CFEFF0902E22E0FF9001D3E4F0A34C
:101BC000EFF0758A50902E227401F01231CD74041A
:101BD000F0A3E4F09001D0F09001D0E0FFC3940DA9
:101BE0007480948040030224A4EFF87E02E408800D
:101BF00006CEA2E713CE13D8F8FF9001D1EEF0A3E2
:101C0000EFF04E70079001D1F0A304F0902E2074F5
:101C100001F0902E20E030E2F99001CFE0FF902E0D
:101C2000001231D4E0FCA3E0D394FEEC94074040D2
:101C30001231F5E0FEA3E0FF9001D1E0FCA3E0FD4E
:101C4000EF2DFFEE3CFEC3EF94FFEE94079001CF23
:101C5000E075F002902E10500B121067EC8DF01210
:101C60000E0880501210677407F0A374FFF08044D0
:101C70009001CFE0FF1231D1E0FCA3E0FD9001D153
:101C8000E0FAA3E0FBD3ED9BEC9A40211231F5C0C2
:101C900083C082C3A3E09BFF0582D5820215831512
:101CA00082E09AD082D083F0A3EFF080071231CD8A
:101CB000E4F0A3F0902E20E4F0F58D9001D0E00444
:101CC000F00223B89001D3A3E0902E22F0758A3061
:101CD000227FC87E007D967C001229D24003022517
:101CE000A23007209001B8E07002A3E060087514EC
:101CF0001375158880067514077515D07508067557
:101D0000094080499001FDE0F964017006FE7FC83A
:101D1000FC7D969001C2E0FAA3E0FB2FF515EA3EA8
:101D2000F514CEECCEEDFFEB2FF509EA3EF508E910
:101D300064017019A3E0FEA3E0FF2515F515EE354B
:101D400014F514EF2509F509EE3508F5089001059D
:101D50001229A5FFAEF0C39515EE9514500F900112
:101D60003FE0601AC3EF9509EE950840119001F12C
:101D7000E07002A3E0702990013F04F080229000FF
:101D8000F1E064209001F17005F0A3F08007740188
:101D9000F0A374F4F0E490013FF09001EF122A31C7
:101DA00090013FE0FF6016900024E0641090003640
:101DB00070057410F080037420F0122A1490004B08
:101DC000EFF022E4F526F525F524F523F526F52593
:101DD000F524F523F5221229E0502AE52225E024F6
:101DE0000AF8E6FE08E6FFE4FCFDE5262FFFE52500
:101DF0003EFEED3524FDEC35238F268E258D24F512
:101E000023052280D1E47B04FAF9F8AF26AE25AD94
:101E100024AC23120F46900181EEF0A3EFF0E4759D
:101E200026A8752561F524F523F5221229E05055E1
:101E30009001811229B4C3122A3B123555D3EF9475
:101E40000AEE648094804012900181E0FEA3E0FFDE
:101E5000900159E0FCA3E0FD80079001591229B4DC
:101E6000C3122A3B3395E0FDFCE5262FFFE5253E16
:101E7000FEE5243DFDE5233C8F268E258D24F523AC
:101E8000052202260BE47F607EEAFDFCAB26AA2534
:101E9000A924A823D3120FEE400BE4752660752504
:101EA000EAF524F523AE25AF26229001D8121012B0
:101EB0009001D3E0FB75F013A42403F582E434020F
:101EC000F58312102AEB75F013A4240EF582E43486
:101ED00002F5831210129001D812101E120EBB9040
:101EE00001D3E0FB75F013A424FFF582E43401F57F
:101EF0008312102AEB75F013A42407F582E4340250
:101F0000F5832275F002121067E493FE740193FFCB
:101F1000ED75F013A42408F582E43402F583E0FCA7
:101F2000A3E0D39FEC9E229001D3E0FB75F013A4B5
:101F30002403F582E43402F58322EB75F013A42424
:101F40000AF582E43402F58322EB75F013A424FF32
:101F5000F582E43401F583229001E012102A900109
:101F6000D802101212102A9001E0021012EB75F044
:101F700013A4240EF582E43402F58322C0E0C0836A
:101F8000C082C0D075D018D2AFE5DB30E422D205D4
:101F9000C202E5DB30E114123547E0F5DFEF6407FC
:101FA0007065D28A900007F002280AC20102280D4B
:101FB000E5DB30E52C9000F0E064AA7017758A101C
:101FC000F5DAC2AFF5B2F5A8F5A9F58B758E0175F6
:101FD0008DC080FED200300204C2028050C2058053
:101FE0004CC202E5DB30E121E5DB30E04012354751
:101FF000E0F5DFEF24F9600824EE700BD2068007CD
:10200000D28A900007E4F0802120010A7816A6DF2A
:10201000D201D2028017123547E5DFF0EF64247059
:10202000099001EB04F0A374F4F078160675DBFF59
:10203000D0D0D082D083D0E0329001CD1210129057
:1020400001CAE0C454F02418F582E43402F5832276
:10205000EBC454F02416F582E43402F583E4F0A3D3
:10206000F09001CAE0FFC454F0241AF582E434026F
:10207000F583E4F0A3F0EFC454F0241FF582E434B8
:1020800002F583229001CAE0FBC454F02412F582C9
:10209000E43402F58322E0FDA3E09001CBCDF0A370
:1020A000EDF0EFC454F0241EF582E43402F58322EF
:1020B0009001CAE0C454F0241CF582E43402F58394
:1020C00022C454F02420F582E43402F583229001E6
:1020D000CBE0FEA3E0FF22C454F02416F582E434E2
:1020E00002F58322E0FEA3E0FFD39400EE940022E9
:1020F0009001CD02101EE49001C8F0A3F090014CB5
:102100007407F0A304F090014A14F0A304F0123312
:10211000337E007F047D007B017A0179591210B271
:102120007F011233B6902E14E0FEA3E0FF1231C6F9
:1021300090013C121073EE8FF0120E81E4FF123307
:10214000B61231DA9001C8CDF0A3EDF09001C8E0ED
:10215000FCA3E0FDC39405EC94004009D3ED94F09A
:10216000EC94074017EF64014E700590014C800419
:10217000E490014AF0A3F0E4FF1233B6902E23E47A
:10218000F01231DA9001C8CDF0A3EDF090001D748B
:1021900010F0EF64014E9001C870081231C1123185
:1021A000FF80061231C1123209E03EFE1231E922EF
:1021B000900140121012900108121073EE8FF0027D
:1021C0000E81900102121073020E1E9001C8E0FEF3
:1021D000A3E0FF22E52225E0240AF8E6FE08E6FF58
:1021E000E0FCA3E0FD22900105121073E4F5F0027B
:1021F0000E81D39001EAE094009001E9E09400227E
:10220000C3E5229404748094802225E02475F5822D
:10221000E43401F583E022EE9001C8F0A3EFF02250
:10222000121073746175F0A8020E81900100E0FC39
:10223000A3E0FD229001EB7403F0A37420F022E4EC
:1022400075F001020E08E0FEA3E0FBEEFAE4F9F8F7
:1022500022F0A3F09000367410F022EF9DFFEE9C68
:10226000FE22E0FEA3E0FFC32212302A1234907E49
:10227000007F2C7D007B017A0179841210B2120854
:102280002EE490017DF0A3F090016BF0A3F090019B
:1022900069F0A3F090016DF0A3F07F04122D379048
:1022A0000100E0FEA3E0FFA3122999900100E0FEE7
:1022B000A3E0FF1229961229C690010B122A009062
:1022C0000111122A0090010E1229C9E490013FF079
:1022D000FE7F0AFD7B017A0179401210B2E4900181
:1022E000F7F0A3F09001F5122A31E490004BF012C0
:1022F0002A149001FBE0700FC39001EAE094F4907F
:1023000001E9E09401500A9001E97401F0A374F42A
:10231000F0229001FDE025E0246EF582E43435F5ED
:1023200083E5822FF582E43583F583E4932212104E
:102330001E900165E0FEA3E0229001CDE0FFA3E046
:10234000CF90015FF0A3EFF022F583E49375F002E4
:10235000902E00121067E0FFA3E0229001FDE02420
:102360002DF582E43402F583E022F583E493242002
:10237000F582E4342EF58322CFF0A3EFF0902E20E7
:10238000E4F0758A30229001FDE06401221234AE3F
:10239000758A50902E207401F0229001CF02101205
:1023A000E0FCA3E0FDECFEEDFF22120EA09001CFB9
:1023B00002102A787FE4F6D8FD758126022BDD0213
:1023C0000000022CAFE493A3F8E493A34003F6804B
:1023D00001F208DFF48029E493A3F85407240CC821
:1023E000C333C4540F4420C8834004F456800146CC
:1023F000F6DFE4800B010204081020408090346175
:10240000E47E019360BCA3FF543F30E509541FFEF6
:10241000E493A360010ECF54C025E060A840B8E467
:1024200093A3FAE493A3F8E493A3C8C582C8CAC5EA
:1024300083CAF0A3C8C582C8CAC583CADFE9DEE77C
:1024400080BEE49001CCF0A3F0200603022CAE2065
:10245000077CC2069001FDE0902E12E0FFA3E09001
:1024600001CCCFF0A3EFF09001CCE0FFA3E090010E
:10247000CACFF0A3EFF0E4FF1233B61231DA9001C5
:10248000CCCDF0A3EDF0EF64014E9001CC700812BA
:1024900031C11231FF80061231C1123209E03E9083
:1024A00001C8F0A3EFF09001C8E0FEA3E0FF1231F5
:1024B000E99001FDE09001CAE0FFA3E0902E12CF69
:1024C000F0A3EFF09001EB7403F0A37420F022531B
:1024D000A87F1234E712211B12337612080E43A88C
:1024E00080E4F58D9000F17420F0122E4A9001E8FE
:1024F000E014601514601714603814604A240470E6
:10250000E01228D612080380D8122A498031122DF1
:10251000B7900020E0FF64206008EF6421600312A0
:102520002EC8900025E0641070B79001E87404F0A4
:1025300080AF12080A9001EB7403F0A37420F090AE
:1025400001E87402F0809A1232A7900025E064102E
:10255000608F120803808A9001C8EFF0E4A3F09026
:1025600001C8E0FFA3E0C39F502E1211331235279C
:1025700090016DEEF0A3EFF08E12F513C8740AC847
:102580007400FCE4FDFB7A00790CFE7F08120D9AC2
:102590009001C9E004F080C71225A3900100EEF07D
:1025A000A3EFF090016B122A42900133E09FFF905D
:1025B0000132E09EFE1235557C007D05120DD29051
:1025C0000130ECF0A3EDF090016BE0FFA3E090018F
:1025D00032CFF0A3EFF02212082E7F01122D371216
:1025E0001E919001021229991214491224B1121F4E
:1025F000D612309712342A022C220000000000006C
:102600000402AB4274AA7583F5758255A57455759D
:1026100083FA7582AAA574A57583F5758255A522DE
:102620000203020AB0B00BB6B60CFFFF09020208A3
:10263000FFFF0D77770E04041307071410101080A6
:10264000801500001600000100009212071B021303
:10265000080F0000040404000001011100000A0832
:1026600012000004040302040204900020E064202D
:1026700070037421F0900136121073120E1E641054
:1026800045F0700312325E900001E064AA700312FC
:10269000316012321320030890001AE06410700BAE
:1026A00090001A7411F0C2031208039000FBE0605E
:1026B00006E4F09001E8F0900171E07004A3E0649A
:1026C000017015900171F0A3F09001BA7407F0A3A6
:1026D00074D0F0E49001E8F030000CC2009001EBFF
:1026E0007401F0A374F4F022308A789001E9E0706C
:1026F00002A3E0706E900171E07002A3E07064F5D7
:10270000B2758D20438D20758D9043A808D2AF758A
:102710008B4090012CE0FEA3E0FF4E6005758E1407
:102720008003758E3F20002F20052CE5DB540470BC
:1027300026758AA4200520E5DB5404701AF58675F9
:102740008703000000758601EF4E60047F28800239
:102750007F7F7E00121A12758B01758A3053A8F79D
:102760001234CB22E4FEEEC3940774809480503878
:10277000EE75F005A42428F582E4342EF583C08399
:10278000C0829001FDE0D082D08375F00212106704
:10279000122B01FDEE75F005A42427F582E4342EFA
:1027A000122B4AEDF00E80BEEF70109001FDE0702C
:1027B0000A90014AE07002A3E0600F122B667018C5
:1027C00090014CE07002A3E0700E9001FDE0902EAD
:1027D000217002F0227412F022CFF0EFA3F09001EA
:1027E00005121073020E1EC3FF900189E09F900135
:1027F00088E095F02290011DE0FEA3E0FF22900109
:102800001DE0FFA3E0229001CBE0941E9001CAE0FE
:102810009400229001AC7413F0A37488F0A3E4F048
:10282000A322E4F0A3F0A3F0A3F022CF9001A4F040
:10283000A3EFF022FF900188E5F0F0A3EFF02290E3
:1028400001A7E09F9001A6E09E227E007F137D00FD
:102850007B017A0179FF1210B2E4FBEBC39401749F
:1028600080948050519001FDE0FFEB75F00AA424A4
:1028700061F582E43435F583E5822FF582E4358312
:10288000F583E493FFE4FCFDFE12271A12102A12CE
:10289000271A121012EF04F87E007401088005C395
:1028A00033CE33CED8F9FFEE3395E0FDFC12274D41
:1028B00012102A0B80A5229001EDE07004A3E064C1
:1028C000017011900007E06004D28AE4F0E4900106
:1028D000EDF0A3F0900036E0FF9000FFE06F603D68
:1028E000900036E0FD9000FFF0900007E09001FEC0
:1028F000F0540FF0ED7E0064207005E04420800C61
:10290000EF64104E700B9001FEE04410F090000751
:10291000F0C28A9001ED7403F0A374E8F02274FF12
:10292000F5F0020E08EF2401FDE43EFCD3E09D2209
:10293000E475F001020E08C3900149E094BC9001D7
:1029400048E0940222C3900193E09464900192E0E5
:10295000940022C3900221E094B8900220E0940BEE
:1029600022C390021BE094F490021AE0940122EE3C
:102970008FF0020E08EF2401FDE43EFCD3E09D221F
:102980009001C87408F0A3E4F0A3743FF0A374DFCF
:10299000F0E4FDFCF9758A10538AEF009001C8E05D
:1029A000FEA3E02DF582EE3CF583E493FF69F90D7B
:1029B000BD00010CBC37E5BDDFE29001CAE0FEA31B
:1029C000E0F5828E83E493FFE96F70089000017454
:1029D00004F08005E4900001F0758A30538AEF001E
:1029E00022E0FEA3E0FF7C007D0A020DC09001CF33
:1029F000E0902E1075F0020210679001FDE0FF7E5E
:102A000000902E12E0FDA3E022900139121073EE27
:102A10008FF0020E8175F002EF902E100210679079
:102A2000014DE02FFF90014C2290014BE02FFF90D1
:102A3000014A22900013E0FF9001FCE06F600CEF70
:102A4000F09001F97402F0A37458F09001F9E0706D
:102A500004A3E0640170269001FCE0FF7E00641096
:102A60007002D207EF64204E7002C207900025E08A
:102A700064106002D203E49001F9F0A3F022E49024
:102A800001C8F0A3F0758A10538AEF00122DE47587
:102A9000EA81E4F5F6F5F475F308F5F275EB070055
:102AA000E5EC30E7FBAFF3EFFEADF2EDFF90013662
:102AB000121073EE8FF0120E81E4F5EC75EB3075A9
:102AC0008A30538AEF0022900025E06410703FF5B1
:102AD000B2758D20438D20538D7F53A8F7F58BE57C
:102AE000DB54047013200510F58AF5867587030002
:102AF0000000758601758A30758B019001FB7401A9
:102B0000F09001EB7403F0A37420F01234CB22C2D6
:102B1000D5E830E70FB2D5E4C39BFBE49AFAE49919
:102B2000F9E498F8EC30E717B2D5123325120F46C6
:102B3000E4C39BFBE49AFAE499F9E498F880031261
:102B40000F4630D50DE4C39FFFE49EFEE49DFDE4F7
:102B50009CFC22E4FFEFC3940D74809480502E906F
:102B600001FDE0FEEF75F003A42401F582E4342EAC
:102B7000F583E5822E122B04FEEF75F003A42400EA
:102B8000F582E4342E122B4AEEF00F80C8902F56B7
:102B9000E0902E2BF022E4F5DA75DA4043DA2030AB
:102BA000881375D74075D6409001FD04F09000154C
:102BB0007440F0801175D74275D642E49001FDF063
:102BC0009000157441F05392FE75DA5843A80275CF
:102BD000B80275F802229001CEEFF01234AE9001E7
:102BE000CEE0FF122F449001CEE0FF9001FDE025E2
:102BF000E0246EF582E43435F583E5822FF582E436
:102C00003583F583E493FF1223909001CEE0FF0219
:102C100035389001CAEFF07E007F10EEC0E0EFC0C3
:102C2000E07D00E075F010A42412F9740235F0FA8A
:102C30007B01D0E0FFD0E0FE1210B29001CAE0129A
:102C400028A1740BF0A374B8F02290015AE024304C
:102C5000FF900159E034F8FEC390016CE09F9001B1
:102C60006BE09E5014900171E07002A3E07011902F
:102C7000017104F0A374F4F022E4900171F0A3F068
:102C800022C10542022D0204C1064101FE0041019C
:102C9000FD00C1074101FC00C101011600C100C1D6
:102CA00002C104C1034100FF1043022801022B00AE
:102CB0007E007F047D007B017A01795D1210B27E77
:102CC000007F047D007B017A0179650210B2EFF884
:102CD0007401088002C333D8FC42AB122AF290354B
:102CE0006B93F4529152935391DF22E5B2540160F9
:102CF00006E5A85410700F75B29275B67CE4F5B76E
:102D000043B20143A81022758A30538AEF758601B9
:102D1000758F05E4F5AB75AC0F75913E759201D2D8
:102D20008A227E007D007B010210B2F0A37404F0C1
:102D3000A37407F022900228121073020E1E900155
:102D40001DE0FEA3E0FF2290016BE0FEA3E0FF90F8
:102D50000169EEF0A3EFF022122AF290356B934254
:102D6000914288439120227816E6FF2400F582E400
:102D70003400F58322EE30E707C3E49FFFE49EFEB4
:102D80002203030019001E00140019010220010291
:102D90000102009600960701F40000000000000008
:102DA0000000000000000000000000000000000023
:102DB0000000000000000000000000000000000013
:102DC0000000000000000000000000000000000003
:102DD00000000000000000000000000000000000F3
:1037F0000000000000000000000000000000000DBC
:1038000000000000000000000000000000000000B8
:1038100000000000000000000000000000000000A8
:00000001FF
