:100000000042000000070000629A000000000000AB
:1000100000000000000000000000000000000000E0
:10002000022B9B9001E47401F02222022752023439
:10003000CC0000020816D2AF32000002081ED2AF78
:10004000320000021BB1D2AF320000020826E49059
:1000500001C4F0A3F012225390018812101E122F37
:10006000D1E4FCFD120EA090018812102A90018CA0
:10007000E475F001120E08C390018FE094649001C2
:100080008EE094005003020AD4900188121012EC02
:10009000C0E0EDC0E0EEC0E0EFC0E090018CE0FE1B
:1000A000A3E0FBEEFAE4F9F8D0E0FFD0E0FED0E008
:1000B000FDD0E0FC120F4690018812102A900188B2
:1000C000121012900186EEF0A3EFF0A3121036008A
:1000D00000000090018C122FFE9001E5E07002A359
:1000E000E06003020AD4900190E07002A3E0600394
:1000F000020AD490013FE0700302096E900182E091
:100100007002A3E0701D900186E0FFA3E0900182E1
:10011000122FB51230109001927403F0A374E8F01E
:1001200002097E900186E0FEA3E0FFC3900183E018
:100130009FFF900182E09EFE1235569001AC121096
:1001400073EE8FF0120E81900180E0701D9001AC73
:10015000122FBDC39406E5F094005008122FBA1276
:10016000301080069001807401F0900186E0FEA3BB
:10017000E0FFD3900183E09F900182E09E4007E47E
:10018000900181F080189001817401F0801090013D
:1001900082122FFE900180F0900194122FFF9001A7
:1001A00080E07003020AD4D3900185E094009001AE
:1001B00084E094005003020AD4122FBAFF90018405
:1001C000E0FCA3E0FDC3EF9DFFE5F09CFE12355679
:1001D0009001C6EEF0A3EFF0A3E4F074C8122FB8BC
:1001E000D39494E5F09411400A9001C87403F0A3ED
:1001F0007420F09001C6E0FFA3E09001B0122FB58B
:10020000D3122FC4400CD39001C7E09464122FE89E
:100210005013122FBA122FC350369001C7E094C862
:10022000122FE8402BE4900180F0900182F0122F11
:10023000B8122FC39001905008E4F0A374C8F08066
:10024000077401F0A3742CF0E4900181F0020AD449
:10025000122FBAFFD3122FC5404AD3122FE24044C7
:1002600090010812107374FF75F0F9120E49900195
:1002700096E475F007120E08C3900195E094E8909B
:100280000194E09403501DA3E09407900194E0943E
:1002900000400A74FF75F0F9120E088007E490011F
:1002A00094F0A3F0122FBA122FC35048122FE2403D
:1002B00043900108121073E475F007120E49900183
:1002C00094E475F007120E08C3900197E0945890DB
:1002D0000196E09402501DA3E09407900196E094EB
:1002E00000400A74FF75F0F9120E088007E49001CF
:1002F00096F0A3F090013FE060179001BAE0700221
:10030000A3E0700D122FDA9001BACFF0A3EFF080C6
:100310001F90013FE07019122FBAC39496E5F09434
:1003200000500DE49001BAF0A3F09001BEF0A3F0EC
:100330009001BAE07002A3E07003020BD8122FD133
:10034000C39001BBE09FFF9001BAE09EFE123556BC
:100350009001C4EEF0A3EFF0122FD1D39001BBE0D7
:100360009F9001BAE09E400D9001C4E0FFA3E09091
:1003700001BCCF801A9001C4E0FEA3E0FFD394C873
:10038000EE9400400EEE13FEEF13FF9001BCEEF072
:10039000A3EFF0D39001BDE0940A9001BCE094007B
:1003A0004056122FBAD39488E5F09413402390015D
:1003B000BFE094DC9001BEE09405503C9001BDE0AC
:1003C00025E0FE9001BCE0339001BEF0A3CEF080AA
:1003D00027122FBAD394E8E5F09403401B9001BF95
:1003E000E094F49001BEE09401500D9001BCE0FF58
:1003F000A3E0A3CFF0A3EFF09001F9E06401600364
:10040000020CC990013FE06003020CB69001A2E02B
:100410007002A3E0700B122FDA9001A2CFF0A3EFCD
:10042000F0122FD1C39001A1E09F9001A0E09E5057
:1004300004EE1230089001A6E07002A3E0705A1298
:100440002FD1D312301B40129001A3E09FFF9001E7
:10045000A2E09E9001A4F0A3EFF0D39001A5E09458
:10046000049001A4E094004008122FEF7464F0801F
:1004700015D39001A5E094069001A4E094004006F5
:10048000122FEF74C8F09001A67403F0A374E8F083
:10049000122FDA9001A2CF800D122FD1C312301B80
:1004A00050089001A2EEF0A3EFF09001A8E07002D6
:1004B000A3E07012122FDA123007E49001AAF0A321
:1004C000F09001C080209001AAE0FFA3E09001C05D
:1004D000CFF0A3EFF022122FDA123007E49001C020
:1004E000F0A3F09001AAF0A3F022E709F608DFFAE2
:1004F0008046E709F208DFFA803E88828C83E709AC
:10050000F0A3DFFA8032E309F608DFFA8078E30926
:10051000F208DFFA807088828C83E309F0A3DFFAA7
:10052000806489828A83E0A3F608DFFA8058898292
:100530008A83E0A3F208DFFA804C80D280FA80C67A
:1005400080D4806980F28033801080A680EA809A0F
:1005500080A880DA80E280CA803389828A83ECFABC
:10056000E493A3C8C582C8CCC583CCF0A3C8C58218
:10057000C8CCC583CCDFE9DEE7800D89828A83E4BD
:1005800093A3F608DFF9ECFAA9F0EDFB2289828A41
:1005900083ECFAE0A3C8C582C8CCC583CCF0A3C85D
:1005A000C582C8CCC583CCDFEADEE880DB89828ADD
:1005B00083E493A3F208DFF980CC88F0EF60010EAA
:1005C0004E60C388F0ED2402B4040050B9F582EB0C
:1005D0002402B4040050AF2323458223900D1A73E4
:1005E000EF8DF0A4A8F0CF8CF0A428CE8DF0A42E2F
:1005F000FE22C2D5EC30E709B2D5E4C39DFDE49CF0
:10060000FCEE30E715B2D5E4C39FFFE49EFE121066
:10061000DEC3E49DFDE49CFC80031210DE30D507B0
:10062000C3E49FFFE49EFE22C5F0F8A3E028F0C5D6
:10063000F0F8E582158270021583E038F022BB01E4
:100640000A89828A83E0F5F0A3E022500687F00948
:10065000E71922BBFE07E3F5F009E3192289828A34
:1006600083E493F5F074019322BB010789828A83A6
:10067000020E08500B09C5F027F7C5F01937F7220D
:10068000BBFE0D09F8E325F0F3C5F019E338F322BA
:10069000F889828A8374019325F0C5F0F8E49338D1
:1006A00022BB010A89828A83F0E5F0A3F02250067A
:1006B000F709A7F01922BBFE06F3E5F009F31922AA
:1006C000EF2BFFEE3AFEED39FDEC38FC22C3EF9B39
:1006D000FFEE9AFEED99FDEC98FC22E88FF0A4CC99
:1006E0008BF0A42CFCE98EF0A42CFC8AF0EDA42C59
:1006F000FCEA8EF0A4CDA8F08BF0A42DCC3825F028
:10070000FDE98FF0A42CCD35F0FCEB8EF0A4FEA912
:10071000F0EB8FF0A4CFC5F02ECD39FEE43CFCEA1F
:10072000A42DCE35F0FDE43CFC2275F00875820066
:10073000EF2FFFEE33FECD33CDCC33CCC58233C5A6
:10074000829BED9AEC99E58298400CF582EE9BFE37
:10075000ED9AFDEC99FC0FD5F0D6E4CEFBE4CDFA92
:10076000E4CCF9A88222B800C1B90059BA002DEC36
:100770008BF084CFCECDFCE5F0CBF97818EF2FFFCE
:10078000EE33FEED33FDEC33FCEB33FB10D7039976
:100790004004EB99FB0FD8E5E4F9FA227818EF2F23
:1007A000FFEE33FEED33FDEC33FCC933C910D70542
:1007B0009BE99A4007EC9BFCE99AF90FD8E0E4C961
:1007C000FAE4CCFB2275F010EF2FFFEE33FEED3391
:1007D000FDCC33CCC833C810D7079BEC9AE89940BE
:1007E0000AED9BFDEC9AFCE899F80FD5F0DAE4CD20
:1007F000FBE4CCFAE4C8F922EB9FF5F0EA9E42F064
:10080000E99D42F0EC6480C864809845F022EB9F3B
:10081000F5F0EA9E42F0E99D42F0E89C45F022E8BE
:10082000600FECC313FCED13FDEE13FEEF13FFD8C6
:10083000F122E0FCA3E0FDA3E0FEA3E0FF22E0F84C
:10084000A3E0F9A3E0FAA3E0FB22ECF0A3EDF0A310
:10085000EEF0A3EFF022A8828583F0D083D082123D
:10086000104D12104D12104D12104DE473E493A36D
:10087000C583C5F0C583C8C582C8F0A3C583C5F0CC
:10088000C583C8C582C822A42582F582E5F03583D8
:10089000F58322E0FBA3E0FAA3E0F922EBF0A3EA60
:1008A000F0A3E9F022EC8EF0A4CCC5F0CCCDF8EFAB
:1008B000A4CEC5F02DFDE43CFCE8A42EC8C5F03D57
:1008C000FDE43CFCEFA4FFE5F028FEE43DFDE43C44
:1008D000FC22EF4E6012EF60010EEDBB010B89822E
:1008E0008A83F0A3DFFCDEFA2289F05007F709DFE4
:1008F000FCA9F022BBFEFCF309DFFCA9F022BC003E
:100900000BBE0029EF8DF084FFADF022E4CCF8752A
:10091000F008EF2FFFEE33FEEC33FCEE9DEC984039
:1009200005FCEE9DFE0FD5F0E9E4CEFD22EDF8F5D5
:10093000F0EE8420D21CFEADF075F008EF2FFFED35
:1009400033FD4007985006D5F0F222C398FD0FD52D
:10095000F0EA22122AD260030211BC7F01122F4456
:10096000122A72902E20E030E2F99001F9E025E0A1
:100970002470F582E43435122A989001C9122A5B5A
:100980007F0112353990015BE0FEA3E0FF4E700855
:100990009001C9122ADF801E7C007D03120DC090D9
:1009A00001CAE02FFF9001C9E03EFE7802EFCEC3FE
:1009B00013CE13D8F9FFEE122A904E7003122A8834
:1009C000122A88900157E07002A3E0700F90015B3B
:1009D000E0FFA3E0900157CFF0A3EFF09001CB121E
:1009E000103600002710E4FF122F44E49001C6F0F7
:1009F0009001C6E0FF7E00C394057480948040039C
:100A00000212E3EF2401FFEE33FE122AAAFDD3EF18
:100A10009D7480F86E9840030212DAE4FF122A7285
:100A2000902E20E030E2F99001F9E025E0246FF506
:100A300082E43435122A989001C7122A5BFF1235DE
:100A400039122AD2702B90015BE0FEA3E0FFC39025
:100A50000158E09FFF900157E09E9001C78FF01270
:100A60000E089001C7E0FFA3E090015DCFF0A3EF77
:100A7000F09001C7E0FFA3E09001B8CFF0A3EFF042
:100A8000900159E0FEA3E0FF4E70089001B8122AD1
:100A9000DF801E7C007D03120DC09001B9E02FFFA6
:100AA0009001B8E03EFE7802EFCEC313CE13D8F922
:100AB000FF900159EEF0FAA3EFF0FB122ABCFFE41D
:100AC000FCFD9001D012102AEBFFEAFEE4FCFD9041
:100AD00001D412102AE4FF121D24900161EEF0A34C
:100AE000EFF0122AD29001CB122AB92400FFEE3483
:100AF000E8FE3395E0FDFC122AE99001C6E004F01F
:100B00000211D0902E23E4F09001CB12101EE8C009
:100B1000E0E9C0E0EAC0E0EBC0E0122AAAFFFBE493
:100B2000FAF9F8122AD91232EBD0E0FBD0E0FAD071
:100B3000E0F9D0E0F8122AE9E47F507EC3FDFC9092
:100B400001CB12101ED3120FD8400A9001CB121005
:100B5000360000C350122AD9EC33500A9001CB1250
:100B6000103600000000900167E0FAA3E0FB4A7035
:100B700005122AD980227E007F02EBFDEAFC1210CA
:100B800085ECF8EDF9EEFAEFFB122AD9120EA0E48B
:100B90007B03FAF9F8120F46900167EEF0A3EFF02D
:100BA000900155E07002A3E0700F900167E0FFA391
:100BB000E0900155CFF0A3EFF0900126122AB9FF83
:100BC000E4FCFD120EA090012612102A90012AE4E6
:100BD00075F001120E0890012AE0FEA3E0FFD39405
:100BE0000AEE94004029EFFBEEFAE4F9F8900126B2
:100BF000121012120F46900124EEF0A3EFF0E490D1
:100C0000012AF0A3F0900126121036000000009097
:100C1000012CE07002A3E0703A900124E0FEA3E012
:100C2000FFC3900162E09FFF900161E09EFE1235DC
:100C300056900122EEF0A3EFF0D39406EE9400401C
:100C40001290012C7403F0A374E8F0A3E475F00192
:100C5000120E08900167E0FEA3E0FF221229C840AF
:100C60000302172D90010812299BFDE5F0FC1229C3
:100C700098FFAEF0D39DEE9C402E122A31D3EF9414
:100C800030EE9475400C9001C47475F0A37430F08C
:100C90008010120E1EC39DFEE5F09C9001C4F0A3CF
:100CA000CEF0E49001B28060120E1EFFAEF0C3EDF4
:100CB0009FFBEC9EFAD3EB9410EA9427400C900132
:100CC000C47427F0A37410F08009C3ED9FFFEC9E5D
:100CD0001229E49001C4E0FFA3E09001B2CFF0A399
:100CE000EFF0300718D3E0942C9001B2E09401406B
:100CF000139001B47427F0A37410F08007E49001FE
:100D0000B4F0A3F0E49001C4F0A3F090013FE060E0
:100D10004A1229A1D39400EE648094804014D3EF4A
:100D20009509EE9508400B9001EBE4F0A37464F094
:100D3000801BD39001ECE094009001EBE094004024
:100D40000C90010512299BFFE5F01229E4D20490D2
:100D500001F1740FF0A374A0F0800F9001EF740301
:100D6000F0A374E8F0E4FF1233EED39001C5E094F1
:100D7000009001C4E0648094805003021702E0FEFA
:100D8000A3E0FF90010512298F1229A1EE3395E00F
:100D9000FDFCE47BB87A88F9F8C3120FD8500A90AA
:100DA00001C47488F0A374B8F0D39001EEE094000D
:100DB0009001EDE0940050089000F1E06420702A6A
:100DC000E509240AFFE43508FE9001C4E0FCA3E035
:100DD000FDC39FEC9E5013ED9400EC648094804022
:100DE000381229A17C007D0A802930072C90013F10
:100DF000E070111229A1C39511EE9510501B7C02D1
:100E00007DBC800F1229A1C39509EE9508500A7C7C
:100E1000027DBC120DD21229E390013FE070030263
:100E200016879001EFE07002A3E070149001C4E017
:100E3000FEA3E0FDEEFCE4FF12172E1229E380353D
:100E40001229A1C3900135E09FFF900134E09EFE7E
:100E5000123556D3EF9428EE648094804017D390D7
:100E600001F0E094C89001EFE09400400874FF7531
:100E7000F09C120E08900134E0FEA3E0FF7C007DA0
:100E80000F121085ECF8EDF9EEFAEFFB1229A1EE46
:100E90003395E0FDFC120EA0E47B10FAF9F8120F76
:100EA00046900134EE800B9001C4E0FFA3E0900176
:100EB00034CFF0A3EFF0900134E0FEA3E0FFD39431
:100EC00005EE9400400EEF9410EE94005006900151
:100ED000C4EE8016900130E0FEA3E0FF900135E003
:100EE0002FFF900134E03E9001C4F0A3EFF0D390C7
:100EF00001C5E094309001C4E0648094F54007742B
:100F000075F0A37430F0E5DB540470411229A19010
:100F1000010E12298F9001C5E024A8FF9001C4E0C2
:100F20008022E5DB540470251229BC900130E0FEDC
:100F3000A3E0FF90010E12298F90010E12299B242D
:100F4000A8FFE5F03461FE90010B12298F22900179
:100F5000C6EFF0A3ECF0A3EDF0EF12288AE0FEA3B9
:100F6000E0C39DFFEE9CFE123556D3EF9428EE644D
:100F7000809480401C12285A121036000000001283
:100F80002826E4F01228A4122886EEF0A3EFF080C1
:100F90003B1228151228BA40339001C7E0FCA3E0A9
:100FA000FDD3EF9DEE9C400B9001C6E012284DE072
:100FB0004401F09001C6E0FF122819E0FAA3E0C353
:100FC0009DEA9C500712284CE04402F09001C6E0D4
:100FD00012285FC083C08212101E1228A4E4FCFDF8
:100FE000120EA0D082D08312102A9001C6E0FF1208
:100FF00028ADE475F001120E08EF75F007A424780F
:10100000F582E43435F583E493FE740193FF900197
:10101000C6E0FDC454F02416F582E43402F583E002
:10102000FAA3E0C39FEA9E500302199AED1228AD7D
:10103000E0FEA3E0FFFBEEFAE4F9F89001C6E0124F
:10104000285F121012120F469001C912102A12289E
:101050000FE0FCA3E0C39FFFEC9EFE12355690010B
:10106000CDEEF0A3EFF09001C6E0FD75F007A424EB
:1010700073F582E43435F583C37401939FE4939E42
:10108000401FED122819E0FEA3E04E60149001C647
:10109000E0FB122897E0FEA3E0C394B8EE940B5057
:1010A0001E9001C6E0FF122819E0FCA3E04C700876
:1010B000EF122897E4F0A3F012280FEE021941EB8B
:1010C00060030219479001CFF09001CDE0FEA3E04C
:1010D000FFD39450EE94004006A37408F080329041
:1010E00001C6E012284DE064036026D3EF943CEE85
:1010F000940040089001CF7404F08015D39001CE85
:10110000E094289001CDE0940040069001CF740255
:10111000F0122815E0FEA3E0FFE4FCFD1228C6D380
:10112000120FEE40119001CFE0FF122815E48FF06E
:10113000120E0802197DD39001CEE094509001CD9B
:10114000E094004058122815C083C082E0FEA3E05E
:10115000FF9001CFE0FDC3EF9DFFEE9400D082D061
:1011600083F0A3EFF08036122815E0FEA3E0FF4ED7
:10117000700D1228C6EBFFEAFEE9FDE8FC80167C44
:10118000007D071210851228C6120EA0E47B08FA13
:10119000F9F8120F46122815EEF0A3EFF012285AB4
:1011A00012103600000000122826E4F09001C91247
:1011B0001012122886EEF0A3EFF01228151228BAAA
:1011C000405F9001C8E09FFF9001C7E09EFE12358E
:1011D000569001C6E075F007A42475F582E4343515
:1011E000F583D37401939FE4939E400F9001C6E072
:1011F000FF12281912286CE4F080269001C6E0FF47
:1012000075F007A42477F582E43435F583E493FE82
:10121000122878E0C39E500912281512286CE004A9
:10122000F01228A422D39001E6E09F9001E5E09E11
:10123000400AA3E09FF09001E5E09EF09001EA12E1
:1012400031019001E9E09C400CA3E09FF09001E99E
:10125000E09EF08002D28AD39001E8E09F9001E7FF
:10126000E09E400AA3E09FF09001E7E09EF012317B
:1012700013500312314BD39001ECE09F9001EBE04F
:101280009E400AA3E09FF09001EBE09EF0D3900116
:10129000EEE09F9001EDE09E400AA3E09FF09001F8
:1012A000EDE09EF0D39001F4E09F9001F3E09E40CA
:1012B0000AA3E09FF09001F3E09EF0D39001F0E0EC
:1012C0009F9001EFE09E400AA3E09FF09001EFE0C5
:1012D0009EF0D39001F2E09F9001F1E09E400AA3BE
:1012E000E09FF09001F1E09EF0D39001B5E09F9077
:1012F00001B4E09E400AA3E09FF09001B4E09EF0AC
:101300009001F61231019001F5E09C400AA3E09FA4
:10131000F09001F5E09EF0123121500312314BD3D1
:10132000900191E09F900190E09E400AA3E09FF021
:10133000900190E09EF0900193123151900192E063
:101340009C400AA3E09FF0900192E09EF0D39001B0
:10135000A7E09F9001A6E09E400AA3E09FF09001C5
:10136000A6E09EF0D39001A9E09F9001A8E09E40E6
:101370000AA3E09FF09001A8E09EF090016E123168
:101380005190016DE09C400AA3E09FF090016DE058
:101390009EF0D39001B7E09F9001B6E09E400AA373
:1013A000E09FF09001B6E09EF012312F5003123111
:1013B0004B12313D500312314BD390012DE09F90E1
:1013C000012CE09E400AA3E09FF090012CE09EF0EB
:1013D00022C0E0C0F0C083C082C0D0E8C0E0D2AF7D
:1013E000D39001E6E094009001E5E0940040031200
:1013F00030FAD39001EAE094019001E9E0940040D2
:10140000051230FA8002D28AD39001E8E09400906D
:1014100001E7E0940040031230FA12311350031236
:10142000310CD39001ECE094009001EBE09400408B
:10143000031230FAD39001EEE094009001EDE094B5
:101440000040031230FAD39001F4E094009001F3CD
:10145000E0940040031230FAD39001F0E094009041
:1014600001EFE0940040031230FAD39001F2E094CF
:10147000009001F1E0940040031230FAD39001B5DE
:10148000E094009001B4E0940040031230FAD3904D
:1014900001F6E094019001F5E0940040031230FA67
:1014A000123121500312310CD3900191E09400903D
:1014B0000190E0940040031230FAD3900193E0943D
:1014C00001900192E0940040031230FAD39001A7FA
:1014D000E094009001A6E0940040031230FAD3900B
:1014E00001A9E094009001A8E0940040031230FAB2
:1014F000D390016EE0940190016DE09400400312DE
:1015000030FAD39001B7E094009001B6E094004027
:10151000031230FA12312F500312310C12313D50A8
:101520000312310CD390012DE0940090012CE09433
:101530000040031230FAD0E0F8D0D0D082D083D06F
:10154000F0D0E0329001CFEFF01226CBE070279080
:1015500001CFE0122702121012E4FBFAF9F8C312CD
:101560000FEE60129001CFE0122720121012E4F863
:10157000C3120FEE70571227349001D0121E60EE86
:10158000F0A3EFF0ED1226CBE06029ED75F00AA490
:101590002468F582E43435F583C083C0829001F974
:1015A000E0D082D0831226D9400A9001CFE01226E3
:1015B000CB7405F0122680E0D394007480948040B0
:1015C000061226CAE014F09001D4021E5C1226FD19
:1015D0001210129001D812102A12271F1210129006
:1015E00001DC12102A9001CFE0122711121012EF25
:1015F000F912273DE9F8120FFFEFFBEEFAEDF9ECD7
:10160000F812273D120EAD9001E012102A9001D879
:101610001210129001D412101E120EA09001E012AE
:10162000101E120EA012272E1226FD12273A122784
:101630001F12273A12274312101E120F4612272E8E
:101640009001DC121E60EEF0A3EFF0ED75F00AA43D
:101650002464F582E43435F583C083C0829001F9B7
:10166000E0D082D0831226D9400F1226807405F074
:101670001227349001DC12102A9001DC1210122281
:10168000EFFBEEFA121012C3EF9BFFEE9AFE12353B
:10169000569001CFE0FD75F013A42404F582E434E4
:1016A00002F58322900179122A389404EE940050B6
:1016B000221229F7EF25E0FFEE33FE74712FF58239
:1016C00074013EF583ECF0A3EDF0900179122A0B42
:1016D000021F529001C87401F09001C8E0FFC3944A
:1016E00004748094805021EF1229D6FCA3E0FDEF12
:1016F00025E0246FF582E43401F583ECF0A3EDF0EE
:101700009001C8E004F080D190013FE06002805376
:10171000122998FF1229F7C3EF9DFFE5F09CFE12F6
:101720003556C3EF9428EE648094805036900108BB
:1017300012299BFFC3900101E09FFF900100E095FB
:10174000F0FE123556C3EF9414EE64809480500579
:10175000900108800390010212299BFF900177E518
:10176000F0800B900100E0FFA3E0900177CFF0A3A1
:10177000EFF09001C412103600000000E49001C8A0
:10178000F09001C8E0FFD390017AE09F900179E0EA
:10179000940040259001C412101E9001C8E0122947
:1017A000D6FEA3E0FFE4FCFD120EA09001C41210CF
:1017B0002A9001C8E004F080C89001C4121012EC15
:1017C000C0E0EDC0E0EEC0E0EFC0E0900179122A89
:1017D00012D0E0FFD0E0FED0E0FDD0E0FC120F46DA
:1017E0009001C412102A9001C40210129001C47416
:1017F00002F0A374BCF0D39001B7E094009001B65E
:10180000E094004011122998FF900108121073E52E
:10181000F08FF0120E819001E5E07002A3E0600B02
:101820009001C4E4F0A37464F0800B90001AE064AB
:101830001170037420F090013FE0600F7E007F0A7A
:101840007D007B017A0179400210B29001401210B4
:101850001EE8C0E0E9C0E0EAC0E0EBC0E012299871
:10186000FFAEF0E4FCFDD0E0FBD0E0FAD0E0F9D030
:10187000E0F8120EA090014012102A900144122AA2
:101880000B9001C4122A38900149E09F900148E072
:101890009E5003022110900140121012ECC0E0EDA6
:1018A000C0E0EEC0E0EFC0E0900144122A12D0E0A8
:1018B000FFD0E0FED0E0FDD0E0FC120F46900140EA
:1018C00012102A90010812299B2432FFE435F0FE01
:1018D000E4FCFD90014012101ED3120FEE402E903A
:1018E00001E5E07002A3E07024200421900146127B
:1018F0002A0CD3900147E09405900146E094004003
:1019000018122986E4900146F0A3F0800C12298673
:10191000E4900146F0A3F0C204900140121036009A
:10192000000000E4900144F0A3F0900148F0A3F01F
:10193000227FFF7A0079001235037FC47A01790093
:101940001235037E007F147D007B017A0179E41259
:1019500010B2902DE0E493900001F0900004741117
:10196000F0A37422F0A37433F0902DE2E49390007E
:1019700012F0902DE3E493900014F09000FB7401BA
:10198000F09000367410F09000F1F0900024F0A375
:101990007420F07B017A00794090010212107C7A69
:1019A00000794490010812107C7A00794290010578
:1019B00012107C7A00792E90010B12107C7A00793B
:1019C0002A90010E12107C7A0079289001111210D1
:1019D0007C7A00796090011F12107C7A00798090E7
:1019E00001AC12107C7A00791890013912107C7ABF
:1019F00000791B90013612107C7A00793290011424
:101A000012107C7A00792690011712107C7A0079E6
:101A10003490011A12107C900114121073E475F0C6
:101A2000C8120E81900117121073E475F064120E43
:101A30008190011A121073E475F096120E817510E0
:101A4000007511C87508007509967B017A007950F8
:101A500090013C12107C900052740A12350C9000D8
:101A6000580412350C9001E5F0A374D0F0E4900115
:101A7000E4F022758D20438D20538D7FE4F5B275FF
:101A8000B6FF75B7FF75B2A243B20153A8FB538BE3
:101A90007F758B10438B08E58B20E7030080F8539C
:101AA0008B7F758B11438B08E58B20E7030080F853
:101AB000900227E5B5F0A3E5B4F0758B01E4F5B22B
:101AC0001234CCE4F58D12351F4E7010123516FD10
:101AD00090011DE5F0F0A3EDF0022339123516FD5B
:101AE000C3EF9DFFEE95F0FE123556D3EF940AEE4C
:101AF000648094804024123516FFC390011EE09F3D
:101B000090011DE095F05006E475F001800790010A
:101B10001D74FFF5F0120E08803F12351F7C007D0A
:101B200003121085ECC0E0EDC0E0EEC0E0EFC0E0D5
:101B3000123516FFAEF0E4FCFDD0E0FBD0E0FAD0A9
:101B4000E0F9D0E0F8120EA0E47B04FAF9F8120FE5
:101B50004690011DEEF0A3EFF09001F9E064011250
:101B6000351FE4FCFD7B0AFAF9F8120F4690019844
:101B7000EEF0A3EFF090019AE07002A3E0700D90F8
:101B80000198E0FFA3E0A3CFF0A3EFF09001A0E065
:101B90007002A3E0700F90011DE0FFA3E09001A090
:101BA000CFF0A3EFF0229001CBEFF0902E22E0FFD8
:101BB0009001CFE4F0A3EFF0758A50902E227401CB
:101BC000F01231C97404F0A3E4F09001CCF090015C
:101BD000CCE0FFC3940D74809480400302249AEFFC
:101BE000F87E02E4088006CEA2E713CE13D8F8FFF1
:101BF0009001CDEEF0A3EFF04E70079001CDF0A371
:101C000004F0902E207401F0902E20E030E2F99044
:101C100001CBE0FF902E001231D0E0FCA3E0D39482
:101C2000FEEC940740401231F1E0FEA3E0FF90018A
:101C3000CDE0FCA3E0FDEF2DFFEE3CFEC3EF94FFF3
:101C4000EE94079001CBE075F002902E10500B122D
:101C50001067EC8DF0120E0880501210677407F0B8
:101C6000A374FFF080449001CBE0FF1231CDE0FC83
:101C7000A3E0FD9001CDE0FAA3E0FBD3ED9BEC9A4D
:101C800040211231F1C083C082C3A3E09BFF0582D3
:101C9000D5820215831582E09AD082D083F0A3EF1B
:101CA000F080071231C9E4F0A3F0902E20E4F0F5A3
:101CB0008D9001CCE004F00223AE9001CFA3E09020
:101CC0002E22F0758A30227FC87E007D967C00121D
:101CD00029C840030225983007209001B4E0700223
:101CE000A3E06008751013751188800675100775DC
:101CF00011D075080675094080499001F9E0F96432
:101D0000017006FE7FC8FC7D969001BEE0FAA3E05C
:101D1000FB2FF511EA3EF510CEECCEEDFFEB2FF5E3
:101D200009EA3EF508E964017019A3E0FEA3E0FFAB
:101D30002511F511EE3510F510EF2509F509EE35F1
:101D400008F50890010512299BFFAEF0C39511EE2E
:101D50009510500F90013FE0601AC3EF9509EE9582
:101D60000840119001EDE07002A3E0702990013F5E
:101D700004F080229000F1E064209001ED7005F005
:101D8000A3F080077401F0A374F4F0E490013FF035
:101D90009001EB122A1D90013FE0FF601690002495
:101DA000E0641090003670057410F080037420F029
:101DB000122A0090004BEFF022E4F516F515F51409
:101DC000F513F516F515F514F513F512122A27502B
:101DD0002AE51225E0240AF8E6FE08E6FFE4FCFD09
:101DE000E5162FFFE5153EFEED3514FDEC35138F9E
:101DF000168E158D14F513051280D1E47B02FAF9C5
:101E0000F8AF16AE15AD14AC13120F4690017DEE6F
:101E1000F0A3EFF0E47516A8751561F514F513F548
:101E200012122A27505590017D1229AAC3122A3175
:101E3000123556D3EF940AEE6480948040129001DC
:101E40007DE0FEA3E0FF900155E0FCA3E0FD8007EC
:101E50009001551229AAC3122A313395E0FDFCE501
:101E6000162FFFE5153EFEE5143DFDE5133C8F16EC
:101E70008E158D14F5130512022601E47F607EEAAB
:101E8000FDFCAB16AA15A914A813D3120FEE400B34
:101E9000E47516607515EAF514F513AE15AF162244
:101EA0009001D41210129001CFE0FB75F013A4241E
:101EB000FFF582E43401F58312102AEB75F013A4C8
:101EC000240AF582E43402F5831210129001D41230
:101ED000101E120EBB9001CFE0FB75F013A424FB83
:101EE000F582E43401F58312102AEB75F013A42473
:101EF00003F582E43402F5832275F002121067E4E0
:101F000093FE740193FFED75F013A42404F582E4AD
:101F10003402F583E0FCA3E0D39FEC9E229001CF36
:101F2000E0FB75F013A424FFF582E43401F583226D
:101F3000EB75F013A42406F582E43402F58322EB5A
:101F400075F013A424FBF582E43401F5832290019B
:101F5000DC12102A9001D402101212102A9001DC17
:101F6000021012EB75F013A4240AF582E43402F592
:101F70008322C0E0C083C082C0D075D018D2AFE544
:101F8000DB30E422D205C202E5DB30E11412354831
:101F9000E0F5DFEF64077065D28A900007F0022851
:101FA00000C201022803E5DB30E52C9000F0E0647C
:101FB000AA7017758A10F5DAC2AFF5B2F5A8F5A9BF
:101FC000F58B758E01758DC080FED200300204C283
:101FD000028050C205804CC202E5DB30E121E5DB26
:101FE00030E040123548E0F5DFEF24F9600824EED8
:101FF000700BD2068007D28A900007E4F08021207F
:10200000010A7817A6DFD201D2028017123548E5FF
:10201000DFF0EF642470099001E704F0A374F4F09A
:1020200078170675DBFFD0D0D082D083D0E0329015
:1020300001C91210129001C6E0C454F02414F582B4
:10204000E43402F58322EBC454F02412F582E43424
:1020500002F583E4F0A3F09001C6E0FFC454F0243D
:1020600016F582E43402F583E4F0A3F0EFC454F0F3
:10207000241BF582E43402F583229001C6E0FBC400
:1020800054F0240EF582E43402F58322E0FDA3E04F
:102090009001C7CDF0A3EDF0EFC454F0241AF582FF
:1020A000E43402F583229001C6E0C454F02418F50C
:1020B00082E43402F58322C454F0241CF582E43413
:1020C00002F583229001C7E0FEA3E0FF22C454F092
:1020D0002412F582E43402F58322E0FEA3E0FFD36C
:1020E0009400EE9400229001C902101EE49001C4F5
:1020F000F0A3F090014C7407F0A304F090014A148F
:10210000F0A304F012332F7E007F047D007B017A60
:102110000179551210B27F011233B2902E14E0FEF5
:10212000A3E0FF1231C290013C121073EE8FF01247
:102130000E81E4FF1233B21231D69001C4CDF0A368
:10214000EDF09001C4E0FCA3E0FDC39405EC940025
:102150004009D3ED94F0EC94074017EF64014E7002
:102160000590014C8004E490014AF0A3F0E4FF12D2
:1021700033B2902E23E4F01231D69001C4CDF0A3F7
:10218000EDF090001D7410F0EF64014E9001C470EA
:10219000081231BD1231FB80061231BD123205E04A
:1021A0003EFE1231E52290014012101290010812F9
:1021B0001073EE8FF0020E81900102121073020E66
:1021C0001E9001C4E0FEA3E0FF22E51225E0240AF0
:1021D000F8E6FE08E6FFE0FCA3E0FD229001051210
:1021E0001073E4F5F0020E81D39001E6E0940090C4
:1021F00001E5E094002225E02471F582E43401F544
:1022000083E022EE9001C4F0A3EFF0221210737469
:102210006175F0A8020E81900100E0FCA3E0FD22B0
:102220009001E77403F0A37420F022E475F001023A
:102230000E08E0FEA3E0FBEEFAE4F9F822F0A3F0CA
:102240009000367410F022C3E512940274809480DA
:1022500022EF9DFFEE9CFE22E0FEA3E0FFC3229052
:1022600001F9E025E0246FF582E43435F583E58259
:102270002FF582E43583F583E49322CFF0A3EFF0CA
:10228000902E20E4F053B2E1758A3043B21043B28D
:1022900002221234AF53B2E143B20C758A5043B2FA
:1022A00002902E207401F0229001C9E0FFA3E0CF3C
:1022B00090015BF0A3EFF022F583E49375F00290B8
:1022C0002E00121067E0FFA3E0229001F9E024291C
:1022D000F582E43402F583E02212101E900161E0E1
:1022E000FEA3E022F583E4932420F582E4342EF566
:1022F00083229001F9E06401229001CB021012E0E8
:10230000FCA3E0FDECFEEDFF22120EA09001CB023B
:10231000102A123026122DBF7E007F2C7D007B01FB
:102320007A0179801210B212082EE4900179F0A39C
:10233000F0900167F0A3F0900165F0A3F0900169BF
:10234000F0A3F07F02122D3F900100E0FEA3E0FF1A
:10235000A312298F900100E0FEA3E0FF12298C1246
:1023600029BC90010B1229EC9001111229EC90016B
:102370000E1229BFE490013FF0FE7F0AFD7B017A37
:102380000179401210B2E49001F3F0A3F09001F152
:10239000122A1DE490004BF0122A009001F7E07021
:1023A0000FC39001E6E094F49001E5E09401500A37
:1023B0009001E57401F0A374F4F022787FE4F6D87C
:1023C000FD758121022BE5020000022CB7E493A3E6
:1023D000F8E493A34003F68001F208DFF48029E4D7
:1023E00093A3F85407240CC8C333C4540F4420C823
:1023F000834004F456800146F6DFE4800B010204BA
:10240000081020408090345DE47E019360BCA3FFFF
:10241000543F30E509541FFEE493A360010ECF54EE
:10242000C025E060A840B8E493A3FAE493A3F8E4DD
:1024300093A3C8C582C8CAC583CAF0A3C8C582C849
:10244000CAC583CADFE9DEE780BEE49001C8F0A315
:10245000F0200603022CB620077CC2069001F9E0AA
:10246000902E12E0FFA3E09001C8CFF0A3EFF09010
:1024700001C8E0FFA3E09001C6CFF0A3EFF0E4FFB6
:102480001233B21231D69001C8CDF0A3EDF0EF6453
:10249000014E9001C870081231BD1231FB80061246
:1024A00031BD123205E03E9001C4F0A3EFF090017F
:1024B000C4E0FEA3E0FF1231E59001F9E09001C60F
:1024C000E0FFA3E0902E12CFF0A3EFF09001E774AD
:1024D00003F0A37420F02253A87F1234E8122111D4
:1024E00012337212080E43A880E4F58D9000F17447
:1024F00020F0122E4A9001E4E014601514601714C5
:10250000603814604A240470E01228CC120803805A
:10251000D8122AF2803112348C900020E0FF64201F
:102520006008EF64216003122EC8900025E064105B
:1025300070B79001E47404F080AF12080A9001E7CC
:102540007403F0A37420F09001E47402F0809A12F6
:1025500032A3900025E06410608F120803808A90F7
:1025600001C4EFF0E4A3F09001C4E0FFA3E0C39F37
:10257000502E121133123528900169EEF0A3EFF0BE
:102580008E0EF50FC8740AC87400FCE4FDFB7A00D7
:10259000790CFE7F04120D9A9001C5E004F080C70B
:1025A000122599900100EEF0A3EFF0900167122A36
:1025B00038900133E09FFF900132E09EFE123556C5
:1025C0007C007D05120DD2900130ECF0A3EDF0906F
:1025D0000167E0FFA3E0900132CFF0A3EFF0227E8D
:1025E000007F047D007B017A0179591210B27E00D0
:1025F0007F047D007B017A0179610210B200000046
:102600000702AB4274AA7583F5758255A57455759A
:1026100083FA7582AAA574A57583F5758255A522DE
:102620000203030AB0B00BB6B60CFFFF09020208A2
:10263000FFFF0D77770E04041307071410101080A6
:10264000801500001600000192129212071B021A58
:102650000A0F040404040401010101110A080A0814
:1026600012040404040302040204900020E0642025
:1026700070037421F0900136121073120E1E641054
:1026800045F0700312325A900001E064AA70031200
:10269000315C12320F20030890001AE06410700BB6
:1026A00090001A7411F0C2031208039000FBE0605E
:1026B00006E4F09001E4F090016DE07004A3E064A2
:1026C00001701590016DF0A3F09001B67407F0A3AE
:1026D00074D0F0E49001E4F030000CC2009001E707
:1026E0007401F0A374F4F022308A789001E5E07070
:1026F00002A3E0706E90016DE07002A3E07064F5DB
:10270000B2758D20438D20758D9043A808D2AF758A
:102710008B4090012CE0FEA3E0FF4E6005758E1407
:102720008003758E3C20002F20052CE5DB540470BF
:1027300026758AA4200520E5DB5404701AF58675F9
:102740008703000000758601EF4E60047F28800239
:102750007F787E00121A05758B01758A3053A8F7B1
:102760001234CC22E4FEEEC3940774809480503877
:10277000EE75F005A42428F582E4342EF583C08399
:10278000C0829001F9E0D082D08375F00212106708
:10279000122A4EFDEE75F005A42427F582E4342EAE
:1027A000122AC4EDF00E80BEEF70109001F9E070B7
:1027B0000A90014AE07002A3E0600F122AD270145E
:1027C00090014CE07002A3E0700A9001F9E0902EB5
:1027D000217412F022CFF0EFA3F0900105121073D4
:1027E000020E1EC3FF900185E09F900184E095F0EA
:1027F0002290011DE0FEA3E0FF2290011DE0FFA357
:10280000E0229001C7E0941E9001C6E0940022905F
:1028100001A87413F0A37488F0A3E4F0A322E4F0F9
:10282000A3F0A3F0A3F022CF9001A0F0A3EFF02239
:10283000FF900184E5F0F0A3EFF0229001A3E09F68
:102840009001A2E09E227E007F137D007B017A0131
:1028500079FB1210B2E4FBEBC394017480948050B6
:10286000519001F9E0FFEB75F00AA42462F582E4CF
:102870003435F583E5822FF582E43583F583E493DF
:10288000FFE4FCFDFE12271012102A12271012106E
:1028900012EF04F87E007401088005C333CE33CEF6
:1028A000D8F9FFEE3395E0FDFC12274312102A0BF6
:1028B00080A5229001E9E07004A3E064017011900A
:1028C0000007E06004D28AE4F0E49001E9F0A3F0AC
:1028D000900036E0FF9000FFE06F603D900036E032
:1028E000FD9000FFF0900007E09001FAF0540FF027
:1028F000ED7E0064207005E04420800CEF64104EF3
:10290000700B9001FAE04410F0900007F0C28A903A
:1029100001E97403F0A374E8F02274FFF5F0020EED
:1029200008EF2401FDE43EFCD3E09D22E475F001B4
:10293000020E08C3900149E094BC900148E0940263
:1029400022C390018FE0946490018EE0940022C332
:1029500090021DE094B890021CE0940B22C39002F8
:1029600017E094F4900216E0940122EE8FF0020E2C
:1029700008EF2401FDE43EFCD3E09D229001C474E5
:1029800008F0A3E4F0A3743FF0A374DFF0E4FDFCCF
:10299000F9758A10538AEF009001C4E0FEA3E02D80
:1029A000F582EE3CF583E493FF69F90DBD00010C5F
:1029B000BC37E5BDDFE29001C6E0FEA3E0F5828E04
:1029C00083E493FFE96F70089000017407F08005BD
:1029D000E4900001F0758A30538AEF0022E0FEA3F4
:1029E000E0FF7C007D0A020DC09001CBE0902E102C
:1029F00075F0020210679001F9E0FF7E00902E1240
:102A0000E0FDA3E022900139121073EE8FF0020E68
:102A10008175F002EF902E1002106790014DE02FAB
:102A2000FF90014C2290014BE02FFF90014A229031
:102A30000013E0FF9001F8E06F600CEFF09001F5FB
:102A40007402F0A37458F09001F5E07004A3E06400
:102A50000170269001F8E0FF7E0064107002D2073A
:102A6000EF64204E7002C207900025E064106002FF
:102A7000D203E49001F5F0A3F022E49001C4F0A3A6
:102A8000F0758A10538AEF00122DE475EA81E4F59F
:102A9000F6F5F475F308F5F275EB0700E5EC30E7B1
:102AA000FBAFF3EFFEADF2EDFF900136121073EEC7
:102AB0008FF0120E81E4F5EC75EB30758A30538A95
:102AC000EF0022900025E06410703FF5B2758D2074
:102AD000438D20538D7F53A8F7F58BE5DB540470AD
:102AE00013200510F58AF5867587030000007586AA
:102AF00001758A30758B019001F77401F09001E740
:102B00007403F0A37420F01234CC22C2D5E830E76D
:102B10000FB2D5E4C39BFBE49AFAE499F9E498F880
:102B2000EC30E717B2D5123321120F46E4C39BFBFA
:102B3000E49AFAE499F9E498F88003120F4630D544
:102B40000DE4C39FFFE49EFEE49DFDE49CFC22E4B3
:102B5000FFEFC3940D74809480502E9001F9E0FE35
:102B6000EF75F003A42401F582E4342EF583E582A9
:102B70002E122A51FEEF75F003A42400F582E434EE
:102B80002E122AC4EEF00F80C8902F56E0902E2B04
:102B9000F022E4F5DA75DA4043DA2030881375D78D
:102BA0004075D6409001F904F09000157440F08013
:102BB0001175D74275D642E49001F9F09000157472
:102BC00041F05392FE75DA5843A80275B80275F8C1
:102BD00002229001CAEFF01234AF9001CAE0FF1256
:102BE0002F449001CAE0FF9001F9E025E0246FF541
:102BF00082E43435F583E5822FF582E43583F5836D
:102C0000E493FF1223869001CAE0FF023539900158
:102C1000C6EFF07E007F10EEC0E0EFC0E07D00E088
:102C200075F010A4240EF9740235F0FA7B01D0E09F
:102C3000FFD0E0FE1210B29001C6E0122897740B8C
:102C4000F0A374B8F022900156E0243CFF900155A7
:102C5000E034F6FEC3900168E09F900167E09E506B
:102C60001490016DE07002A3E0701190016D04F00A
:102C7000A374F4F022E490016DF0A3F022C10542A8
:102C800002290205C1064101FA004101F900C1070C
:102C90004101F800C101011700C100C102C104C116
:102CA000034100FF104302240102270012082E7F77
:102CB00001122D3F121E8490010212298F12143C22
:102CC0001224A7121FCC123093123426022C2AEFA2
:102CD000F87401088002C333D8FC42AB122A3F903B
:102CE000356C93F4529152935391DF22E5B2540123
:102CF0006006E5A85410700F75B29275B67CE4F5C5
:102D0000B743B20143A81022758A30538AEF758603
:102D100001758F05E4F5AB75AC0F75913E759201A9
:102D2000D28A227E007D007B010210B2F0A37404DF
:102D3000F0A37407F022900224121073020E1E906A
:102D4000011DE0FEA3E0FF22900167E0FEA3E0FF8B
:102D5000900165EEF0A3EFF022122A3F90356C93BC
:102D600042914288439120227817E6FF2400F582A1
:102D7000E43400F58322EE30E707C3E49FFFE49ECE
:102D8000FE2203030019001E001400190102200195
:102D9000020102009600960701F400000000000006
:102DA0000000000000000000000000000000000023
:102DB0000000000000000000000000000000000013
:102DC0000000000000000000000000000000000003
:102DD00000000000000000000000000000000000F3
:1037F0000000000000000000000000000000005B6E
:1038000000000000000000000000000000000000B8
:1038100000000000000000000000000000000000A8
:00000001FF
